:020000040000FA
:060000000A128A110C280F
:10000800FE00030EF0000A08F1000A168A118C2F70
:100018000A128A110F28FA01FB0183120313EC015B
:10002800ED01EE01EF018313A0308400B0300A1611
:100038008A1184270A128A1183010A128A11242834
:100048000330831603138500860187018801033076
:10005800831603178800831203138501860187011D
:1000680088010A128A1576210A128A118030F20054
:100078002530F3000A128A15AD200A128A110A16D1
:100088008A117D270A128A11F501F50A01300A1230
:100098008A1532200A128A110B30F5008030F600DA
:1000A8000A128A1530210A128A11F501F50A073059
:1000B8000A128A1532200A128A111130F50080308E
:1000C800F6000A128A1530210A128A11F501F50A7A
:1000D8000D300A128A1532200A128A111730F500DB
:1000E8008030F6000A128A1530210A128A1100306F
:1000F8000A128A1541220A128A11831203136F0801
:10010800031987288828A9281E08E800E901EA01B8
:10011800EB016B08F5006A08F4006908F300680849
:10012800F20000300A128A15DF220A128A117508B5
:1001380083160313AF007408AE007308AD0072088D
:10014800AC0083120313EF019F144330D1007F30BA
:10015800D0000030CF000030CE004030B700A030D3
:10016800B6000030B5000030B400831603132F0822
:1001780083120313BB00831603132E088312031381
:10018800BA00831603132D0883120313B9008316CC
:1001980003132C0883120313B8000A128A11872349
:1001A8000A128A11831203133708D5003608D400BF
:1001B8003508D3003408D2000A128A159B230A1284
:1001C8008A1183120313510883160313AF00831295
:1001D8000313500883160313AE00831203134F084A
:1001E80083160313AD00831203134E0883160313FB
:1001F800AC002F08F5002E08F4002D08F3002C0899
:10020800F2000A128A15C5210A128A11720883128D
:100218000313E8006808EE004230B700C830B600A3
:100228000030B5000030B4006E08E800E901EA01CA
:10023800EB016B08F5006A08F4006908F300680828
:10024800F20001300A128A15DF220A128A11750893
:1002580083120313AF007408AE007308AD00720870
:10026800AC00831603132F0883120313B3008316FD
:1002780003132E0883120313B200831603132D08E9
:1002880083120313B100831603132C08831203137C
:10029800B0000A128A154D200A128A11831203131C
:1002A8002F08BB002E08BA002D08B9002C08B8008A
:1002B8000A128A1187230A128A1183120313370834
:1002C80083160313A7008312031336088316031338
:1002D800A60083120313350883160313A50083129F
:1002E8000313340883160313A4002708F50026080F
:1002F800F4002508F3002408F2000A128A15C52123
:100308000A128A11720883120313E8006808ED00C4
:10031800831603132F0883120313A80083160313ED
:100328002E0883120313A700831603132D088312C4
:100338000313A600831603132C0883120313A500C6
:100348000A168A11C8270A128A1102308312031367
:10035800E8006808F50001300A128A1532200A12EE
:100368008A11831203136E080A168A11E2270A12E9
:100378008A112E300A168A11B4270A128A110A30F5
:10038800831203136D02031CCA29CB29DB296D08CC
:100398000A168A11E2270A128A112030F5008030E5
:1003A800F6000A128A1530210A128A11F5291E3020
:1003B800F5008030F6000A128A1530210A128A11D7
:1003C800831203136D080A168A11E2270A128A118A
:1003D8002030F5008030F6000A128A1530210A1202
:1003E8008A111A3083120313E900F730E800E80B8A
:1003F800FB29E90BFB29002A01300A128A15412240
:100408000A128A11831203136F0803190C2A0D2A82
:100418002E2A1E08E800E901EA01EB016B08F50045
:100428006A08F4006908F3006808F20000300A124C
:100438008A15DF220A128A11750883160313AB0086
:100448007408AA007308A9007208A800831203138D
:10045800EF019F144330D1007F30D0000030CF002F
:100468000030CE004030B700A030B6000030B500F4
:100478000030B400831603132B0883120313BB0048
:10048800831603132A0883120313BA00831603136F
:10049800290883120313B90083160313280883124B
:1004A8000313B8000A128A1187230A128A118312C9
:1004B80003133708D5003608D4003508D3003408AC
:1004C800D2000A128A159B230A128A118312031377
:1004D800510883160313AB008312031350088316C5
:1004E8000313AA00831203134F0883160313A900EA
:1004F800831203134E0883160313A8002B08F50074
:100508002A08F4002908F3002808F2000A128A15BC
:10051800C5210A128A11720883120313E8006808B9
:10052800FB004230B700C830B6000030B5000030DC
:10053800B4007B08E800E901EA01EB016B08F5006B
:100548006A08F4006908F3006808F20001300A122A
:100558008A15DF220A128A11750883120313AF0065
:100568007408AE007308AD007208AC00831603135C
:100578002B0883120313B300831603132A0883126C
:100588000313B20083160313290883120313B1005F
:1005980083160313280883120313B0000A128A155E
:1005A8004D200A128A11831203132F08BB002E084C
:1005B800BA002D08B9002C08B8000A128A1187233E
:1005C8000A128A1183120313370883160313A30030
:1005D80083120313360883160313A200831203132E
:1005E800350883160313A1008312031334088316F6
:1005F8000313A0002308F5002208F4002108F300E3
:100608002008F2000A128A15C5210A128A117208F6
:1006180083120313E8006808EC00831603132B0801
:1006280083120313A800831603132A0883120313E3
:10063800A70083160313290883120313A600831641
:100648000313280883120313A5000A168A11C82762
:100658000A128A11023083120313E8006808F500B1
:1006680007300A128A1532200A128A117B080A16E4
:100678008A11E2270A128A112E300A168A11B42723
:100688000A128A110A30831203136C02031C4D2BC1
:100698004E2B5E2B6C080A168A11E2270A128A1161
:1006A8002030F5008030F6000A128A1530210A122F
:1006B8008A11782B1E30F5008030F6000A128A1550
:1006C80030210A128A11831203136C080A168A1140
:1006D800E2270A128A112030F5008030F6000A124B
:1006E8008A1530210A128A111A3083120313E9007D
:1006F800F730E800E80B7E2BE90B7E2B832B7B2859
:100708000A128A110C288312031337088039BC0097
:100718003C08C1003708BC003C07BD003D08C700C5
:10072800B61F972B982B992B4714470803199D2B15
:100738009E2BAD2B470A031DA22BA32BAB2B0030FE
:10074800B7000030B6000030B5000030B400B6176E
:10075800B52B0030B7000030B6000030B5000030CF
:10076800B4003B088039BC003C08C1063B08BC000B
:100778003C07BD003D08C200BA1FC32BC42BC52BC4
:10078800421442080319C92BCA2BD92B420A031D4C
:10079800CE2BCF2BD72B0030BB000030BA00003057
:1007A800B9000030B800BA17E12B0030BB000030A8
:1007B800BA000030B9000030B80042080319E52B30
:1007C800E62BEB2B4708031DEA2BEB2BF42B003011
:1007D800B7000030B6000030B5000030B400E72E96
:1007E8003408BC003C08F2003A080A128A11D227E1
:1007F8000A128A11730883120313CD007208CC0001
:100808004C08BC00BD01BE01BF013F08C6003E0840
:10081800C5003D08C4003C08C3004D08BC00BD012C
:10082800BE01BF013F08CB003E08CA003D08C90011
:100838003C08C8003508BC003C08F20039080A1218
:100848008A11D2270A128A11730883120313CD0062
:100858007208CC004C08BC00BD01BE01BF013C08B9
:10086800C3073D0803110318013E03193C2CC407B4
:100878003E0803110318013E0319432CC5073F081E
:1008880003110318013E03194A2CC6074D08BC0082
:10089800BD01BE01BF013C08C8073D08031103188C
:1008A800013E0319582CC9073E0803110318013EDD
:1008B80003195F2CCA073F0803110318013E0319E7
:1008C800662CCB073608BC003C08F20038080A1230
:1008D8008A11D2270A128A11730883120313CD00D2
:1008E8007208CC004C08BC00BD01BE01BF013C0829
:1008F800C3073D0803110318013E0319842CC407DC
:100908003E0803110318013E03198B2CC5073F0845
:1009180003110318013E0319922CC6074D08BC00A9
:10092800BD01BE01BF013C08C8073D0803110318FB
:10093800013E0319A02CC9073E0803110318013E04
:100948000319A72CCA073F0803110318013E03190E
:10095800AE2CCB070830BC000310C30DC40DC50D69
:10096800C60DBC0BB02C3508BC003C08F20038089A
:100978000A128A11D2270A128A11730883120313E2
:10098800CD007208CC004C08BC004D08BD00BE016B
:10099800BF013C08C3073D0803110318013E0319B2
:1009A800D62CC4073E0803110318013E0319DD2C99
:1009B800C5073F0803110318013E0319E42CC607B5
:1009C8003408BC003C08F20039080A128A11D22700
:1009D8000A128A11730883120313CD007208CC001F
:1009E8004C08BC004D08BD00BE01BF013C08C30750
:1009F8003D0803110318013E0319032DC4073E08DF
:100A080003110318013E03190A2DC5073F080311F6
:100A18000318013E0319112DC6070830BC00031046
:100A2800C30DC40DC50DC60DBC0B132D3408BC0079
:100A38003C08F20038080A128A11D2270A128A11D1
:100A4800730883120313CD007208CC004C08BC0055
:100A58004D08BD00BE01BF013C08C3073D08031196
:100A68000318013E0319392DC4073E080311031862
:100A7800013E0319402DC5073F0803110318013E25
:100A88000319472DC6073508BC003C08F2003A0890
:100A98000A128A11D2270A128A11730883120313C1
:100AA800CD007208CC004C08BC004D08BD00BE014A
:100AB800BF013C08C8073D0803110318013E03198C
:100AC800662DC9073E0803110318013E03196D2D51
:100AD800CA073F0803110318013E0319742DCB07F9
:100AE8003608BC003C08F20039080A128A11D227DD
:100AF8000A128A11730883120313CD007208CC00FE
:100B08004C08BC004D08BD00BE01BF013C08C80729
:100B18003D0803110318013E0319932DC9073E0828
:100B280003110318013E03199A2DCA073F08031140
:100B38000318013E0319A12DCB073608BC003C0859
:100B4800F2003A080A128A11D2270A128A11730887
:100B580083120313CD007208CC004C08BC004D086A
:100B6800BD00BE01BF0108300310BC0DBD0DBE0D98
:100B7800BF0DFF3E031DB82D3C08C8073D080311F3
:100B88000318013E0319C92DC9073E0803110318AC
:100B9800013E0319D02DCA073F0803110318013E6F
:100BA8000319D72DCB074308BC004408BD004508EE
:100BB800BE004608BF0018300310BF0CBE0CBD0CA9
:100BC800BC0CFF3E031DE02D3C08C8073D0803117F
:100BD8000318013E0319F12DC9073E080311031834
:100BE800013E0319F82DCA073F0803110318013EF7
:100BF8000319FF2DCB070830BC000310C30DC40D2B
:100C0800C50DC60DBC0B012E47084207BC00BD012F
:100C1800BD0D3C08823ECC003D080318013EFF3E56
:100C2800CD00332E0130BC000310C80DC90DCA0D0C
:100C3800CB0DBC0B182EC61F222E232E242E481493
:100C48000130BC000310C30DC40DC50DC60DBC0B8F
:100C5800262EFF30CC070318CD0AFF30CD07CA1F58
:100C6800362E372E162EC201C61F3B2E3C2E582E6E
:100C7800FF304305BC00FF304405BD00FF3045058B
:100C8800BE007F304605BF003F083E043D043C04DB
:100C980003194F2E502E532EC201C20A582E481C3B
:100CA800562E572E582E502E420803195C2E5D2EB4
:100CB8008E2E0130C807003003180130C9070030F4
:100CC80003180130CA07003003180130CB074B1C4A
:100CD8006E2E6F2E8E2E4808BC004908BD004A08AB
:100CE800BE004B08BF000130C0003F0DBF0CBE0C5A
:100CF800BD0CBC0CC00B792E3F08CB003E08CA00C7
:100D08003D08C9003C08C8000130CC070318CD0ACB
:100D18000030CD074D08803AFF0080307F02031D68
:100D2800972EFF304C02031C9A2E9B2EA62E7F3046
:100D380083120313CB008030CA000030C900003092
:100D4800C800DB2E831203134D08803AFF00803061
:100D58007F02031DB12E01304C020318B42EB52EAC
:100D6800C12E003083120313CB000030CA000030BC
:100D7800C9000030C800C101DB2E831203134C08E0
:100D8800BC003C08C700FF30C805FF30C9057F30EC
:100D9800CA050030CB05471CD22ED32ED42ECA1735
:100DA8004708BC0003103C0CBD003D08CB004108BF
:100DB800BC003C08CB044B08B7004A08B6004908F9
:100DC800B5004808B400080083120313B1002730A7
:100DD800A9002908AC00BB2F253032060319F52ECF
:100DE800F62E022F3208A90031088400290883133F
:100DF80080000130A9002908B107BB2FAD010130DF
:100E0800A607FF30260784000A128A150A200A124C
:100E18008A11B200A900AA012A08003A0319152F5D
:100E2800BB2F2908003A0319CD2F643A0319202F44
:100E38000D3A0319202FBB2F2C08840083130008B8
:100E4800AF00840A0008B0000230A9002908AC07E6
:100E5800B01F2F2F302F392F0330A9002908AD04D8
:100E6800AF09B009AF0A0319B00AB201B20A3208D1
:100E7800A9002907013E84000A128A150A200A12CD
:100E88008A11AA000A128A150A200A128A11AB00CE
:100E98002B083002031D522F2A082F020318552F42
:100EA800562F572F612F0130A9002908B2070530A6
:100EB8003206031D602F612F3B2F2D0803390319BC
:100EC800662F672F722F2D30A9003108840029085A
:100ED800831380000130A9002908B1073208A9004E
:100EE8002908AE00B22F0A30A0000030A1002E0859
:100EF800A9002907013E84000A128A150A200A124D
:100F08008A11F2000A128A150A200A128A11F300BD
:100F18003008F5002F08F4000A128A15EC200A128E
:100F28008A11730883120313A3007208A2000A121D
:100F38008A1571200A128A11831203132008303E81
:100F4800AA002A08B2003208A9003108840029083A
:100F5800831380000130A9002908B107FF30A900D8
:100F68002908AE072E0A031DBA2FBB2F772F013091
:100F7800A607FF30260784000A128A150A200A12DB
:100F88008A11A9002908B2003208031DCC2FCD2FE1
:100F9800F02E3108840083138001080083120313A4
:100FA800A400A001A1017208F400F5017408A200D0
:100FB8007508A300241CE12FE22FE82F2208A007C0
:100FC8000318A10A2308A10701300310A20DA30DDD
:100FD800FF3E031DE92F0310A40C2408031DF52F61
:0E0FE800F62FDE2F2108F3002008F20008008B
:10100000FF1B0A2883137F1883170008840A03191B
:10101000FF0A080008308A000408840A82070034A6
:10102000013400340A34003464340034E8340334C6
:101030001034273450344F34543430343134003485
:1010400050344F3454343034323400345434543403
:101050004C34003425346434003430340034563495
:0210600000345A
:10106400F6007503031D372838283F2876087F3E8D
:101074000A168A11A0270A128A1502307506031D62
:10108400442845284C287608BF3E0A168A11A02712
:101094000A128A150800803083120313AF0633083E
:1010A400F5003208F4003108F3003008F2002F088C
:1010B400F9002E08F8002D08F7002C08F6000A1293
:1010C4008A1578250A128A15750883120313AF004E
:1010D4007408AE007308AD007208AC0008008312F7
:1010E400031320082104031978287928A828A501C6
:1010F400A50A872801300310A00DA10DFF3E031D92
:101104007D280130A4002408A507A11F8A288B2864
:101114007C2821082302031D912820082202031C95
:10112400942895289B282008A2022108031CA303C5
:10113400A30201300310A10CA00CFF3E031D9C2848
:101144000130A502031DA728A8288B282308A10085
:101154002208A0000800803083160313870026307D
:101164009800903083120313980083160317871591
:10117400C92867308316031399005F30031399005D
:10118400333003139900103003139900EB287308CC
:10119400253A0319D7280D3A0319DC28633A0319B1
:1011A400E128AA3A0319E628EB287208803A0319C1
:1011B400BB28EB287208B13A0319BF28EB28720840
:1011C400003A0319C228EB287208003A0319C5280B
:1011D400EB280800F701F801720873040319F328D7
:1011E400F4282B29F901F90A022901300310F20D20
:1011F400F30DFF3E031DF8280130F6007608F907C9
:10120400F31F05290629F72801300310F70DF80DFF
:10121400FF3E031D072973087502031D1329720875
:101224007402031C162917291E297208F402730874
:10123400031CF503F502771401300310F30CF20CD0
:10124400FF3E031D1F290130F902031D2A292B2902
:1012540006297808F3007708F200080083120313C4
:10126400A001A101592920087507F8007608F700A4
:101274000318F70AA01F3F29F7037708F900790834
:1012840083120313FF00780884000A128A150020D1
:101294000A128A150A168A11B4270A128A1501300D
:1012A40083120313A0070318A10A0030A107200822
:1012B4007507F8007608F7000318F70AA01F6329DA
:1012C400F7037708F900790883120313FF007808FD
:1012D40084000A128A1500200A128A15003A031D96
:1012E40074297529352908001430F6007930F50081
:1012F400F50B7A29F60B7A297F2930300A168A11E0
:10130400A0270A128A150730F6007D30F500F50B88
:101314008929F60B892930300A168A11A0270A1266
:101324008A150F30F6004730F500F50B9729F60BB8
:1013340097299C2930300A168A11A0270A128A1587
:101344003530F500F50BA42938300A168A11A02788
:101354000A128A1510300A168A11A0270A128A1551
:1013640001300A168A11A0270A128A1506300A16B5
:101374008A11A0270A128A150C300A168A11A0278E
:101384000A128A1508000310740D750D83120313D5
:10139400A0002008F7007708031DD129D229DB29F2
:1013A4000030F5000030F4000030F3000030F200AB
:1013B400402A7208A0007308A1007408A2007508EE
:1013C400A3001F300310A30CA20CA10CA00CFF3E21
:1013D400031DE4292008A4002408F600F417FF30B4
:1013E400F205FF30F305FF30F4050030F5059630C3
:1013F400F702F71FFE29FF29192A7708803A973E3A
:101404000318052A062A072AD22901300310F50CED
:10141400F40CF30CF20CFF3E031D082A0130A0006B
:101424002008F707031D172A182A072A302A203014
:101434007702031C1E2A1F2A2B2AD2290130A0005E
:101444000310F20DF30DF40DF50DA00B222A01305B
:10145400F7027708031D2F2A302A202A7608031959
:10146400342A352A402AF209F309F409F509F20A63
:101474000319F30A0319F40A0319F50A0800F4001E
:101484008B170B17831603130C17831203130C13F8
:101494009F131F171F149E2A9F121F129F111F11A3
:1014A400D82A9F121F129F111F15D82A9F121F128C
:1014B4009F151F11D82A9F121F129F151F15D82A76
:1014C4009F121F169F111F11D82A9F121F169F11BA
:1014D4001F15D82A9F121F169F151F11D82A9F1255
:1014E4001F169F151F15D82A9F161F129F111F1113
:1014F400D82A9F161F129F111F15D82A9F161F1234
:101504009F151F11D82A9F161F129F151F15D82A21
:101514009F161F169F111F11D82A9F161F169F1161
:101524001F15D82A9F161F169F151F11D82A9F16FC
:101534001F169F151F15D82A7408F200F3017308AB
:10154400003A0319A62AD82A7208003A03194E2A27
:10155400013A0319532A033A0319582A013A031981
:101564005D2A073A0319622A013A0319672A033AE2
:1015740003196C2A013A0319712A0F3A0319762ABE
:10158400013A03197B2A033A0319802A013A031901
:10159400852A073A03198A2A013A03198F2A033A3A
:1015A4000319942A013A0319992AD82A8316031392
:1015B4009F01831203139F14080083120313A000D6
:1015C40020080319E62AE72AFB2AF51FEA2AEB2A50
:1015D400FB2A7209A2007309A3007409A400750907
:1015E400A500A20A0319A30A0319A40A0319A50A48
:1015F400032B7508A5007408A4007308A3007208DF
:10160400A2007508740473047204031D0A2B0B2BC7
:10161400142B0030F5000030F4000030F3000030EB
:10162400F2009A2B9630F6007608A100262B0130A2
:10163400F6007608A10701300310A50CA40CA30C36
:10164400A20CFF3E031D1E2BFE302505031D2B2B74
:101654002C2B192B482B0130F6007608A1070130FA
:10166400A207003003180130A3070030031801302B
:10167400A407003003180130A50701300310A50C9E
:10168400A40CA30CA20CFF3E031D402BFF30250528
:10169400031D4D2B4E2B2D2B5A2B0130A102013053
:1016A400F6000310A20DA30DA40DA50DF60B532BEC
:1016B400A41B5D2B5E2B642B023021020318632BC9
:1016C400642B4F2B2118672B682B702BFF30A2053E
:1016D400FF30A3057F30A405FF30A5050310A10C3E
:1016E4002108F600F701F801F90118300310F60D8E
:1016F400F70DF80DF90DFF3E031D782B7608A204B3
:101704007708A3047808A4047908A5042008031919
:101714008C2B8D2B922BF51F902B912B922BA51795
:101724002508F5002408F4002308F3002208F20039
:1017340008008312031355088039D6005608DF00C9
:101744005508D6005607D7005708E600D41FAB2B20
:10175400AC2BAD2B661466080319B12BB22BC22B2C
:10176400660A031DB62BB72BBF2B0030D500003003
:10177400D4000030D3000030D200D417D501CA2BD6
:101784000030D5000030D4000030D3000030D20047
:1017940051088039D6005608DF065108D60056078E
:1017A400D7005708E700D01FD82BD92BDA2B6714A2
:1017B40067080319DE2BDF2BEF2B670A031DE32BCE
:1017C400E42BEC2B0030D1000030D0000030CF00EF
:1017D4000030CE00D017D101F72B0030D1000030FB
:1017E400D0000030CF000030CE00510850044F0428
:1017F4004E04031DFE2BFF2B182C0030D5000030A7
:10180400D4000030D3000030D2008030D4047F30C4
:10181400D5045F08D6005608D5045508D1005408ED
:10182400D0005308CF005208CE00772D6608031D60
:101834001C2C1D2C262C0030D1000030D000003090
:10184400CF000030CE00772D6608D600D7015708A8
:10185400D90067085602D800031CD90358087F3EF4
:10186400E00059080318013E003EE1005508DE007F
:101874005408DD005308DC005208DB000030D500BA
:101884000030D4000030D3000030D2000030E50036
:101894000030E4000030E3000030E200E7019C2C5B
:1018A40067080319562C572C772C0130D6000310E7
:1018B400DB0DDC0DDD0DDE0DD60B592C0130D60011
:1018C4000310D20DD30DD40DD50DD60B622CE51F0C
:1018D4006C2C6D2C6E2C52140130D6000310E20DCA
:1018E400E30DE40DE50DD60B702C51085E02031DCB
:1018F400852C50085D02031D852C4F085C02031DD6
:10190400852C4E085B02031C882C892C982C6517A7
:101914004E08DB024F08031C4F0FDC025008031C67
:10192400500FDD025108031C510FDE020130D600B6
:101934005608E7071A306702031CA12CA22C522C6C
:101944005E085D045C045B040319A92CAA2CC92C51
:101954006214C92C0130D6000310D20DD30DD40D5E
:10196400D50DD60BAE2CE51FB82CB92CBA2C5214BD
:101974000130D6000310E20DE30DE40DE50DD60BA6
:10198400BC2CFF30E0070318E10AFF30E107D41F45
:10199400CC2CCD2CAC2CE701E51FD12CD22CEE2C79
:1019A400FF306205D600FF306305D700FF306405C1
:1019B400D8007F306505D9005908580457045604E7
:1019C4000319E52CE62CE92CE701E70AEE2C521C5E
:1019D400EC2CED2CEE2CE62C67080319F22CF32CDE
:1019E400242D0130D207003003180130D307003012
:1019F40003180130D407003003180130D507551CF3
:101A0400042D052D242D5208D6005308D700540860
:101A1400D8005508D9000130DA00590DD90CD80C7A
:101A2400D70CD60CDA0B0F2D5908D5005808D40062
:101A34005708D3005608D2000130E0070318E10A22
:101A44000030E1076108803AFF0080307F02031D07
:101A54002D2DFF306002031C302D312D3F2DFF3022
:101A640083120313E0000030E1000030D5000030A1
:101A7400D4000030D3000030D20083120313610875
:101A8400803AFF0080307F02031D4A2D013060023E
:101A940003184D2D4E2D5B2D83120313E001E1013C
:101AA4000030D5000030D4000030D3000030D20024
:101AB400DF01831203136008D6005608E600661C93
:101AC400642D652D672DD4176B2D7F30D6005608F5
:101AD400D4056608D6000310560CD7005708D50065
:101AE4005F08D6005608D5040F2C08007508803905
:101AF40083120313A0002008A8007508A000200783
:101B0400A1002108AA00F41F882D892D8A2D2A14EA
:101B14002A0803198E2D8F2D9F2D2A0A031D932D1C
:101B2400942D9C2D0030F5000030F4000030F300BB
:101B34000030F200F417F501A72D0030F500003055
:101B4400F4000030F3000030F20079088039A0007E
:101B54002008A900290828060319B12DB22DB32D98
:101B640028177908A0002007A1002108A900F81F60
:101B7400BC2DBD2DBE2D291429080319C22DC32D3A
:101B8400D32D290A031DC72DC82DD02D0030F900EF
:101B94000030F8000030F7000030F600F817F901C3
:101BA400DB2D0030F9000030F8000030F700003081
:101BB400F6002A0829020318E02DE12D252E281FFE
:101BC400E42DE52DE92D8030A0002008A8062A0880
:101BD400A0002008AB002908A0002008AA002B08B8
:101BE400A0002008A9007208A0002008AB00760815
:101BF400A0002008F2002B08A0002008F6007308BB
:101C0400A0002008AB007708A0002008F3002B08F0
:101C1400A0002008F7007408A0002008AB00780892
:101C2400A0002008F4002B08A0002008F800750884
:101C3400A0002008AB007908A0002008F5002B08BC
:101C4400A0002008F900AB012908A000A101210887
:101C5400A3002A082002A200031CA3032308803A3D
:101C6400FF0080307F02031D392E1A302202031C2C
:101C74003C2E3D2E7A2E7508740473047204031DE1
:101C8400442E462E0130472E003083120313A00049
:101C94002008AB000030F5000030F4000030F30001
:101CA4000030F2002908A0002008AA00822E2B1C74
:101CB4005C2E5D2E662E2B08A0000310200C01382C
:101CC400A1002108AB00682E0310AB0C721C6B2E14
:101CD4006C2E6D2EAB170130A000750DF50CF40CB5
:101CE400F30CF20CA00B6F2E0130A0002008AA0701
:101CF4008312031329082A02031C812E822E592ED3
:101D0400281B852E862ED12E2A08031D8A2E8B2E63
:101D1400942E0030F5000030F4000030F300003061
:101D2400F200FF2F7608F207770803110318013E2B
:101D340003199D2EF307780803110318013E0319B4
:101D4400A42EF407790803110318013E0319AB2EDE
:101D5400F507751CAE2EAF2E852F2B1CB22EB32E7D
:101D6400BC2E2B08A0000310200C0138A100210870
:101D7400AB00BE2E0310AB0C721CC12EC22EC32EA0
:101D8400AB170130A000750DF50CF40CF30CF20C3C
:101D9400A00BC52E0130A0002008AA07852F7508C6
:101DA400803AFF007908803A7F02031DE32E780809
:101DB4007402031DE32E77087302031DE32E7608D5
:101DC40072020318E62EE72E3F2FFF30A000FF30EB
:101DD400A100FF30A200FF30A3007608A40077081A
:101DE400A5007808A6007908A7007208A402730861
:101DF400031C730FFE2EFF2EA5027408031C740F20
:101E0400042F052FA6027508031C750F0A2F0B2F2C
:101E1400A7022408A00725080318250F122F132F43
:101E2400A10726080318260F182F192FA207270821
:101E34000318270AA3072308F5002208F400210841
:101E4400F3002008F2008030A0002008A806AB09A7
:101E5400AB0A2B08031D2F2F302F4D2F0130F20713
:101E6400003003180130F307003003180130F40781
:101E7400003003180130F5074D2F7608F202770879
:101E8400031C770FF3027808031C780FF402790817
:101E9400031C790FF5027508740473047204031D9E
:101EA400542F552F812F2B08031D592F5A2F812F63
:101EB4000030F5000030F4000030F3000030F20090
:101EC400FF2F0130A0000310F20DF30DF40DF50DFA
:101ED400A00B652FAB1F6F2F702F712F72142B1C4B
:101EE400742F752F782F0314AB0D7A2F0310AB0DBD
:101EF4002A0803197E2F7F2F812F0130AA02F41F95
:101F0400842F852F632FA901AB1F892F8A2F982F28
:101F14002B087F3903198F2F902F932FA901A90A1A
:101F2400982F721C962F972F982F902F29080319FA
:101F34009C2F9D2FD12F0130F20700300318013060
:101F4400F307003003180130F407003003180130A0
:101F5400F507751CAE2FAF2FD12F7208A0007308A0
:101F6400A1007408A2007508A3000130A400230D89
:101F7400A30CA20CA10CA00CA40BB92F2308F500F0
:101F84002208F4002108F3002008F2002A0A0319A9
:101F9400CC2FCD2FD12F0130A0002008AA072A0A68
:101FA4000319D52FD62FDB2F2A08031DDA2FDB2F99
:101FB400E92F0030F5000030F4000030F300003069
:101FC400F2002A08031DE72FE82FE92FA8012A1C95
:101FD400EC2FED2FEF2FF417F32F7F30A000200804
:101FE400F4052A08A0000310200CA1002108F50024
:0C1FF400A81FFD2FFE2FFF2FF51708007F
:102EFA0001300A168A11A0270A168A1108006400EE
:102F0A008001840A0406031900340406852F8B13F2
:102F1A000B13831203139F18932F942F972FEF01EC
:102F2A00EF0A0C138B170B1771088A00700E8300B7
:102F3A00FE0E7E0E0900F4008312031306137408B2
:102F4A00880086170630F3003030F200F20BAB2F00
:102F5A00F30BAB2F00008312031386130800F4004F
:102F6A008312031306177408880086170630F300C5
:102F7A003030F200F20BBF2FF30BBF2F0000831289
:102F8A0003138613080083160313981CCD2FCE2F24
:102F9A00C82F831203132808F5002708F40026080F
:102FAA00F3002508F2000A128A15C5210A168A11A9
:102FBA007208831203139900080083120313BA00DC
:102FCA001B30B3003308A6003A08B400B501340830
:102FDA00A7003508A80036300A128A11E8260A1610
:102FEA008A113630F5000030F6000A128A153021AF
:062FFA000A168A1108000E
:04400E00D4E0FFFFFC
:00000001FF
