:020000040000FA
:060000000A128A11FC2F18
:100ED600F200831203130613720888008617063081
:100EE600F1003030F000F00B762FF10B762F00007A
:100EF6008312031386130800FF308316031385003D
:100F06008601870188018312031385018601870103
:100F160088010A128A11AD270A128A1180300A1234
:100F26008A116B270A128A1183120313061750308F
:100F3600880086170630F6003030F500F50BA12F35
:100F4600F60BA12F0000831203138613A92F0A1292
:100F56008A1100281430F4007930F300F30BB12F16
:100F6600F40BB12FB62F30300A128A116B270A12F2
:100F76008A110730F4007D30F300F30BC02FF40B19
:100F8600C02F30300A128A116B270A128A110F30CD
:100F9600F4004730F300F30BCE2FF40BCE2FD32FF4
:100FA60030300A128A116B270A128A113530F30083
:100FB600F30BDB2F38300A128A116B270A128A11BB
:100FC60010300A128A116B270A128A1101300A128E
:100FD6008A116B270A128A1106300A128A116B27A8
:100FE6000A128A110C300A128A116B270A128A1108
:0A0FF600080083010A128A117F2F00
:04400E00D4E0FFFFFC
:00000001FF
