:020000040000FA
:060000000A128A110C280F
:10000800FE00030EF1000A08F2000A168A11792F81
:100018000A128A110F28F801F901FA018312031351
:10002800EC01ED01EE018313A0308400B0300A1218
:100038008A11F7270A128A1183010A128A112428C1
:100048000330831603138500860187018801033076
:10005800831603178800831203138501860187011D
:1000680088010A128A1522210A128A118030F300A7
:100078002530F4000A128A1553200A128A110A162A
:100088008A1138270A128A11F601F60A01300A166F
:100098008A115E270A128A110B30F6008030F700A9
:1000A8000A128A1596200A128A11F601F60A0730F2
:1000B8000A168A115E270A128A111130F60080305A
:1000C800F7000A128A1596200A128A11F601F60A12
:1000D8000D300A168A115E270A128A111730F600A7
:1000E8008030F7000A128A1596200A128A11003009
:1000F8000A128A1159270A128A11831203136E08E9
:10010800031987288828AB281E0883160313B00014
:10011800B101B201B3013308F6003208F500310825
:10012800F4003008F30000300A128A15ED210A1293
:100138008A11760883160313AF007508AE00740899
:10014800AD007308AC0083120313EE019F14433013
:10015800D5007F30D4000030D3000030D2004030CA
:10016800BB00A030BA000030B9000030B8008316D8
:1001780003132F0883120313BF00831603132E08DB
:1001880083120313BE00831603132D08831203136F
:10019800BD00831603132C0883120313BC000A1234
:1001A8008A11F8230A128A11831203133B08D90013
:1001B8003A08D8003908D7003808D6000A128A1534
:1001C80093230A128A118312031355088316031303
:1001D800AF0083120313540883160313AE0083126F
:1001E8000313530883160313AD0083120313520835
:1001F80083160313AC002F08F6002E08F5002D080F
:10020800F4002C08F3000A128A1571210A128A11C7
:10021800730883160313B000300883120313ED002C
:100228004230BB00C830BA000030B9000030B80016
:100238006D0883160313B000B101B201B30133088E
:10024800F6003208F5003108F4003008F3000130F8
:100258000A128A15ED210A128A11760883120313ED
:10026800B3007508B2007408B1007308B0008316B3
:1002780003132F0883120313B700831603132E08E2
:1002880083120313B600831603132D088312031376
:10029800B500831603132C0883120313B4000A163F
:1002A8008A11B3270A128A11831203133308BF0075
:1002B8003208BE003108BD003008BC000A128A119D
:1002C800F8230A128A11831203133B0883160313B7
:1002D800A700831203133A0883160313A600831298
:1002E8000313390883160313A50083120313380870
:1002F80083160313A4002708F6002608F50025082E
:10030800F4002408F3000A128A1571210A128A11CE
:10031800730883160313B0003008FA000230B000E7
:100328003008F60001300A168A115E270A128A116F
:10033800831203136D080A168A1195270A128A1167
:100348002E300A128A1503200A128A110A307A02FC
:10035800031CAF29B029C0297A080A168A119527E3
:100368000A128A112030F6008030F7000A128A1526
:1003780096200A128A11E0291E30F6008030F70014
:100388000A128A1596200A128A110030F300F40026
:100398000A168A113F270A128A117A080A168A1140
:1003A80095270A128A112030F6008030F7000A12C9
:1003B8008A1596200A128A111A3083160313B1007F
:1003C800F730B000B00BE629B10BE629EB29013074
:1003D8000A128A1159270A128A11831203136E0806
:1003E8000319F729F8291B2A1E0883160313B000DE
:1003F800B101B201B3013308F6003208F500310843
:10040800F4003008F30000300A128A15ED210A12B0
:100418008A11760883160313AB007508AA007408BE
:10042800A9007308A80083120313EE019F14433038
:10043800D5007F30D4000030D3000030D2004030E7
:10044800BB00A030BA000030B9000030B8008316F5
:1004580003132B0883120313BF00831603132A0800
:1004680083120313BE008316031329088312031390
:10047800BD0083160313280883120313BC000A1255
:100488008A11F8230A128A11831203133B08D90030
:100498003A08D8003908D7003808D6000A128A1551
:1004A80093230A128A118312031355088316031320
:1004B800AB0083120313540883160313AA00831294
:1004C8000313530883160313A90083120313520856
:1004D80083160313A8002B08F6002A08F50029083C
:1004E800F4002808F3000A128A1571210A128A11E9
:1004F800730883160313B000300883120313EC004B
:100508004230BB00C830BA000030B9000030B80033
:100518006C0883160313B000B101B201B3013308AC
:10052800F6003208F5003108F4003008F300013015
:100538000A128A15ED210A128A117608831203130A
:10054800B3007508B2007408B1007308B0008316D0
:1005580003132B0883120313B700831603132A0807
:1005680083120313B6008316031329088312031397
:10057800B50083160313280883120313B4000A1660
:100588008A11B3270A128A11831203133308BF0092
:100598003208BE003108BD003008BC000A128A11BA
:1005A800F8230A128A11831203133B0883160313D4
:1005B800A300831203133A0883160313A2008312BD
:1005C8000313390883160313A10083120313380891
:1005D80083160313A0002308F6002208F50021085B
:1005E800F4002008F3000A128A1571210A128A11F0
:1005F800730883160313B0003008F9000230B00006
:100608003008F60007300A168A115E270A128A1186
:10061800831203136C080A168A1195270A128A1185
:100628002E300A128A1503200A128A110A3079021A
:10063800031C1F2B202B302B79080A168A119527AB
:100648000A128A112030F6008030F7000A128A1543
:1006580096200A128A11482B1E30F6008030F700C7
:100668000A128A1596200A128A1179080A168A111E
:1006780095270A128A112030F6008030F7000A12F6
:100688008A1596200A128A111A3083160313B100AC
:10069800F730B000B00B4E2BB10B4E2B532B643000
:1006A8007802031C582B592B6C2B0230831603132A
:1006B800B0003008F6000D300A168A115E270A12BB
:1006C8008A1178080A168A1195270A128A11AF2BFF
:1006D800643078020318712B722B912B0A30780240
:1006E800031C772B782B912B023083160313B00051
:1006F8003008F6000D300A168A115E270A128A1190
:1007080030300A128A1503200A128A1178080A164C
:100718008A1195270A128A11AF2B02308316031308
:10072800B0003008F6000D300A168A115E270A124A
:100738008A1130300A128A1503200A128A113030C1
:100748000A128A1503200A128A1178080A168A11D1
:1007580095270A128A11831203136D08831603134F
:10076800B000B1013008F3003108F4000A168A110C
:100778003F270A128A117A0883160313B000B101C1
:100788003008F3003108F4000A168A113F270A12CC
:100798008A11831203136C0883160313B000B10186
:1007A8003008F3003108F4000A168A113F270A12AC
:1007B8008A11790883160313B000B1013008F300D9
:1007C8003108F4000A168A113F270A128A11FF30ED
:1007D800F3000030F4000A168A113F270A128A1122
:1007E8007B280A128A110C28831203133B088039CC
:1007F800C0004008C5003B08C0004007C1004108D0
:10080800CB00BA1F082C092C0A2C4B144B080319CF
:100818000E2C0F2C1E2C4B0A031D132C142C1C2CD5
:100828000030BB000030BA000030B9000030B8001A
:10083800BA17262C0030BB000030BA000030B900CF
:100848000030B8003F088039C0004008C5063F089E
:10085800C0004007C1004108CA00BE1F342C352C17
:10086800362C4A144A0803193A2C3B2C4A2C4A0ABB
:10087800031D3F2C402C482C0030BF000030BE0028
:100888000030BD000030BC00BE17522C0030BF0045
:100898000030BE000030BD000030BC004A0803191B
:1008A800562C572C5C2C4B08031D5B2C5C2C652CA0
:1008B8000030BB000030BA000030B9000030B8008A
:1008C800582F3808C0004008F3003E080A168A115D
:1008D800D7270A128A11740883120313D1007308E8
:1008E800D0005008C000C101C201C3014308C900BB
:1008F8004208C8004108C7004008C6005108C000A7
:10090800C101C201C3014308CF004208CE0041081B
:10091800CD004008CC003908C0004008F3003D086D
:100928000A168A11D7270A128A1174088312031328
:10093800D1007308D0005008C000C101C201C30132
:100948004008C607410803110318013E0319AD2CDE
:10095800C707420803110318013E0319B42CC8073E
:10096800430803110318013E0319BB2CC90751089A
:10097800C000C101C201C3014008CC0741080311EE
:100988000318013E0319C92CCD07420803110318A7
:10099800013E0319D02CCE07430803110318013E6A
:1009A8000319D72CCF073A08C0004008F3003C08C9
:1009B8000A168A11D7270A128A1174088312031398
:1009C800D1007308D0005008C000C101C201C301A2
:1009D8004008C607410803110318013E0319F52C06
:1009E800C707420803110318013E0319FC2CC80766
:1009F800430803110318013E0319032DC9075108C1
:100A0800C000C101C201C3014008CC07410803115D
:100A18000318013E0319112DCD07420803110318CD
:100A2800013E0319182DCE07430803110318013E90
:100A380003191F2DCF070830C0000310C60DC70DBE
:100A4800C80DC90DC00B212D3908C0004008F3009E
:100A58003C080A168A11D7270A128A1174088312C9
:100A68000313D1007308D0005008C0005108C1001A
:100A7800C201C3014008C607410803110318013E1B
:100A88000319472DC707420803110318013E03192C
:100A98004E2DC807430803110318013E0319552DAD
:100AA800C9073808C0004008F3003D080A168A1133
:100AB800D7270A128A11740883120313D100730806
:100AC800D0005008C0005108C100C201C30140084D
:100AD800C607410803110318013E0319742DC707FF
:100AE800420803110318013E03197B2DC807430868
:100AF80003110318013E0319822DC9070830C000ED
:100B08000310C60DC70DC80DC90DC00B842D3808BC
:100B1800C0004008F3003C080A168A11D7270A12B9
:100B28008A11740883120313D1007308D000500887
:100B3800C0005108C100C201C3014008C6074108EE
:100B480003110318013E0319AA2DC7074208031110
:100B58000318013E0319B12DC807430803110318F0
:100B6800013E0319B82DC9073908C0004008F30031
:100B78003E080A168A11D7270A128A1174088312A6
:100B88000313D1007308D0005008C0005108C100F9
:100B9800C201C3014008CC07410803110318013EF4
:100BA8000319D72DCD07420803110318013E031975
:100BB800DE2DCE07430803110318013E0319E52D66
:100BC800CF073A08C0004008F3003D080A168A110A
:100BD800D7270A128A11740883120313D1007308E5
:100BE800D0005008C0005108C100C201C30140082C
:100BF800CC07410803110318013E0319042ECD0741
:100C0800420803110318013E03190B2ECE074308AF
:100C180003110318013E0319122ECF073A08C0002A
:100C28004008F3003E080A168A11D7270A128A11CB
:100C3800740883120313D1007308D0005008C00051
:100C48005108C100C201C30108300310C00DC10D15
:100C5800C20DC30DFF3E031D292E4008CC074108D5
:100C680003110318013E03193A2ECD074208031158
:100C78000318013E0319412ECE0743080311031838
:100C8800013E0319482ECF074608C0004708C10097
:100C98004808C2004908C30018300310C30CC20C2E
:100CA800C10CC00CFF3E031D512E4008CC07410863
:100CB80003110318013E0319622ECD0742080311E0
:100CC8000318013E0319692ECE07430803110318C0
:100CD800013E0319702ECF070830C0000310C60D5F
:100CE800C70DC80DC90DC00B722E4B084A07C000AE
:100CF800C101C10D4008823ED00041080318013EE1
:100D0800FF3ED100A42E0130C0000310CC0DCD0D44
:100D1800CE0DCF0DC00B892EC91F932E942E952E64
:100D28004C140130C0000310C60DC70DC80DC90D05
:100D3800C00B972EFF30D0070318D10AFF30D10718
:100D4800CE1FA72EA82E872ECA01C91FAC2EAD2EE6
:100D5800C92EFF304605C000FF304705C100FF30EF
:100D68004805C2007F304905C300430842044104D6
:100D780040040319C02EC12EC42ECA01CA0AC92EA6
:100D88004C1CC72EC82EC92EC12E4A080319CD2EB9
:100D9800CE2EFF2E0130CC07003003180130CD07CE
:100DA800003003180130CE07003003180130CF0798
:100DB8004F1CDF2EE02EFF2E4C08C0004D08C1004E
:100DC8004E08C2004F08C3000130C400430DC30CD5
:100DD800C20CC10CC00CC40BEA2E4308CF00420859
:100DE800CE004108CD004008CC000130D0070318E0
:100DF800D10A0030D1075108803AFF0080307F02C5
:100E0800031D082FFF305002031C0B2F0C2F172F28
:100E18007F3083120313CF008030CE000030CD0026
:100E28000030CC004C2F831203135108803AFF0086
:100E380080307F02031D222F013050020318252F16
:100E4800262F322F003083120313CF000030CE003C
:100E58000030CD000030CC00C5014C2F83120313A5
:100E68005008C0004008CB00FF30CC05FF30CD054E
:100E78007F30CE050030CF054B1C432F442F452F24
:100E8800CE174B08C0000310400CC1004108CF002A
:100E98004508C0004008CF044F08BB004E08BA0000
:100EA8004D08B9004C08B8000800F5008B170B175F
:100EB800831603130C17831203130C139F131F17A6
:100EC8001F14B62F9F121F129F111F11F02F9F1270
:100ED8001F129F111F15F02F9F121F129F151F1110
:100EE800F02F9F121F129F151F15F02F9F121F160C
:100EF8009F111F11F02F9F121F169F111F15F02F02
:100F08009F121F169F151F11F02F9F121F169F1556
:100F18001F15F02F9F161F129F111F11F02F9F16DC
:100F28001F129F111F15F02F9F161F129F151F11BB
:100F3800F02F9F161F129F151F15F02F9F161F16B3
:100F48009F111F11F02F9F161F169F111F15F02FAD
:100F58009F161F169F151F11F02F9F161F169F15FE
:100F68001F15F02F7508F300F4017408003A0319EF
:100F7800BE2FF02F7308003A0319662F013A0319A0
:100F88006B2F033A0319702F013A0319752F073A8B
:100F980003197A2F013A03197F2F033A0319842F73
:100FA800013A0319892F0F3A03198E2F013A0319B1
:100FB800932F033A0319982F013A03199D2F073AE3
:100FC8000319A22F013A0319A72F033A0319AC2FCB
:100FD800013A0319B12FF02F831603139F018312CF
:100FE80003139F14080064008001840A040603198F
:060FF80000340406F82F8E
:10100600F500831203130617750888008617063045
:10101600F4003030F300F30B0E28F40B0E2800001A
:101026008312031386130800831203132308240470
:1010360003191E281F284E28A801A80A2D280130AA
:101046000310A30DA40DFF3E031D23280130A700A6
:101056002708A807A41F302831282228240826029A
:10106600031D372823082502031C3A283B2841285C
:101076002308A5022408031CA603A60201300310B8
:10108600A40CA30CFF3E031D42280130A802031D39
:101096004D284E2831282608A4002508A30008005C
:1010A60080308316031387008C1226309800903008
:1010B600831203139800831603178715803073066F
:1010C600253003197406031D69286A286F286730BE
:1010D6008316031399009528B13073062830031937
:1010E6007406031D772878287D285F30831603133E
:1010F600990095284B3074067304031D83288428B1
:10110600892833308316031399009528E130740635
:101116007304031D8F289028952810308316031317
:1011260099009528080083120313A301A401BF2880
:1011360023087607A1007708A0000318A00AA31FBA
:10114600A528A003831203132008A2002208FF008B
:10115600210884000A168A1100200A128A150A122A
:101166008A1503200A128A15013083120313A30776
:101176000318A40A0030A40723087607A1007708FD
:10118600A0000318A00AA31FC928A00383120313F3
:101196002008A2002208FF00210884000A168A11EE
:1011A60000200A128A15003A031DDA28DB289B283C
:1011B600080083120313A101A20173087404031922
:1011C600E528E6281D29A001A00AF428013003100D
:1011D600F30DF40DFF3E031DEA280130F7007708F2
:1011E600A007F41FF728F828E92801300310A10DFD
:1011F600A20DFF3E031DF92874087602031D05297A
:1012060073087502031C0829092910297308F502B9
:101216007408031CF603F602211401300310F40CC3
:10122600F30CFF3E031D11290130A002031D1C29EA
:101236001D29F8282208F4002108F30008001430BC
:10124600F7007930F600F60B2629F70B26292B290D
:1012560030300A168A114A270A128A150730F70013
:101266007D30F600F60B3529F70B352930300A1696
:101276008A114A270A128A150F30F7004730F600FE
:10128600F60B4329F70B4329482930300A168A11F1
:101296004A270A128A153530F600F60B50293830DF
:1012A6000A168A114A270A128A1510300A168A1156
:1012B6004A270A128A1501300A168A114A270A1283
:1012C6008A1506300A168A114A270A128A150C3020
:1012D6000A168A114A270A128A1508000310750D84
:1012E600760D83120313A0002008A6002608031D0E
:1012F6007D297E2987290030F6000030F500003070
:10130600F4000030F300EC297308A0007408A10073
:101316007508A2007608A3001F300310A30CA20CC8
:10132600A10CA00CFF3E031D90292008A400240850
:10133600A500F517FF30F305FF30F405FF30F5057E
:101346000030F6059630A602A61FAA29AB29C529A4
:101356002608803A973E0318B129B229B3297E2977
:1013660001300310F60CF50CF40CF30CFF3E031DD4
:10137600B4290130A0002008A607031DC329C429EB
:10138600B329DC2920302602031CCA29CB29D729F8
:101396007E290130A0000310F30DF40DF50DF60DB6
:1013A600A00BCE290130A6022608031DDB29DC2965
:1013B600CC2925080319E029E129EC29F309F409C8
:1013C600F509F609F30A0319F40A0319F50A0319CC
:1013D600F60A080083120313A40024080319F4294B
:1013E600F529092AF61FF829F929092A7309A600F9
:1013F6007409A7007509A8007609A900A60A0319A9
:10140600A70A0319A80A0319A90A112A7608A90026
:101416007508A8007408A7007308A6007608750466
:1014260074047304031D182A192A222A0030F600B0
:101436000030F5000030F4000030F300A82A9630A2
:10144600A0002008A500342A0130A0002008A50726
:1014560001300310A90CA80CA70CA60CFF3E031D17
:101466002C2AFE302905031D392A3A2A272A562A0C
:101476000130A0002008A5070130A6070030031898
:101486000130A707003003180130A8070030031801
:101496000130A90701300310A90CA80CA70CA60C53
:1014A600FF3E031D4E2AFF302905031D5B2A5C2AD9
:1014B6003B2A682A0130A5020130A0000310A60DC0
:1014C600A70DA80DA90DA00B612AA81B6B2A6C2AD3
:1014D600722A023025020318712A722A5D2A2518FB
:1014E600752A762A7E2AFF30A605FF30A7057F30AB
:1014F600A805FF30A9050310A50C2508A000A10129
:10150600A201A30118300310A00DA10DA20DA30D79
:10151600FF3E031D862A2008A6042108A7042208E8
:10152600A8042308A904240803199A2A9B2AA02A96
:10153600F61F9E2A9F2AA02AA9172908F60028081E
:10154600F5002708F4002608F300080083120313A9
:10155600B4002A30AC002C08AF007C2B25303506B1
:101566000319B62AB72AC32A3508AC003408840002
:101576002C08831380000130AC002C08B4077C2BA8
:10158600B0010130A907FF30290784000A168A1125
:101596000A200A128A15B500AC00AD012D08003AE2
:1015A6000319D62A7C2B2C08003A03198E2B643A91
:1015B6000319E12A0D3A0319E12A7C2B2F0884002E
:1015C60083130008B200840A0008B3000230AC009E
:1015D6002C08AF07B31FF02AF12AFA2A0330AC0011
:1015E6002C08B004B209B309B20A0319B30AB5014B
:1015F600B50A3508AC002C07013E84000A168A118C
:101606000A200A128A15AD000A168A110A200A1241
:101616008A15AE002E083302031D132B2D08320245
:101626000318162B172B182B222B0130AC002C0875
:10163600B50705303506031D212B222BFC2A300861
:1016460003390319272B282B332B2D30AC003408F4
:1016560084002C08831380000130AC002C08B407EA
:101666003508AC002C08B100732B0A30A3000030FB
:10167600A4003108AC002C07013E84000A168A112A
:101686000A200A128A15F3000A168A110A200A127B
:101696008A15F4003308F6003208F5000A128A1596
:1016A600DC200A128A15740883120313A600730835
:1016B600A5000A128A1517200A128A158312031327
:1016C6002308303EAD002D08B5003508AC003408BF
:1016D60084002C08831380000130AC002C08B4076A
:1016E600FF30AC002C08B107310A031D7B2B7C2B85
:1016F600382B0130A907FF30290784000A168A1102
:101706000A200A128A15AC002C08B5003508031DFC
:101716008D2B8E2BB12A3408840083138001080098
:101726008312031359088039DA005A08E30059086E
:10173600DA005A07DB005B08EA00D81FA32BA42BAC
:10174600A52B6A146A080319A92BAA2BBA2B6A0AB5
:10175600031DAE2BAF2BB72B0030D9000030D800BD
:101766000030D7000030D600D817D901C22B003080
:10177600D9000030D8000030D7000030D600550818
:101786008039DA005A08E3065508DA005A07DB0002
:101796005B08EB00D41FD02BD12BD22B6B146B081C
:1017A6000319D62BD72BE72B6B0A031DDB2BDC2B60
:1017B600E42B0030D5000030D4000030D3000030D8
:1017C600D200D417D501EF2B0030D5000030D4005D
:1017D6000030D3000030D20055085404530452049C
:1017E600031DF62BF72B102C0030D9000030D80043
:1017F6000030D7000030D6008030D8047F30D904BE
:101806006308DA005A08D9045908D5005808D400E4
:101816005708D3005608D2006F2D6A08031D142CF2
:10182600152C1E2C0030D5000030D4000030D3001B
:101836000030D2006F2D6A08DA00DB015B08DD009C
:101846006B085A02DC00031CDD035C087F3EE400E3
:101856005D080318013E003EE5005908E2005808FD
:10186600E1005708E0005608DF000030D9000030DC
:10187600D8000030D7000030D6000030E900003034
:10188600E8000030E7000030E600EB01942C6B081E
:1018960003194E2C4F2C6F2C0130DA000310DF0D8C
:1018A600E00DE10DE20DDA0B512C0130DA000310E8
:1018B600D60DD70DD80DD90DDA0B5A2CE91F642C8D
:1018C600652C662C56140130DA000310E60DE70D80
:1018D600E80DE90DDA0B682C55086202031D7D2C14
:1018E60054086102031D7D2C53086002031D7D2CE4
:1018F60052085F02031C802C812C902C6917520819
:10190600DF025308031C530FE0025408031C540F54
:10191600E1025508031C550FE2020130DA005A08AD
:10192600EB071A306B02031C992C9A2C4A2C62087E
:10193600610460045F040319A12CA22CC12C661457
:10194600C12C0130DA000310D60DD70DD80DD90DF4
:10195600DA0BA62CE91FB02CB12CB22C5614013090
:10196600DA000310E60DE70DE80DE90DDA0BB42CED
:10197600FF30E4070318E50AFF30E507D81FC42C3B
:10198600C52CA42CEB01E91FC92CCA2CE62CFF3070
:101996006605DA00FF306705DB00FF306805DC000E
:1019A6007F306905DD005D085C045B045A04031999
:1019B600DD2CDE2CE12CEB01EB0AE62C561CE42C8C
:1019C600E52CE62CDE2C6B080319EA2CEB2C1C2DDF
:1019D6000130D607003003180130D707003003184E
:1019E6000130D807003003180130D907591CFC2CE8
:1019F600FD2C1C2D5608DA005708DB005808DC00C1
:101A06005908DD000130DE005D0DDD0CDC0CDB0C61
:101A1600DA0CDE0B072D5D08D9005C08D8005B08E0
:101A2600D7005A08D6000130E4070318E50A00304B
:101A3600E5076508803AFF0080307F02031D252DEB
:101A4600FF306402031C282D292D372DFF30831209
:101A56000313E4000030E5000030D9000030D80060
:101A66000030D7000030D600831203136508803A91
:101A7600FF0080307F02031D422D013064020318EF
:101A8600452D462D532D83120313E401E501003045
:101A9600D9000030D8000030D7000030D600E3016E
:101AA600831203136408DA005A08EA006A1C5C2DE4
:101AB6005D2D5F2DD817632D7F30DA005A08D805C3
:101AC6006A08DA0003105A0CDB005B08D9006308C9
:101AD600DA005A08D904072C0800831203132308D6
:101AE6008039A8002808F3002308A8002807A900C1
:101AF6002908F500A21F802D812D822D75147508E9
:101B06000319862D872D972D750A031D8B2D8C2D78
:101B1600942D0030A3000030A2000030A100003058
:101B2600A000A217A3019F2D0030A3000030A20041
:101B36000030A1000030A00027088039A80028083E
:101B4600F400740873060319A92DAA2DAB2D73177B
:101B56002708A8002807A9002908F400A61FB42D05
:101B6600B52DB62D741474080319BA2DBB2DCB2DC3
:101B7600740A031DBF2DC02DC82D0030A7000030EC
:101B8600A6000030A5000030A400A617A701D32D9B
:101B96000030A7000030A6000030A5000030A400E9
:101BA600750874020318D82DD92D1D2E731FDC2D30
:101BB600DD2DE12D8030A8002808F3067508A80061
:101BC6002808F6007408A8002808F5007608A8007A
:101BD6002808F4002008A8002808F6002408A80011
:101BE6002808A0007608A8002808A4002108A80054
:101BF6002808F6002508A8002808A1007608A800ED
:101C06002808A5002208A8002808F6002608A8002B
:101C16002808A2007608A8002808A6002308A8001D
:101C26002808F6002708A8002808A3007608A800B8
:101C36002808A700F6017408A800A9012908AB0026
:101C460075082802AA00031CAB032B08803AFF0084
:101C560080307F02031D312E1A302A02031C342ED7
:101C6600352E762E83120313230822042104200422
:101C7600031D3E2E402E0130412E0030A8002808BC
:101C8600F6000030A3000030A2000030A1000030B2
:101C9600A0007408A8002808F5007C2E761C542E97
:101CA600552E602E760883120313A8000310280C05
:101CB6000138A9002908F600622E0310F60C8312DB
:101CC6000313201C672E682E692EF6170130A80014
:101CD600230DA30CA20CA10CA00CA80B6B2E01309B
:101CE600A8002808F50774087502031C7B2E7C2EB5
:101CF600512E731B7F2E802ECF2E7508031D842E2A
:101D0600852E902E003083120313A3000030A2000C
:101D16000030A1000030A000FF2F83120313240817
:101D2600A007250803110318013E03199B2EA107DE
:101D3600260803110318013E0319A22EA20727083D
:101D460003110318013E0319A92EA307231CAC2E69
:101D5600AD2E852F761CB02EB12EBA2E7608A80091
:101D66000310280C0138A9002908F600BC2E031020
:101D7600F60C201CBF2EC02EC12EF6170130A8006F
:101D8600230DA30CA20CA10CA00CA80BC32E013092
:101D9600A8002808F507852F831203132308803A25
:101DA600FF002708803A7F02031DE32E2608220241
:101DB600031DE32E25082102031DE32E240820021D
:101DC6000318E62EE72E3F2FFF30A800FF30A900AC
:101DD600FF30AA00FF30AB002408AC002508AD0098
:101DE6002608AE002708AF002008AC022108031C15
:101DF600210FFE2EFF2EAD022208031C220F042FF8
:101E0600052FAE022308031C230F0A2F0B2FAF0248
:101E16002C08A8072D0803182D0F122F132FA9071A
:101E26002E0803182E0F182F192FAA072F0803188C
:101E36002F0AAB072B08A3002A08A2002908A10035
:101E46002808A0008030A8002808F306F609F60A3C
:101E56007608031D2F2F302F4D2F0130A00700309D
:101E660003180130A107003003180130A207003023
:101E760003180130A3074D2F2408A0022508031CD0
:101E8600250FA1022608031C260FA2022708031C01
:101E9600270FA3022308220421042004031D542F24
:101EA600552F812F7608031D592F5A2F812F003069
:101EB600A3000030A2000030A1000030A000FF2FD8
:101EC6000130A8000310A00DA10DA20DA30DA80BB3
:101ED600652FF61F6F2F702F712F2014761C742F0D
:101EE600752F782F0314F60D7A2F0310F60D75084B
:101EF60003197E2F7F2F812F0130F502A21F842F19
:101F0600852F632FF401F61F892F8A2F982F7608C5
:101F16007F3903198F2F902F932FF401F40A982FEE
:101F2600201C962F972F982F902F740803199C2FFB
:101F36009D2FD12F0130A007003003180130A107D3
:101F4600003003180130A207003003180130A30740
:101F5600231CAE2FAF2FD12F2008A8002108A900DF
:101F66002208AA002308AB000130AC002B0DAB0CF5
:101F7600AA0CA90CA80CAC0BB92F2B08A3002A0895
:101F8600A2002908A1002808A000750A0319CC2F71
:101F9600CD2FD12F0130A8002808F507750A03199F
:101FA600D52FD62FDB2F7508031DDA2FDB2FE92F50
:101FB6000030A3000030A2000030A1000030A000D5
:101FC6007508031DE72FE82FE92FF301751CEC2F89
:101FD600ED2FEF2FA217F32F7F30A8002808A205B8
:101FE6007508A8000310280CA9002908A300F31FF0
:101FF600FD2FFE2FFF2FA3170800FF1B0A288313B0
:102006007F1883170008840A0319FF0A0800103096
:102016008A000408840A82070034013400340A3432
:10202600003464340034E834033410342734503434
:102036004F34543430343134003450344F34543403
:10204600303432340034543454344C34003425346F
:0C2056006434003430340034563400345C
:102E700001300A168A114A270A168A110800831699
:102E80000313981C442F452F3F2F730883120313FD
:102E900099000800F50083120313061375088800D3
:102EA00086170630F4003030F300F30B552FF40B87
:102EB000552F00008312031386130800F7007603D2
:102EC000031D632F642F6B2F77087F3E0A168A112C
:102ED0004A270A168A1102307606031D702F712FB9
:102EE000782F7708BF3E0A168A114A270A168A11D8
:102EF00008008B130B13831203139F18802F812F4D
:102F0000842FEE01EE0A0C138C1E872F882F8C2F36
:102F10001A08F0007008F8008B170B1772088A0067
:102F2000710E8300FE0E7E0E090083120313BD0096
:102F30001B30B6003608A9003D08B700B8013708B5
:102F4000AA003808AB0039300A128A15A9220A16DD
:102F50008A113930F6000030F7000A128A159620DF
:102F60000A168A110800803083120313B30637084B
:102F7000A3003608A2003508A1003408A0003308D9
:102F8000A7003208A6003108A5003008A4000A12E4
:102F90008A1570250A168A11831203132308B300B9
:102FA0002208B2002108B1002008B00008008312F6
:102FB0000313A400A001A1017308F500F601750830
:102FC000A2007608A300241CE62FE72FED2F22088D
:102FD000A0070318A10A2308A10701300310A20DBE
:102FE000A30DFF3E031DEE2F0310A40C2408031DA8
:102FF000FA2FFB2FE32F2108F4002008F30008002C
:04400E00D4E0FFFFFC
:00000001FF
