:020000040000FA
:060000000A128A11FC2F18
:100DF60001308312031388000A128A110F270A1280
:100E06008A11080002308312031388000A128A111D
:100E16000F270A128A110800831203130613861776
:100E26000630F1003030F000F00B172FF10B172FC2
:100E360000008312031386130800F20083120313C3
:100E460006177208880086170630F1003030F00069
:100E5600F00B2B2FF10B2B2F00008312031386139D
:100E660008001430F3007930F200F20B382FF30B40
:100E7600382F3D2F30308312031388000730F300DC
:100E86007D30F200F20B452FF30B452F30308312E5
:100E9600031388003530F200F20B4F2F30308312E7
:100EA600031388003530F200F20B572F8312031319
:100EB600061386133530F200F20B5F2F3C30831297
:100EC600031388000A128A110F270A128A1110309A
:100ED6008312031388000A128A110F270A128A1135
:100EE60001308312031388000A128A110F270A128F
:100EF6008A1107308312031388000A128A110F27FA
:100F06000A128A110F308312031388000A128A11FB
:100F16000F270A128A110800FF3083160313850073
:100F260086018701880183120313850186018701E3
:100F360088010A128A1134270A128A110A128A11A2
:100F4600FB260A128A110A128A1105270A128A1129
:100F560001300A128A1120270A128A110630F60079
:100F66001330F500AD30F400F40BB72FF50BB72FA7
:100F7600F60BB72FBE2F0A128A11FB260A128A1108
:100F86000A128A1105270A128A1102300A128A11D8
:100F960020270A128A110630F6001330F500AD300C
:100FA600F400F40BD42FF50BD42FF60BD42FDB2F34
:100FB6000A128A11FB260A128A110A128A110527B9
:100FC6000A128A1103300A128A1120270A128A117C
:100FD6000630F6001330F500AD30F400F40BF12FB7
:100FE600F50BF12FF60BF12FF82FA12F0A128A110C
:0A0FF600002883010A128A118F2FD0
:04400E00D4E0FFFFFC
:00000001FF
