:020000040000FA
:060000000A128A110C280F
:10000800FE00030EF0000A08F1000A128A1566289D
:100018000A128A110F28FB0183120313EC01ED0168
:10002800EE01EF018313A0308400B0300A128A1564
:100038005E200A128A1183010A128A11842B831204
:10004800031337088039BC003C08C1003708BC00DE
:100058003C07BD003D08C700B61F332834283528A3
:1000680047144708031939283A284928470A031D1D
:100078003E283F2847280030B7000030B60000303F
:10008800B5000030B400B61751280030B700003072
:10009800B6000030B5000030B4003B088039BC0021
:1000A8003C08C1063B08BC003C07BD003D08C60033
:1000B800BA1F5F2860286128461446080319652876
:1000C80066287528460A031D6A286B28732800309D
:1000D800BB000030BA000030B9000030B800BA17D1
:1000E8007D280030BB000030BA000030B900003075
:1000F800B800460803198128822887284708031D65
:100108008628872890280030B7000030B6000030D5
:10011800B5000030B400832B3408BC003C08F20062
:100128003A080A128A11D9270A128A117308831207
:100138000313CD007208CC004C08BC00BD01BE0101
:10014800BF013F08C5003E08C4003D08C3003C0885
:10015800C2004D08BC00BD01BE01BF013F08CB0075
:100168003E08CA003D08C9003C08C8003508BC0064
:100178003C08F20039080A128A11D9270A128A1192
:10018800730883120313CD007208CC004C08BC001E
:10019800BD01BE01BF013C08C2073D080311031899
:1001A800013E0319D828C3073E0803110318013E6E
:1001B8000319DF28C4073F0803110318013E031978
:1001C800E628C5074D08BC00BD01BE01BF013C08BB
:1001D800C8073D0803110318013E0319F428C9078D
:1001E8003E0803110318013E0319FB28CA073F08FC
:1001F80003110318013E03190229CB073608BC0076
:100208003C08F20038080A128A11D9270A128A1102
:10021800730883120313CD007208CC004C08BC008D
:10022800BD01BE01BF013C08C2073D080311031808
:10023800013E03192029C3073E0803110318013E94
:1002480003192729C4073F0803110318013E03199E
:100258002E29C5074D08BC00BD01BE01BF013C08E1
:10026800C8073D0803110318013E03193C29C907B3
:100278003E0803110318013E03194329CA073F0822
:1002880003110318013E03194A29CB070830BC00A3
:100298000310C20DC30DC40DC50DBC0B4C29350888
:1002A800BC003C08F20038080A128A11D9270A1241
:1002B8008A11730883120313CD007208CC004C080E
:1002C800BC004D08BD00BE01BF013C08C2073D0887
:1002D80003110318013E03197229C3073E080311CD
:1002E8000318013E03197929C4073F0803110318AD
:1002F800013E03198029C5073408BC003C08F200F8
:1003080039080A128A11D9270A128A117308831226
:100318000313CD007208CC004C08BC004D08BD008A
:10032800BE01BF013C08C2073D0803110318013E86
:1003380003199F29C3073E0803110318013E031937
:10034800A629C4073F0803110318013E0319AD2964
:10035800C5070830BC000310C20DC30DC40DC50D80
:10036800BC0BAF293408BC003C08F20038080A125C
:100378008A11D9270A128A11730883120313CD0030
:100388007208CC004C08BC004D08BD00BE01BF017E
:100398003C08C2073D0803110318013E0319D5297B
:1003A800C3073E0803110318013E0319DC29C407DB
:1003B8003F0803110318013E0319E329C50735084F
:1003C800BC003C08F2003A080A128A11D9270A121E
:1003D8008A11730883120313CD007208CC004C08ED
:1003E800BC004D08BD00BE01BF013C08C8073D0860
:1003F80003110318013E0319022AC9073E08031115
:100408000318013E0319092ACA073F0803110318F4
:10041800013E0319102ACB073608BC003C08F2003D
:1004280039080A128A11D9270A128A117308831205
:100438000313CD007208CC004C08BC004D08BD0069
:10044800BE01BF013C08C8073D0803110318013E5F
:1004580003192F2AC9073E0803110318013E03197F
:10046800362ACA073F0803110318013E03193D2A1B
:10047800CB073608BC003C08F2003A080A128A1179
:10048800D9270A128A11730883120313CD00720840
:10049800CC004C08BC004D08BD00BE01BF010830AF
:1004A8000310BC0DBD0DBE0DBF0DFF3E031D542A2C
:1004B8003C08C8073D0803110318013E0319652AC3
:1004C800C9073E0803110318013E03196C2ACA071D
:1004D8003F0803110318013E0319732ACB0742088A
:1004E800BC004308BD004408BE004508BF001830E2
:1004F8000310BF0CBE0CBD0CBC0CFF3E031D7C2AB8
:100508003C08C8073D0803110318013E03198D2A4A
:10051800C9073E0803110318013E0319942ACA07A4
:100528003F0803110318013E03199B2ACB07083023
:10053800BC000310C20DC30DC40DC50DBC0B9D2A14
:1005480047084607BC00BD01BD0D3C08823ECC00F3
:100558003D080318013EFF3ECD00CF2A0130BC0004
:100568000310C80DC90DCA0DCB0DBC0BB42AC51F8D
:10057800BE2ABF2AC02A48140130BC000310C20D8D
:10058800C30DC40DC50DBC0BC22AFF30CC07031820
:10059800CD0AFF30CD07CA1FD22AD32AB22AC601F4
:1005A800C51FD72AD82AF42AFF304205BC00FF30DD
:1005B8004305BD00FF304405BE007F304505BF0040
:1005C8003F083E043D043C040319EB2AEC2AEF2AB9
:1005D800C601C60AF42A481CF22AF32AF42AEC2A8D
:1005E80046080319F82AF92A2A2B0130C8070030CF
:1005F80003180130C907003003180130CA0700305A
:1006080003180130CB074B1C0A2B0B2B2A2B48084D
:10061800BC004908BD004A08BE004B08BF000130B5
:10062800C0003F0DBF0CBE0CBD0CBC0CC00B152B85
:100638003F08CB003E08CA003D08C9003C08C80076
:100648000130CC070318CD0A0030CD074D08803A99
:10065800FF0080307F02031D332BFF304C02031C48
:10066800362B372B422B7F3083120313CB0080307D
:10067800CA000030C9000030C800772B831203136A
:100688004D08803AFF0080307F02031D4D2B01305A
:100698004C020318502B512B5D2B0030831203138F
:1006A800CB000030CA000030C9000030C800C101CA
:1006B800772B831203134C08BC003C08C700FF309B
:1006C800C805FF30C9057F30CA050030CB05471C77
:1006D8006E2B6F2B702BCA174708BC0003103C0CFD
:1006E800BD003D08CB004108BC003C08CB044B08CA
:1006F800B7004A08B6004908B5004808B400080021
:1007080003308316031385008601870188010330AF
:100718008316031788008312031385018601870156
:1007280088010A128A118A270A128A110A128A155E
:1007380057200A128A11F501F50A01300A128A15A2
:10074800A2200A128A110B30F5008030F6000A1236
:100758008A157F210A128A11F501F50A07300A1253
:100768008A15A2200A128A111130F5008030F6008D
:100778000A128A157F210A128A11F501F50A0E302C
:100788000A128A15A2200A128A111730F500803041
:10079800F6000A128A157F210A128A1100300A12FD
:1007A8008A1541220A128A11831203136F0803194A
:1007B800DE2BDF2B002C1E08E800E901EA01EB0123
:1007C8006B08F5006A08F4006908F3006808F2008D
:1007D80000300A128A15DF220A128A117508831658
:1007E8000313AF007408AE007308AD007208AC00C4
:1007F80083120313EF019F144330D1007F30D000E0
:100808000030CF000030CE004030B700A030B60036
:100818000030B5000030B400831603132F0883128C
:100828000313BB00831603132E0883120313BA00A5
:10083800831603132D0883120313B90083160313B9
:100848002C0883120313B8000A128A1123200A12F3
:100858008A11831203133708D5003608D4003508E7
:10086800D3003408D2000A128A159B230A128A116F
:1008780083120313510883160313AF008312031363
:10088800500883160313AE00831203134F08831610
:100898000313AD00831203134E0883160313AC0031
:1008A8002F08F5002E08F4002D08F3002C08F2009C
:1008B8000A128A15C5210A128A11720883120313B3
:1008C800E8006808EE004230B700C830B6000030D3
:1008D800B5000030B4006E08E800E901EA01EB0158
:1008E8006B08F5006A08F4006908F3006808F2006C
:1008F80001300A128A15DF220A128A11750883123A
:100908000313AF007408AE007308AD007208AC00A2
:10091800831603132F0883120313B30083160313DC
:100928002E0883120313B200831603132D088312B3
:100938000313B100831603132C0883120313B000AA
:100948000A128A15DB200A128A11831203132F0850
:10095800BB002E08BA002D08B9002C08B8000A12EE
:100968008A1123200A128A11831203133708831667
:100978000313A70083120313360883160313A60074
:1009880083120313350883160313A5008312031378
:10099800340883160313A4002708F5002608F4007A
:1009A8002508F3002408F2000A128A15C5210A1244
:1009B8008A11720883120313E8006808ED000230F8
:1009C800E8006808F50001300A128A15A2200A1208
:1009D8008A11831203136E080A128A15BD200A129F
:1009E8008A112E300A128A158E200A128A110A30AC
:1009F800831203136D02031C022D032D132D6D08A2
:100A08000A128A15BD200A128A112030F50080309A
:100A1800F6000A128A157F210A128A112D2D1E301E
:100A2800F5008030F6000A128A157F210A128A1111
:100A3800831203136D080A128A15BD200A128A113F
:100A48002030F5008030F6000A128A157F210A123C
:100A58008A111A3083120313E900F730E800E80B13
:100A6800332DE90B332D382D01300A128A15412216
:100A78000A128A11831203136F080319442D452D96
:100A8800662D1E08E800E901EA01EB016B08F50094
:100A98006A08F4006908F3006808F20000300A12D6
:100AA8008A15DF220A128A11750883160313AB0010
:100AB8007408AA007308A9007208A8008312031317
:100AC800EF019F144330D1007F30D0000030CF00B9
:100AD8000030CE004030B700A030B6000030B5007E
:100AE8000030B400831603132B0883120313BB00D2
:100AF800831603132A0883120313BA0083160313F9
:100B0800290883120313B9008316031328088312D4
:100B18000313B8000A128A1123200A128A118312B9
:100B280003133708D5003608D4003508D300340835
:100B3800D2000A128A159B230A128A118312031300
:100B4800510883160313AB0083120313500883164E
:100B58000313AA00831203134F0883160313A90073
:100B6800831203134E0883160313A8002B08F500FD
:100B78002A08F4002908F3002808F2000A128A1546
:100B8800C5210A128A11720883120313E800680843
:100B9800FB004230B700C830B6000030B500003066
:100BA800B4007B08E800E901EA01EB016B08F500F5
:100BB8006A08F4006908F3006808F20001300A12B4
:100BC8008A15DF220A128A11750883120313AF00EF
:100BD8007408AE007308AD007208AC0083160313E6
:100BE8002B0883120313B300831603132A088312F6
:100BF8000313B20083160313290883120313B100E9
:100C080083160313280883120313B0000A128A15E7
:100C1800DB200A128A11831203132F08BB002E0847
:100C2800BA002D08B9002C08B8000A128A1123202E
:100C38000A128A1183120313370883160313A300B9
:100C480083120313360883160313A20083120313B7
:100C5800350883160313A10083120313340883167F
:100C68000313A0002308F5002208F4002108F3006C
:100C78002008F2000A128A15C5210A128A11720880
:100C880083120313E8006808EC000230E8006808E3
:100C9800F50007300A128A15A2200A128A117B0869
:100CA8000A128A15BD200A128A112E300A128A15D4
:100CB8008E200A128A110A30831203136C02031C55
:100CC800662E672E772E6C080A128A15BD200A1226
:100CD8008A112030F5008030F6000A128A157F212B
:100CE8000A128A11912E1E30F5008030F6000A1281
:100CF8008A157F210A128A11831203136C080A12BB
:100D08008A15BD200A128A112030F5008030F600BD
:100D18000A128A157F210A128A111A3083120313C4
:100D2800E900F730E800E80B972EE90B972E9C2E88
:100D3800D22B0A128A110C2883120313B000263012
:100D4800A8002808AB00732F253031060319AD2EF3
:100D5800AE2EBA2E3108A800300884002808831364
:100D680080000130A8002808B007732FAC010130BB
:100D7800A507FF30250784000A128A150A200A12DF
:100D88008A11B100A800A9012908003A0319CD2E3B
:100D9800732F2808003A0319852F643A0319D82EAF
:100DA8000D3A0319D82E732F2B08840083130008DB
:100DB800AE00840A0008AF000230A8002808AB077C
:100DC800AF1FE72EE82EF12E0330A8002808AC0448
:100DD800AE09AF09AE0A0319AF0AB101B10A310869
:100DE800A8002807013E84000A128A150A200A1260
:100DF8008A11A9000A128A150A200A128A11AA0061
:100E08002A082F02031D0A2F29082E0203180D2F66
:100E18000E2F0F2F192F0130A8002808B107053011
:100E28003106031D182F192FF32E2C080339031927
:100E38001E2F1F2F2A2F2D30A800300884002808C5
:100E4800831380000130A8002808B0073108A800E3
:100E58002808AD006A2F0A30A0000030A1002D0834
:100E6800A8002807013E84000A128A150A200A12DF
:100E78008A11F2000A128A150A200A128A11F3004E
:100E88002F08F5002E08F4000A128A153B210A12D1
:100E98008A11730883120313A3007208A2000A12AE
:100EA8008A15FF200A128A11831203132008303E84
:100EB800A9002908B1003108A800300884002808D2
:100EC800831380000130A8002808B007FF30A8006D
:100ED8002808AD072D0A031D722F732F2F2F0130FD
:100EE800A507FF30250784000A128A150A200A126E
:100EF8008A11A8002808B1003108031D842F852F06
:100F0800A82E300884008313800108001430F600EE
:100F18007930F500F50B8E2FF60B8E2F932F30308E
:100F28000A128A157A200A128A110730F6007D30D3
:100F3800F500F50B9D2FF60B9D2F30300A128A1500
:100F48007A200A128A110F30F6004730F500F50BA7
:100F5800AB2FF60BAB2FB02F30300A128A157A2040
:100F68000A128A113530F500F50BB82F38300A12FD
:100F78008A157A200A128A1110300A128A157A20E4
:100F88000A128A1101300A128A157A200A128A1165
:100F980006300A128A157A200A128A110C300A12AF
:100FA8008A157A200A128A110800FA00F601F70158
:100FB8007208F400F5017408F8007508F9007A1C45
:100FC800E62FE72FED2F7808F6070318F70A7908B8
:100FD800F70701300310F80DF90DFF3E031DEE2F42
:100FE8000310FA0C7A08031DFA2FFB2FE32F77085A
:100FF800F3007608F2000800FF1B0A2883137F1805
:1010080083170008840A0319FF0A080008308A00B9
:101018000408840A82070034013400340A34003496
:1010280064340034E83403341034273450344F34F3
:10103800543430343134003450344F345434303430
:1010480032340034543454344C3400342534643449
:0A1058000034303400345634003404
:1010AE0001300A128A157A200A128A150800640085
:1010BE008001840A04060319003404065F288B138A
:1010CE000B13831203139F186D286E287128EF01DE
:1010DE00EF0A0C138B170B1771088A00700E830022
:1010EE00FE0E7E0E0900F40083120313061374081D
:1010FE00880086170630F3003030F200F20B852898
:10110E00F30B852800008312031386130800F400E6
:10111E008312031306177408880086170630F3002F
:10112E003030F200F20B9928F30B9928000083124D
:10113E00031386130800F6007503031DA728A828BD
:10114E00AF2876087F3E0A128A157A200A128A156F
:10115E0002307506031DB428B528BC287608BF3E9C
:10116E000A128A157A200A128A15080083120313AE
:10117E00B9001B30B2003208A5003908B300B40123
:10118E003308A6003408A70035300A128A11A026AB
:10119E000A128A153530F5000030F6000A128A154B
:1011AE007F210A128A150800803083120313AF06BE
:1011BE003308F5003208F4003108F3003008F2006D
:1011CE002F08F9002E08F8002D08F7002C08F6005D
:1011DE000A128A1578250A128A15750883120313C6
:1011EE00AF007408AE007308AD007208AC000800C2
:1011FE00831203132008210403190629072936290F
:10120E00A401A40A152901300310A00DA10DFF3E63
:10121E00031D0B290130FA007A08A407A11F182913
:10122E0019290A2921082302031D1F292008220239
:10123E00031C2229232929292008A2022108031C84
:10124E00A303A30201300310A10CA00CFF3E031D4B
:10125E002A290130A402031D35293629192923080C
:10126E00A1002208A0000800F701F801720873041B
:10127E000319422943297A29F901F90A5129013022
:10128E000310F20DF30DFF3E031D47290130F6004A
:10129E007608F907F31F5429552946290130031002
:1012AE00F70DF80DFF3E031D562973087502031D39
:1012BE00622972087402031C652966296D29720859
:1012CE00F4027308031CF503F502771401300310C2
:1012DE00F30CF20CFF3E031D6E290130F902031DC3
:1012EE0079297A2955297808F3007708F200080041
:1012FE0083120313A001A101A82920087507F80085
:10130E007608F7000318F70AA01F8E29F70377084F
:10131E00F900790883120313FF00780884000A127B
:10132E008A1500200A128A150A128A158E200A12B0
:10133E008A15013083120313A0070318A10A003087
:10134E00A10720087507F8007608F7000318F70ABA
:10135E00A01FB229F7037708F90079088312031347
:10136E00FF00780884000A128A1500200A128A15D6
:10137E00003A031DC329C429842908000310740DE3
:10138E00750DF600760883120313A1002108031DC4
:10139E00D129D229DB290030F5000030F4000030CD
:1013AE00F3000030F200402A7208F6007308F700CE
:1013BE007408F8007508F9001F300310F90CF80CCA
:1013CE00F70CF60CFF3E031DE4297608FA007A08A6
:1013DE00A000F417FF30F205FF30F305FF30F405DF
:1013EE000030F5059630A102A11FFE29FF29192A0A
:1013FE002108803A973E0318052A062A072AD22981
:10140E0001300310F50CF40CF30CF20CFF3E031D2F
:10141E00082A0130F6007608A107031D172A182A9C
:10142E00072A302A20302102031C1E2A1F2A2B2AAB
:10143E00D2290130F6000310F20DF30DF40DF50D67
:10144E00F60B222A0130A1022108031D2F2A302A71
:10145E00202A20080319342A352A402AF209F309D2
:10146E00F409F509F20A0319F30A0319F40A031928
:10147E00F50A0800F4008B170B17831603130C17CD
:10148E00831203130C139F131F171F149E2A9F12F0
:10149E001F129F111F11D82A9F121F129F111F1565
:1014AE00D82A9F121F129F151F11D82A9F121F1282
:1014BE009F151F15D82A9F121F169F111F11D82A6C
:1014CE009F121F169F111F15D82A9F121F169F15A8
:1014DE001F11D82A9F121F169F151F15D82A9F1647
:1014EE001F129F111F11D82A9F161F129F111F1511
:1014FE00D82A9F161F129F151F11D82A9F161F122A
:10150E009F151F15D82A9F161F169F111F11D82A17
:10151E009F161F169F111F15D82A9F161F169F154F
:10152E001F11D82A9F161F169F151F15D82A74082B
:10153E00F200F3017308003A0319A62AD82A72089A
:10154E00003A03194E2A013A0319532A033A031992
:10155E00582A013A03195D2A073A0319622A013AF9
:10156E000319672A033A03196C2A013A0319712ADF
:10157E000F3A0319762A013A03197B2A033A031903
:10158E00802A013A0319852A073A03198A2A013A51
:10159E0003198F2A033A0319942A013A0319992A37
:1015AE00D82A831603139F01831203139F14080076
:1015BE0083120313A00020080319E62AE72AFB2A48
:1015CE00F51FEA2AEB2AFB2A7209A2007309A3006F
:1015DE007409A4007509A500A20A0319A30A031928
:1015EE00A40A0319A50A032B7508A5007408A40004
:1015FE007308A3007208A2007508740473047204C1
:10160E00031D0A2B0B2B142B0030F5000030F400B9
:10161E000030F3000030F2009A2B9630F600760878
:10162E00A100262B0130F6007608A1070130031029
:10163E00A50CA40CA30CA20CFF3E031D1E2BFE300A
:10164E002505031D2B2B2C2B192B482B0130F600B7
:10165E007608A1070130A207003003180130A30756
:10166E00003003180130A407003003180130A5071D
:10167E0001300310A50CA40CA30CA20CFF3E031DFD
:10168E00402BFF302505031D4D2B4E2B2D2B5A2B9A
:10169E000130A1020130F6000310A20DA30DA40D1E
:1016AE00A50DF60B532BA41B5D2B5E2B642B02306A
:1016BE0021020318632B642B4F2B2118672B682BE9
:1016CE00702BFF30A205FF30A3057F30A405FF303D
:1016DE00A5050310A10C2108F600F701F801F90188
:1016EE0018300310F60DF70DF80DF90DFF3E031D22
:1016FE00782B7608A2047708A3047808A404790846
:10170E00A504200803198C2B8D2B922BF51F902BE3
:10171E00912B922BA5172508F5002408F400230819
:10172E00F3002208F20008008312031355088039D3
:10173E00D6005608DF005508D6005607D7005708C2
:10174E00E600D41FAB2BAC2BAD2B66146608031929
:10175E00B12BB22BC22B660A031DB62BB72BBF2B98
:10176E000030D5000030D4000030D3000030D2005D
:10177E00D417D501CA2B0030D5000030D40000306C
:10178E00D3000030D20051088039D6005608DF064B
:10179E005108D6005607D7005708E700D01FD82BA0
:1017AE00D92BDA2B671467080319DE2BDF2BEF2BEF
:1017BE00670A031DE32BE42BEC2B0030D100003025
:1017CE00D0000030CF000030CE00D017D101F72B63
:1017DE000030D1000030D0000030CF000030CE00FD
:1017EE00510850044F044E04031DFE2BFF2B182CE2
:1017FE000030D5000030D4000030D3000030D200CD
:10180E008030D4047F30D5045F08D6005608D50446
:10181E005508D1005408D0005308CF005208CE000E
:10182E00772D6608031D1C2C1D2C262C0030D10094
:10183E000030D0000030CF000030CE00772D66088B
:10184E00D600D7015708D90067085602D800031CE6
:10185E00D90358087F3EE00059080318013E003EA8
:10186E00E1005508DE005408DD005308DC00520884
:10187E00DB000030D5000030D4000030D300003043
:10188E00D2000030E5000030E4000030E30000300C
:10189E00E200E7019C2C67080319562C572C772C75
:1018AE000130D6000310DB0DDC0DDD0DDE0DD60B89
:1018BE00592C0130D6000310D20DD30DD40DD50DF9
:1018CE00D60B622CE51F6C2C6D2C6E2C5214013035
:1018DE00D6000310E20DE30DE40DE50DD60B702CD2
:1018EE0051085E02031D852C50085D02031D852CD8
:1018FE004F085C02031D852C4E085B02031C882CCE
:10190E00892C982C65174E08DB024F08031C4F0FCD
:10191E00DC025008031C500FDD025108031C510F4E
:10192E00DE020130D6005608E7071A306702031CA4
:10193E00A12CA22C522C5E085D045C045B040319DE
:10194E00A92CAA2CC92C6214C92C0130D600031064
:10195E00D20DD30DD40DD50DD60BAE2CE51FB82C54
:10196E00B92CBA2C52140130D6000310E20DE30D3F
:10197E00E40DE50DD60BBC2CFF30E0070318E10A91
:10198E00FF30E107D41FCC2CCD2CAC2CE701E51F8A
:10199E00D12CD22CEE2CFF306205D600FF30630521
:1019AE00D700FF306405D8007F306505D90059088F
:1019BE005804570456040319E52CE62CE92CE701CC
:1019CE00E70AEE2C521CEC2CED2CEE2CE62C6708C4
:1019DE000319F22CF32C242D0130D20700300318FA
:1019EE000130D307003003180130D407003003183C
:1019FE000130D507551C042D052D242D5208D60077
:101A0E005308D7005408D8005508D9000130DA0021
:101A1E00590DD90CD80CD70CD60CDA0B0F2D590842
:101A2E00D5005808D4005708D3005608D20001300C
:101A3E00E0070318E10A0030E1076108803AFF0071
:101A4E0080307F02031D2D2DFF306002031C302DD0
:101A5E00312D3F2DFF3083120313E0000030E100E3
:101A6E000030D5000030D4000030D3000030D2005A
:101A7E00831203136108803AFF0080307F02031D3A
:101A8E004A2D0130600203184D2D4E2D5B2D831211
:101A9E000313E001E1010030D5000030D400003026
:101AAE00D3000030D200DF01831203136008D6008A
:101ABE005608E600661C642D652D672DD4176B2D18
:101ACE007F30D6005608D4056608D6000310560C93
:101ADE00D7005708D5005F08D6005608D5040F2C3E
:101AEE0008007508803983120313A0002008A8008F
:101AFE007508A0002007A1002108AA00F41F882D58
:101B0E00892D8A2D2A142A0803198E2D8F2D9F2D8B
:101B1E002A0A031D932D942D9C2D0030F5000030C4
:101B2E00F4000030F3000030F200F417F501A72D99
:101B3E000030F5000030F4000030F3000030F20009
:101B4E0079088039A0002008A90029082806031961
:101B5E00B12DB22DB32D28177908A0002007A100B2
:101B6E002108A900F81FBC2DBD2DBE2D2914290852
:101B7E000319C22DC32DD32D290A031DC72DC82D20
:101B8E00D02D0030F9000030F8000030F7000030A2
:101B9E00F600F817F901DB2D0030F9000030F800DF
:101BAE000030F7000030F6002A0829020318E02D55
:101BBE00E12D252E281FE42DE52DE92D8030A000E6
:101BCE002008A8062A08A0002008AB002908A000BB
:101BDE002008AA002B08A0002008A9007208A00067
:101BEE002008AB007608A0002008F2002B08A00009
:101BFE002008F6007308A0002008AB007708A000AC
:101C0E002008F3002B08A0002008F7007408A0009D
:101C1E002008AB007808A0002008F4002B08A000D4
:101C2E002008F8007508A0002008AB007908A00075
:101C3E002008F5002B08A0002008F900AB012908A8
:101C4E00A000A1012108A3002A082002A200031C63
:101C5E00A3032308803AFF0080307F02031D392E34
:101C6E001A302202031C3C2E3D2E7A2E7508740467
:101C7E0073047204031D442E462E0130472E00308D
:101C8E0083120313A0002008AB000030F5000030D3
:101C9E00F4000030F3000030F2002908A000200804
:101CAE00AA00822E2B1C5C2E5D2E662E2B08A00009
:101CBE000310200C0138A1002108AB00682E031080
:101CCE00AB0C721C6B2E6C2E6D2EAB170130A00060
:101CDE00750DF50CF40CF30CF20CA00B6F2E0130FD
:101CEE00A0002008AA078312031329082A02031C46
:101CFE00812E822E592E281B852E862ED12E2A0815
:101D0E00031D8A2E8B2E942E0030F5000030F40029
:101D1E000030F3000030F200FF2F7608F20777084C
:101D2E0003110318013E03199D2EF30778080311C2
:101D3E000318013E0319A42EF407790803110318A2
:101D4E00013E0319AB2EF507751CAE2EAF2E852F57
:101D5E002B1CB22EB32EBC2E2B08A0000310200C71
:101D6E000138A1002108AB00BE2E0310AB0C721C73
:101D7E00C12EC22EC32EAB170130A000750DF50C6F
:101D8E00F40CF30CF20CA00BC52E0130A0002008B1
:101D9E00AA07852F7508803AFF007908803A7F02DE
:101DAE00031DE32E78087402031DE32E77087302D9
:101DBE00031DE32E760872020318E62EE72E3F2F40
:101DCE00FF30A000FF30A100FF30A200FF30A300C3
:101DDE007608A4007708A5007808A6007908A70061
:101DEE007208A4027308031C730FFE2EFF2EA502A9
:101DFE007408031C740F042F052FA6027508031C0C
:101E0E00750F0A2F0B2FA7022408A0072508031809
:101E1E00250F122F132FA10726080318260F182F90
:101E2E00192FA20727080318270AA3072308F5006E
:101E3E002208F4002108F3002008F2008030A000F0
:101E4E002008A806AB09AB0A2B08031D2F2F302F35
:101E5E004D2F0130F207003003180130F307003028
:101E6E0003180130F407003003180130F5074D2F29
:101E7E007608F2027708031C770FF3027808031C2A
:101E8E00780FF4027908031C790FF50275087404B3
:101E9E0073047204031D542F552F812F2B08031D1D
:101EAE00592F5A2F812F0030F5000030F4000030EA
:101EBE00F3000030F200FF2F0130A0000310F20DEE
:101ECE00F30DF40DF50DA00B652FAB1F6F2F702FBB
:101EDE00712F72142B1C742F752F782F0314AB0DCA
:101EEE007A2F0310AB0D2A0803197E2F7F2F812F17
:101EFE000130AA02F41F842F852F632FA901AB1F77
:101F0E00892F8A2F982F2B087F3903198F2F902F07
:101F1E00932FA901A90A982F721C962F972F982FED
:101F2E00902F290803199C2F9D2FD12F0130F207D6
:101F3E00003003180130F307003003180130F407A6
:101F4E00003003180130F507751CAE2FAF2FD12FBF
:101F5E007208A0007308A1007408A2007508A300FF
:101F6E000130A400230DA30CA20CA10CA00CA40BF9
:101F7E00B92F2308F5002208F4002108F3002008E9
:101F8E00F2002A0A0319CC2FCD2FD12F0130A00039
:101F9E002008AA072A0A0319D52FD62FDB2F2A08C5
:101FAE00031DDA2FDB2FE92F0030F5000030F4008F
:101FBE000030F3000030F2002A08031DE72FE82F4F
:101FCE00E92FA8012A1CEC2FED2FEF2FF417F32F7A
:101FDE007F30A0002008F4052A08A0000310200C72
:101FEE00A1002108F500A81FFD2FFE2FFF2FF517CA
:021FFE000800D9
:04400E00D4E0FFFFFC
:00000001FF
