:020000040000FA
:060000000A128A110C280F
:10000800FE00030EF0000A08F1000A168A113E2FBE
:100018000A128A110F28FA01FB0183120313EC015B
:10002800ED01EE01EF018313A0308400B0300A1215
:100038008A1506200A128A1183010A128A11852B51
:100048008312031337088039BC003C08C100370805
:10005800BC003C07BD003D08C700B61F3428352842
:1000680036284714470803193A283B284A28470ADC
:10007800031D3F28402848280030B7000030B6004C
:100088000030B5000030B400B61752280030B70071
:100098000030B6000030B5000030B4003B088039AD
:1000A800BC003C08C1063B08BC003C07BD003D083D
:1000B800C200BA1F60286128622842144208031946
:1000C800662867287628420A031D6B286C2874283E
:1000D8000030BB000030BA000030B9000030B80072
:1000E800BA177E280030BB000030BA000030B900D3
:1000F8000030B80042080319822883288828470856
:10010800031D8728882891280030B7000030B600E2
:100118000030B5000030B400842B3408BC003C0823
:10012800F2003A080A168A11D7270A128A117308A8
:1001380083120313CD007208CC004C08BC00BD012B
:10014800BE01BF013F08C6003E08C5003D08C40007
:100158003C08C3004D08BC00BD01BE01BF013F08FB
:10016800CB003E08CA003D08C9003C08C800350855
:10017800BC003C08F20039080A168A11D7270A126F
:100188008A11730883120313CD007208CC004C083F
:10019800BC00BD01BE01BF013C08C3073D080311F7
:1001A8000318013E0319D928C4073E080311031890
:1001B800013E0319E028C5073F0803110318013E53
:1001C8000319E728C6074D08BC00BD01BE01BF01E1
:1001D8003C08C8073D0803110318013E0319F52818
:1001E800C9073E0803110318013E0319FC28CA0772
:1001F8003F0803110318013E03190329CB073608EA
:10020800BC003C08F20038080A168A11D7270A12DF
:100218008A11730883120313CD007208CC004C08AE
:10022800BC00BD01BE01BF013C08C3073D08031166
:100238000318013E03192129C4073E0803110318B6
:10024800013E03192829C5073F0803110318013E79
:1002580003192F29C6074D08BC00BD01BE01BF0107
:100268003C08C8073D0803110318013E03193D293E
:10027800C9073E0803110318013E03194429CA0798
:100288003F0803110318013E03194B29CB07083017
:10029800BC000310C30DC40DC50DC60DBC0B4D2904
:1002A8003508BC003C08F20038080A168A11D7271E
:1002B8000A128A11730883120313CD007208CC0046
:1002C8004C08BC004D08BD00BE01BF013C08C30777
:1002D8003D0803110318013E03197329C4073E089A
:1002E80003110318013E03197A29C5073F080311B2
:1002F8000318013E03198129C6073408BC003C08CD
:10030800F20039080A168A11D7270A128A117308C7
:1003180083120313CD007208CC004C08BC004D08B2
:10032800BD00BE01BF013C08C3073D080311031807
:10033800013E0319A029C4073E0803110318013E12
:100348000319A729C5073F0803110318013E03191C
:10035800AE29C6070830BC000310C30DC40DC50D77
:10036800C60DBC0BB0293408BC003C08F2003808A4
:100378000A168A11D7270A128A11730883120313DF
:10038800CD007208CC004C08BC004D08BD00BE0171
:10039800BF013C08C3073D0803110318013E0319B8
:1003A800D629C4073E0803110318013E0319DD29A5
:1003B800C5073F0803110318013E0319E429C607BE
:1003C8003508BC003C08F2003A080A168A11D727FB
:1003D8000A128A11730883120313CD007208CC0025
:1003E8004C08BC004D08BD00BE01BF013C08C80751
:1003F8003D0803110318013E0319032AC9073E08E3
:1004080003110318013E03190A2ACA073F080311FA
:100418000318013E0319112ACB073608BC003C0813
:10042800F20039080A168A11D7270A128A117308A6
:1004380083120313CD007208CC004C08BC004D0891
:10044800BD00BE01BF013C08C8073D0803110318E1
:10045800013E0319302AC9073E0803110318013E5B
:100468000319372ACA073F0803110318013E031965
:100478003E2ACB073608BC003C08F2003A080A16A8
:100488008A11D7270A128A11730883120313CD0021
:100498007208CC004C08BC004D08BD00BE01BF016D
:1004A80008300310BC0DBD0DBE0DBF0DFF3E031D72
:1004B800552A3C08C8073D0803110318013E0319D3
:1004C800662AC9073E0803110318013E03196D2A5D
:1004D800CA073F0803110318013E0319742ACB0702
:1004E8004308BC004408BD004508BE004608BF00DC
:1004F80018300310BF0CBE0CBD0CBC0CFF3E031D16
:100508007D2A3C08C8073D0803110318013E03195A
:100518008E2AC9073E0803110318013E0319952ABC
:10052800CA073F0803110318013E03199C2ACB0789
:100538000830BC000310C30DC40DC50DC60DBC0B9F
:100548009E2A47084207BC00BD01BD0D3C08823EFB
:10055800CC003D080318013EFF3ECD00D02A0130F3
:10056800BC000310C80DC90DCA0DCB0DBC0BB52AB4
:10057800C61FBF2AC02AC12A48140130BC00031074
:10058800C30DC40DC50DC60DBC0BC32AFF30CC0767
:100598000318CD0AFF30CD07CA1FD32AD42AB32A9D
:1005A800C201C61FD82AD92AF52AFF304305BC0044
:1005B800FF304405BD00FF304505BE007F304605CD
:1005C800BF003F083E043D043C040319EC2AED2A11
:1005D800F02AC201C20AF52A481CF32AF42AF52A8D
:1005E800ED2A42080319F92AFA2A2B2B0130C807E9
:1005F800003003180130C907003003180130CA075A
:10060800003003180130CB074B1C0B2B0C2B2B2B6A
:100618004808BC004908BD004A08BE004B08BF0096
:100628000130C0003F0DBF0CBE0CBD0CBC0CC00B94
:10063800162B3F08CB003E08CA003D08C9003C08FD
:10064800C8000130CC070318CD0A0030CD074D088B
:10065800803AFF0080307F02031D342BFF304C02AC
:10066800031C372B382B432B7F3083120313CB000B
:100678008030CA000030C9000030C800782B8312CF
:1006880003134D08803AFF0080307F02031D4E2B74
:1006980001304C020318512B522B5E2B0030831271
:1006A8000313CB000030CA000030C9000030C80076
:1006B800C101782B831203134C08BC003C08C70007
:1006C800FF30C805FF30C9057F30CA050030CB05AB
:1006D800471C6F2B702B712BCA174708BC000310DF
:1006E8003C0CBD003D08CB004108BC003C08CB04D5
:1006F8004B08B7004A08B6004908B5004808B400D6
:1007080008000330831603138500860187018801DA
:1007180003308316031788008312031385018601AB
:10072800870188010A128A11AF270A128A118030BC
:1007380083120313A7002530A8000A128A15D420B3
:100748000A128A110A168A112F270A128A11F5012C
:10075800F50A01300A168A117A270A128A110B3013
:10076800F5008030F6000A128A158E200A128A11C6
:10077800F501F50A07300A168A117A270A128A1132
:100788001130F5008030F6000A128A158E200A1200
:100798008A11F501F50A0D300A168A117A270A120C
:1007A8008A111730F5008030F6000A128A158E205B
:1007B8000A128A1100300A128A1541220A128A1175
:1007C800831203136F080319EA2BEB2B0C2C1E085A
:1007D800E800E901EA01EB016B08F5006A08F4009A
:1007E8006908F3006808F20000300A128A15DF224F
:1007F8000A128A11750883160313AF007408AE0035
:100808007308AD007208AC0083120313EF019F1444
:100818004330D1007F30D0000030CF000030CE0010
:100828004030B700A030B6000030B5000030B4004A
:10083800831603132F0883120313BB0083160313B5
:100848002E0883120313BA00831603132D0883128C
:100858000313B900831603132C0883120313B8007B
:100868000A128A1124200A128A11831203133708E4
:10087800D5003608D4003508D3003408D2000A124F
:100888008A159B230A128A118312031351088316AF
:100898000313AF0083120313500883160313AE002B
:1008A800831203134F0883160313AD008312031337
:1008B8004E0883160313AC002F08F5002E08F40029
:1008C8002D08F3002C08F2000A128A1528210A12B2
:1008D8008A11720883120313E8006808EE00423098
:1008E800B700C830B6000030B5000030B4006E085C
:1008F800E800E901EA01EB016B08F5006A08F40079
:100908006908F3006808F20001300A128A15DF222C
:100918000A128A11750883120313AF007408AE0017
:100928007308AD007208AC00831603132F088312F6
:100938000313B300831603132E0883120313B200A4
:10094800831603132D0883120313B10083160313B0
:100958002C0883120313B0000A168A11B3270A124F
:100968008A11831203132F08BB002E08BA002D0822
:10097800B9002C08B8000A128A1124200A128A1118
:1009880083120313370883160313A7008312031374
:10099800360883160313A60083120313350883163B
:1009A8000313A50083120313340883160313A4004A
:1009B8002708F5002608F4002508F3002408F200AB
:1009C8000A128A1528210A128A117208831203133F
:1009D800E8006808ED000230E8006808F50001301A
:1009E8000A168A117A270A128A11831203136E08CB
:1009F8000A168A1195270A128A112E300A168A11A8
:100A080066270A128A110A30831203136D02031C27
:100A18000E2D0F2D1F2D6D080A168A1195270A1203
:100A28008A112030F5008030F6000A128A158E20CF
:100A38000A128A11392D1E30F5008030F6000A128C
:100A48008A158E200A128A11831203136D080A165A
:100A58008A1195270A128A112030F5008030F60095
:100A68000A128A158E200A128A111A308312031369
:100A7800E900F730E800E80B3F2DE90B3F2D442D46
:100A880001300A128A1541220A128A1183120313AD
:100A98006F080319502D512D722D1E08E800E90129
:100AA800EA01EB016B08F5006A08F4006908F30035
:100AB8006808F20000300A128A15DF220A128A1129
:100AC800750883160313AB007408AA007308A900FD
:100AD8007208A80083120313EF019F144330D1005A
:100AE8007F30D0000030CF000030CE004030B7005B
:100AF800A030B6000030B5000030B40083160313F0
:100B08002B0883120313BB00831603132A088312CE
:100B18000313BA0083160313290883120313B900B9
:100B280083160313280883120313B8000A128A11C4
:100B380024200A128A11831203133708D5003608B5
:100B4800D4003508D3003408D2000A128A159B2332
:100B58000A128A1183120313510883160313AB0078
:100B680083120313500883160313AA008312031376
:100B78004F0883160313A900831203134E08831624
:100B88000313A8002B08F5002A08F4002908F3002D
:100B98002808F2000A128A1528210A128A117208F6
:100BA80083120313E8006808FB004230B700C8301E
:100BB800B6000030B5000030B4007B08E800E90159
:100BC800EA01EB016B08F5006A08F4006908F30014
:100BD8006808F20001300A128A15DF220A128A1107
:100BE800750883120313AF007408AE007308AD00D4
:100BF8007208AC00831603132B0883120313B30087
:100C0800831603132A0883120313B20083160313EF
:100C1800290883120313B1008316031328088312CB
:100C28000313B0000A168A11B3270A128A11831215
:100C380003132F08BB002E08BA002D08B9002C0892
:100C4800B8000A128A1124200A128A118312031387
:100C5800370883160313A300831203133608831679
:100C68000313A20083120313350883160313A1008C
:100C780083120313340883160313A0002308F50016
:100C88002208F4002108F3002008F2000A128A154D
:100C980028210A128A11720883120313E8006808CF
:100CA800EC000230E8006808F50007300A168A11DF
:100CB8007A270A128A117B080A168A1195270A12BE
:100CC8008A112E300A168A1166270A128A110A30EA
:100CD800831203136C02031C722E732E832E6C086E
:100CE8000A168A1195270A128A112030F5008030D9
:100CF800F6000A128A158E200A128A119D2E1E30BD
:100D0800F5008030F6000A128A158E200A128A1120
:100D1800831203136C080A168A1195270A128A117E
:100D28002030F5008030F6000A128A158E200A124B
:100D38008A111A3083120313E900F730E800E80B30
:100D4800A32EE90BA32EA82E0A168A1136270A12FB
:100D58008A11831203131A08E8006808FA00F501DB
:100D6800F50A0D300A168A117A270A128A117A08AA
:100D78000A168A1166270A128A11DE2B0A128A11AC
:100D88000C2883120313B1002730A9002908AC00EE
:100D9800982F253032060319D22ED32EDF2E320893
:100DA800A900310884002908831380000130A900B4
:100DB8002908B107982FAD010130A607FF30260793
:100DC80084000A168A110A200A128A11B200A900A0
:100DD800AA012A08003A0319F22E982F2908003A86
:100DE8000319AA2F643A0319FD2E0D3A0319FD2E93
:100DF800982F2C08840083130008AF00840A000889
:100E0800B0000230A9002908AC07B01F0C2F0D2F25
:100E1800162F0330A9002908AD04AF09B009AF0A9D
:100E28000319B00AB201B20A3208A9002907013E23
:100E380084000A168A110A200A128A11AA000A16C0
:100E48008A110A200A128A11AB002B083002031DEE
:100E58002F2F2A082F020318322F332F342F3E2F1B
:100E68000130A9002908B20705303206031D3D2FBD
:100E78003E2F182F2D0803390319432F442F4F2FC6
:100E88002D30A9003108840029088313800001301F
:100E9800A9002908B1073208A9002908AE008F2F38
:100EA8000A30A0000030A1002E08A9002907013E41
:100EB80084000A168A110A200A128A11F2000A16F8
:100EC8008A110A200A128A11F3003008F5002F0847
:100ED800F4000A128A154A200A128A11730883122A
:100EE8000313A3007208A2000A128A150E200A1220
:100EF8008A11831203132008303EAA002A08B20080
:100F08003208A900310884002908831380000130C1
:100F1800A9002908B107FF30A9002908AE072E0A41
:100F2800031D972F982F542F0130A607FF3026074F
:100F380084000A168A110A200A128A11A9002908AF
:100F4800B2003208031DA92FAA2FCD2E3108840024
:100F58008313800108001430F6007930F500F50B92
:100F6800B32FF60BB32FB82F30300A168A11522739
:100F78000A128A110730F6007D30F500F50BC22FF2
:100F8800F60BC22F30300A168A1152270A128A111C
:100F98000F30F6004730F500F50BD02FF60BD02FA9
:100FA800D52F30300A168A1152270A128A11353085
:100FB800F500F50BDD2F38300A168A1152270A1270
:100FC8008A1110300A168A1152270A128A11013022
:100FD8000A168A1152270A128A1106300A168A112D
:100FE80052270A128A110C300A168A1152270A123D
:040FF8008A11080052
:10100C0064008001840A04060319003404060728CE
:10101C0083120313200821040319152816284528C8
:10102C00A501A50A242801300310A00DA10DFF3E37
:10103C00031D1A280130A4002408A507A11F272886
:10104C002828192821082302031D2E2820082202F3
:10105C00031C3128322838282008A2022108031C3E
:10106C00A303A30201300310A10CA00CFF3E031D2F
:10107C0039280130A502031D4428452828282308B7
:10108C00A1002208A0000800F701F80172087304FF
:10109C000319512852288928F901F90A60280130CE
:1010AC000310F20DF30DFF3E031D56280130F60020
:1010BC007608F907F31F63286428552801300310BC
:1010CC00F70DF80DFF3E031D652873087502031D0F
:1010DC00712872087402031C742875287C28720805
:1010EC00F4027308031CF503F502771401300310A6
:1010FC00F30CF20CFF3E031D7D280130F902031D99
:10110C008828892864287808F3007708F2000800FA
:10111C0083120313A001A101B72820087507F8005A
:10112C007608F7000318F70AA01F9D28F703770825
:10113C00F900790883120313FF00780884000A165B
:10114C008A1100200A128A150A168A1166270A12B9
:10115C008A15013083120313A0070318A10A00306B
:10116C00A10720087507F8007608F7000318F70A9E
:10117C00A01FC128F7037708F9007908831203131D
:10118C00FF00780884000A168A1100200A128A15BA
:10119C00003A031DD228D3289328080080308316E8
:1011AC00031387008B170B178C160C168312031363
:1011BC008C120C1283160313181398161812181588
:1011CC008312031398171813181683160317871511
:1011DC00831203132708F2002808F300F401F50129
:1011EC000030F9003D30F8000930F7000030F6000F
:1011FC000A128A15A4210A128A1575088312031380
:10120C00AC007408AB007308AA007208A900003087
:10121C00F5000030F4000030F3000430F2002C082C
:10122C00F9002B08F8002A08F7002908F6000A1222
:10123C008A15A4210A128A157208FF3E831603131D
:10124C00990008000310740D750D83120313A00090
:10125C002008F7007708031D342935293E29003072
:10126C00F5000030F4000030F3000030F200A32948
:10127C007208A0007308A1007408A2007508A300EE
:10128C001F300310A30CA20CA10CA00CFF3E031DDD
:10129C0047292008A4002408F600F417FF30F205B3
:1012AC00FF30F305FF30F4050030F5059630F702FA
:1012BC00F71F612962297C297708803A973E031829
:1012CC00682969296A29352901300310F50CF40CB9
:1012DC00F30CF20CFF3E031D6B290130A00020081B
:1012EC00F707031D7A297B296A2993292030770275
:1012FC00031C812982298E2935290130A000031075
:10130C00F20DF30DF40DF50DA00B85290130F7024C
:10131C007708031D922993298329760803199729A5
:10132C009829A329F209F309F409F509F20A03191A
:10133C00F30A0319F40A0319F50A080083120313BC
:10134C00A201F51FAA29AB29B829F209F309F4095E
:10135C00F509F20A0319F30A0319F40A0319F50A39
:10136C00A201A20AF91FBB29BC29CB29F609F7094E
:10137C00F809F909F60A0319F70A0319F80A031907
:10138C00F90A0130A0002008A2060030A6000030A7
:10139C00A5000030A4000030A30075087404730489
:1013AC0072040319DA29DB29282AA101A10AEB29E5
:1013BC000130A0000310F20DF30DF40DF50DA00B90
:1013CC00E0290130A0002008A107F51FEE29EF2924
:1013DC00DE290130A0000310A30DA40DA50DA60D50
:1013EC00A00BF12975087902031D062A74087802EE
:1013FC00031D062A73087702031D062A720876025B
:10140C00031C092A0A2A192A7208F6027308031CFB
:10141C00730FF7027408031C740FF8027508031C91
:10142C00750FF902231401300310F50CF40CF30CB6
:10143C00F20CFF3E031D1A2A0130A102031D272ABC
:10144C00282AEF29220803192C2A2D2A382AA30925
:10145C00A409A509A609A30A0319A40A0319A50A34
:10146C000319A60A2608F5002508F4002408F30041
:10147C002308F2000800F4008B170B1783160313D4
:10148C000C17831203130C139F131F171F149E2A80
:10149C009F121F129F111F11D82A9F121F129F11EA
:1014AC001F15D82A9F121F129F151F11D82A9F1281
:1014BC001F129F151F15D82A9F121F169F111F113F
:1014CC00D82A9F121F169F111F15D82A9F121F165C
:1014DC009F151F11D82A9F121F169F151F15D82A4A
:1014EC009F161F129F111F11D82A9F161F129F1192
:1014FC001F15D82A9F161F129F151F11D82A9F1629
:10150C001F129F151F15D82A9F161F169F111F11EA
:10151C00D82A9F161F169F111F15D82A9F161F1603
:10152C009F151F11D82A9F161F169F151F15D82AF5
:10153C007408F200F3017308003A0319A62AD82A9A
:10154C007208003A03194E2A013A0319532A033A36
:10155C000319582A013A03195D2A073A0319622A1A
:10156C00013A0319672A033A03196C2A013A031941
:10157C00712A0F3A0319762A013A03197B2A033A86
:10158C000319802A013A0319852A073A03198A2A72
:10159C00013A03198F2A033A0319942A013A0319C1
:1015AC00992AD82A831603139F01831203139F14BD
:1015BC00080083120313A00020080319E62AE72A67
:1015CC00FB2AF51FEA2AEB2AFB2A7209A2007309EF
:1015DC00A3007409A4007509A500A20A0319A30AA3
:1015EC000319A40A0319A50A032B7508A50074088E
:1015FC00A4007308A3007208A20075087404730495
:10160C007204031D0A2B0B2B142B0030F500003039
:10161C00F4000030F3000030F2009A2B9630F60004
:10162C007608A100262B0130F6007608A1070130C0
:10163C000310A50CA40CA30CA20CFF3E031D1E2B27
:10164C00FE302505031D2B2B2C2B192B482B013081
:10165C00F6007608A1070130A2070030031801300C
:10166C00A307003003180130A40700300318013021
:10167C00A50701300310A50CA40CA30CA20CFF3E73
:10168C00031D402BFF302505031D4D2B4E2B2D2B01
:10169C005A2B0130A1020130F6000310A20DA30D4C
:1016AC00A40DA50DF60B532BA41B5D2B5E2B642BED
:1016BC00023021020318632B642B4F2B2118672B4C
:1016CC00682B702BFF30A205FF30A3057F30A405DB
:1016DC00FF30A5050310A10C2108F600F701F80155
:1016EC00F90118300310F60DF70DF80DF90DFF3E4A
:1016FC00031D782B7608A2047708A3047808A404A9
:10170C007908A504200803198C2B8D2B922BF51F1F
:10171C00902B912B922BA5172508F5002408F4008B
:10172C002308F3002208F200080083120313550863
:10173C008039D6005608DF005508D6005607D7006A
:10174C005708E600D41FAB2BAC2BAD2B66146608E8
:10175C000319B12BB22BC22B660A031DB62BB72B68
:10176C00BF2B0030D5000030D4000030D300003047
:10177C00D200D417D501CA2B0030D5000030D400CC
:10178C000030D3000030D20051088039D600560802
:10179C00DF065108D6005607D7005708E700D01FC0
:1017AC00D82BD92BDA2B671467080319DE2BDF2B08
:1017BC00EF2B670A031DE32BE42BEC2B0030D1003D
:1017CC000030D0000030CF000030CE00D017D10157
:1017DC00F72B0030D1000030D0000030CF000030AB
:1017EC00CE00510850044F044E04031DFE2BFF2B5A
:1017FC00182C0030D5000030D4000030D30000305D
:10180C00D2008030D4047F30D5045F08D60056084F
:10181C00D5045508D1005408D0005308CF00520805
:10182C00CE00772D6608031D1C2C1D2C262C003099
:10183C00D1000030D0000030CF000030CE00772D2A
:10184C006608D600D7015708D90067085602D80099
:10185C00031CD90358087F3EE00059080318013EC9
:10186C00003EE1005508DE005408DD005308DC00A2
:10187C005208DB000030D5000030D4000030D3001B
:10188C000030D2000030E5000030E4000030E3000E
:10189C000030E200E7019C2C67080319562C572CEA
:1018AC00772C0130D6000310DB0DDC0DDD0DDE0DC9
:1018BC00D60B592C0130D6000310D20DD30DD40DFC
:1018CC00D50DD60B622CE51F6C2C6D2C6E2C521486
:1018DC000130D6000310E20DE30DE40DE50DD60B3F
:1018EC00702C51085E02031D852C50085D02031DEF
:1018FC00852C4F085C02031D852C4E085B02031CD3
:10190C00882C892C982C65174E08DB024F08031C79
:10191C004F0FDC025008031C500FDD025108031C52
:10192C00510FDE020130D6005608E7071A30670265
:10193C00031CA12CA22C522C5E085D045C045B04DD
:10194C000319A92CAA2CC92C6214C92C0130D6005D
:10195C000310D20DD30DD40DD50DD60BAE2CE51F27
:10196C00B82CB92CBA2C52140130D6000310E20D4D
:10197C00E30DE40DE50DD60BBC2CFF30E00703188E
:10198C00E10AFF30E107D41FCC2CCD2CAC2CE701A5
:10199C00E51FD12CD22CEE2CFF306205D600FF3087
:1019AC006305D700FF306405D8007F306505D9008A
:1019BC0059085804570456040319E52CE62CE92C55
:1019CC00E701E70AEE2C521CEC2CED2CEE2CE62C4D
:1019DC0067080319F22CF32C242D0130D2070030A8
:1019EC0003180130D307003003180130D40700303E
:1019FC0003180130D507551C042D052D242D520834
:101A0C00D6005308D7005408D8005508D900013027
:101A1C00DA00590DD90CD80CD70CD60CDA0B0F2DCB
:101A2C005908D5005808D4005708D3005608D200DE
:101A3C000130E0070318E10A0030E1076108803A41
:101A4C00FF0080307F02031D2D2DFF306002031C30
:101A5C00302D312D3F2DFF3083120313E000003069
:101A6C00E1000030D5000030D4000030D30000304D
:101A7C00D200831203136108803AFF0080307F028A
:101A8C00031D4A2D0130600203184D2D4E2D5B2D88
:101A9C0083120313E001E1010030D5000030D400C3
:101AAC000030D3000030D200DF0183120313600832
:101ABC00D6005608E600661C642D652D672DD417DC
:101ACC006B2D7F30D6005608D4056608D60003105F
:101ADC00560CD7005708D5005F08D6005608D50419
:101AEC000F2C08007508803983120313A0002008FE
:101AFC00A8007508A0002007A1002108AA00F41F67
:101B0C00882D892D8A2D2A142A0803198E2D8F2DA4
:101B1C009F2D2A0A031D932D942D9C2D0030F5002A
:101B2C000030F4000030F3000030F200F417F5013F
:101B3C00A72D0030F5000030F4000030F300003029
:101B4C00F20079088039A0002008A900290828068D
:101B5C000319B12DB22DB32D28177908A000200739
:101B6C00A1002108A900F81FBC2DBD2DBE2D2914E4
:101B7C0029080319C22DC32DD32D290A031DC72DE6
:101B8C00C82DD02D0030F9000030F8000030F700DF
:101B9C000030F600F817F901DB2D0030F9000030A9
:101BAC00F8000030F7000030F6002A08290203186C
:101BBC00E02DE12D252E281FE42DE52DE92D80307B
:101BCC00A0002008A8062A08A0002008AB002908BD
:101BDC00A0002008AA002B08A0002008A900720869
:101BEC00A0002008AB007608A0002008F2002B080B
:101BFC00A0002008F6007308A0002008AB007708AE
:101C0C00A0002008F3002B08A0002008F70074089F
:101C1C00A0002008AB007808A0002008F4002B08D6
:101C2C00A0002008F8007508A0002008AB00790877
:101C3C00A0002008F5002B08A0002008F900AB013B
:101C4C002908A000A1012108A3002A082002A20053
:101C5C00031CA3032308803AFF0080307F02031D7E
:101C6C00392E1A302202031C3C2E3D2E7A2E75087A
:101C7C00740473047204031D442E462E0130472E47
:101C8C00003083120313A0002008AB000030F500D5
:101C9C000030F4000030F3000030F2002908A000FE
:101CAC002008AA00822E2B1C5C2E5D2E662E2B0883
:101CBC00A0000310200C0138A1002108AB00682EF5
:101CCC000310AB0C721C6B2E6C2E6D2EAB170130EF
:101CDC00A000750DF50CF40CF30CF20CA00B6F2E90
:101CEC000130A0002008AA078312031329082A0236
:101CFC00031C812E822E592E281B852E862ED12E2A
:101D0C002A08031D8A2E8B2E942E0030F5000030ED
:101D1C00F4000030F3000030F200FF2F7608F207D9
:101D2C00770803110318013E03199D2EF307780859
:101D3C0003110318013E0319A42EF40779080311AB
:101D4C000318013E0319AB2EF507751CAE2EAF2EF2
:101D5C00852F2B1CB22EB32EBC2E2B08A0000310EB
:101D6C00200C0138A1002108AB00BE2E0310AB0CD7
:101D7C00721CC12EC22EC32EAB170130A000750DE4
:101D8C00F50CF40CF30CF20CA00BC52E0130A000DA
:101D9C002008AA07852F7508803AFF007908803A39
:101DAC007F02031DE32E78087402031DE32E7708CF
:101DBC007302031DE32E760872020318E62EE72E3B
:101DCC003F2FFF30A000FF30A100FF30A200FF30FA
:101DDC00A3007608A4007708A5007808A600790867
:101DEC00A7007208A4027308031C730FFE2EFF2EAB
:101DFC00A5027408031C740F042F052FA602750886
:101E0C00031C750F0A2F0B2FA7022408A007250807
:101E1C000318250F122F132FA10726080318260FBE
:101E2C00182F192FA20727080318270AA30723081E
:101E3C00F5002208F4002108F3002008F20080309D
:101E4C00A0002008A806AB09AB0A2B08031D2F2FF6
:101E5C00302F4D2F0130F207003003180130F307FB
:101E6C00003003180130F407003003180130F50777
:101E7C004D2F7608F2027708031C770FF3027808CF
:101E8C00031C780FF4027908031C790FF50275080E
:101E9C00740473047204031D542F552F812F2B08C7
:101EAC00031D592F5A2F812F0030F5000030F400FC
:101EBC000030F3000030F200FF2F0130A0000310BF
:101ECC00F20DF30DF40DF50DA00B652FAB1F6F2F5D
:101EDC00702F712F72142B1C742F752F782F0314E5
:101EEC00AB0D7A2F0310AB0D2A0803197E2F7F2F11
:101EFC00812F0130AA02F41F842F852F632FA90193
:101F0C00AB1F892F8A2F982F2B087F3903198F2FFE
:101F1C00902F932FA901A90A982F721C962F972FF7
:101F2C00982F902F290803199C2F9D2FD12F01300A
:101F3C00F207003003180130F307003003180130AA
:101F4C00F407003003180130F507751CAE2FAF2FC6
:101F5C00D12F7208A0007308A1007408A2007508A4
:101F6C00A3000130A400230DA30CA20CA10CA00C07
:101F7C00A40BB92F2308F5002208F4002108F30064
:101F8C002008F2002A0A0319CC2FCD2FD12F0130B3
:101F9C00A0002008AA072A0A0319D52FD62FDB2F59
:101FAC002A08031DDA2FDB2FE92F0030F500003053
:101FBC00F4000030F3000030F2002A08031DE72F74
:101FCC00E82FE92FA8012A1CEC2FED2FEF2FF41787
:101FDC00F32F7F30A0002008F4052A08A00003107E
:101FEC00200CA1002108F500A81FFD2FFE2FFF2FAC
:101FFC00F5170800FF1B0A2883137F1883170008A6
:10200C00840A0319FF0A080010308A000408840AA5
:10201C0082070034013400340A3400346434003450
:10202C00E83403341034273450344F3454343034BF
:10203C003134003450344F3454343034323400346E
:10204C00543454344C340034253464340034303437
:06205C000034563400348C
:102E5E0001300A168A1152270A168A1108008312A7
:102E6E0003138C1E3B2F3C2F362F8C1208008B1316
:102E7E000B13831203139F18452F462F492FEF0173
:102E8E00EF0A0C138B170B1771088A00700E830054
:102E9E00FE0E7E0E0900F40083120313061374084F
:102EAE00880086170630F3003030F200F20B5D2FEB
:102EBE00F30B5D2F00008312031386130800F4003A
:102ECE008312031306177408880086170630F30062
:102EDE003030F200F20B712FF30B712F00008312C2
:102EEE00031386130800F6007503031D7F2F802F32
:102EFE00872F76087F3E0A168A1152270A168A11E4
:102F0E0002307506031D8C2F8D2F942F7608BF3E31
:102F1E000A168A1152270A168A1108008312031301
:102F2E00BA001B30B3003308A6003A08B400B5014E
:102F3E003408A7003508A80036300A128A11C526B3
:102F4E000A168A113630F5000030F6000A128A157C
:102F5E008E200A168A110800803083120313AF06E2
:102F6E003308F5003208F4003108F3003008F2009F
:102F7E002F08F9002E08F8002D08F7002C08F6008F
:102F8E000A128A1578250A168A11750883120313F8
:102F9E00AF007408AE007308AD007208AC000800F4
:102FAE0083120313A400A001A1017208F400F5011D
:102FBE007408A2007508A300241CE62FE72FED2F3E
:102FCE002208A0070318A10A2308A1070130031045
:102FDE00A20DA30DFF3E031DEE2F0310A40C24081B
:102FEE00031DFA2FFB2FE32F2108F3002008F20018
:022FFE000800C9
:04400E00D4E0FFFFFC
:00000001FF
