:020000040000FA
:100000000A128A11FC2F00308A000408840A820731
:10001000003450344F3454343134003450344F347D
:0E002000543432340034543454344C340034EC
:100DF20001300A128A1100270A128A110800F20031
:100E02008312031306137208880086170630F10056
:100E12003030F000F00B0B2FF10B0B2F0000831280
:100E2200031386130800F2008312031306177208D5
:100E3200880086170630F1003030F000F00B1F2FCB
:100E4200F10B1F2F00008312031386130800F40016
:100E52007303031D2D2F2E2F352F74087F3E0A1288
:100E62008A1100270A128A1102307306031D3A2FD3
:100E72003B2F422F7408BF3E0A128A1100270A1222
:100E82008A110800F500F301F4015A2F730875075F
:100E920084000A128A1103200A128A110A128A1184
:100EA20014270A128A110130F3070318F40A0030DA
:100EB200F4077308750784000A128A1103200A12C4
:100EC2008A11003A031D662F672F472F0800FF3053
:100ED2008316031385008601870188018312031399
:100EE20085018601870188010A128A11AD270A123B
:100EF2008A110A128A11F9260A128A11F301F30AD7
:100F020001300A128A1128270A128A1101300A12A4
:100F12008A1143270A128A11F301F30A06300A12D0
:100F22008A1128270A128A1106300A128A114327C7
:100F32000A128A11F301F30A0B300A128A112827C6
:100F42000A128A110B300A128A1143270A128A11D5
:100F5200A92F0A128A1100281430F4007930F30004
:100F6200F30BB12FF40BB12FB62F30300A128A11C6
:100F720000270A128A110730F4007D30F300F30BC8
:100F8200C02FF40BC02F30300A128A1100270A1228
:100F92008A110F30F4004730F300F30BCE2FF40B1D
:100FA200CE2FD32F30300A128A1100270A128A114B
:100FB2003530F300F30BDB2F38300A128A11002789
:100FC2000A128A1110300A128A1100270A128A1193
:100FD20001300A128A1100270A128A1106300A12F7
:100FE2008A1100270A128A110C300A128A1100276C
:0E0FF2000A128A11080083010A128A11682F60
:04400E00D4E0FFFFFC
:00000001FF
