:020000040000FA
:060000000A128A11FC2F18
:100F0600F200831203130613720888008617063050
:100F1600F1003030F000F00B8E2FF10B8E2F000019
:100F26008312031386130800033083160313850008
:100F360086018701880183120313850186018701D3
:100F460088010A128A11AD270A128A11A92F0A12DC
:100F56008A1100281430F4007930F300F30BB12F16
:100F6600F40BB12FB62F30300A128A1183270A12DA
:100F76008A110730F4007D30F300F30BC02FF40B19
:100F8600C02F30300A128A1183270A128A110F30B5
:100F9600F4004730F300F30BCE2FF40BCE2FD32FF4
:100FA60030300A128A1183270A128A113530F3006B
:100FB600F30BDB2F38300A128A1183270A128A11A3
:100FC60010300A128A1183270A128A1101300A1276
:100FD6008A1183270A128A1106300A128A11832778
:100FE6000A128A110C300A128A1183270A128A11F0
:0A0FF600080083010A128A11972FE8
:04400E00D4E0FFFFFC
:00000001FF
