:020000040000FA
:060000000A128A110C280F
:10000800FE00030EF0000A08F1000A168A154B2BB1
:100018000A128A110F28FB0183160313D601D70190
:10002800D801D901DA01DB01DC01DD01DE01DF01E4
:1000380083010A128A15712883160313BE006B30D8
:10004800A8002808B100AF2F2530450603192D2830
:100058002E283A284508A8003E088400280883135B
:1000680080000130A8002808BE07AF2FB201B301F5
:10007800831203136A0884000A168A110A200A12D6
:100088008A112E3A031D49284A289C2883160313EF
:1000980033170130A800280883120313EA078316D0
:1000A8000313C301C4018A280A30F2000030F300A8
:1000B800831603134408F5004308F4000A168A154A
:1000C8007E230A128A11730883160313C400720868
:1000D800C300831203136A0884000A168A110A20CF
:1000E8000A128A11D03E83160313A800FF300318A2
:1000F8000030A9002808C3070318C40A2908C40740
:100108000130A800280883120313EA0783126A083B
:1001180084000A168A110A200A128A110A168A15F8
:1001280011230A128A1103189A289B285828A428F0
:1001380083160313C301C4013316A4283315C82832
:10014800013083120313EA07FF306A0784000A1696
:100158008A110A200A128A1183160313C500A800FF
:10016800A9012908003A0319BA28AF2F2808003A2C
:100178000319C52F643A0319C828023A0319A2289B
:100188000F3A0319C828AF2F00303205A8000730EE
:100198003305A900280829040319D328D428872E51
:1001A800331ED728D828DC280630C3000030C40006
:1001B8003108840083130008BF00840A0008C000C7
:1001C800840A0008C100840A0008C2000430A8009C
:1001D8002808B1074208F5004108F4004008F30078
:1001E8003F08F2000030F9000030F8000030F70056
:1001F8000030F6000A168A155C270A128A110318BD
:10020800062907292429831603134208F500410803
:10021800F4004008F3003F08F2000A168A15062386
:100228000A128A11750883160313C2007408C100E4
:100238007308C0007208BF000330B2040030B30472
:1002480083160313B401B5014208F5004108F40010
:100258004008F3003F08F2000030F9000030F800D1
:100268000030F7000030F6000A168A1507250A1232
:100278008A11031840294129412A031083160313C0
:10028800410D420D823EB400FF3003180030B50026
:10029800FF30B4070318B50AFF30B5070330F20082
:1002A8000030F3003508F5003408F4000A168A1502
:1002B8007E230A128A11730883160313B500720885
:1002C800B4000A3083120313A0000030A100831683
:1002D8000313350883120313A3008316031334088A
:1002E80083120313A2000A128A1508200A128A111F
:1002F80083120313210883160313B5008312031313
:10030800200883160313B400B51F8B298C29922962
:10031800FF30B4070318B50AFF30B5073403FF3AB6
:100328000A128A159D240A128A118312031345089A
:1003380083160313B90083120313440883160313A7
:10034800B80083120313430883160313B7008312FC
:100358000313420883160313B600420883120313DB
:10036800AB0083160313410883120313AA008316F4
:100378000313400883120313A900831603133F08CD
:1003880083120313A8008316031339088312031377
:10039800AF0083160313380883120313AE008316C5
:1003A8000313370883120313AD00831603133608AB
:1003B80083120313AC000A128A153C210A128A110F
:1003C800831203132B0883160313B9008312031334
:1003D8002A0883160313B800831203132908831607
:1003E8000313B70083120313280883160313B600F8
:1003F8003908F5003808F4003708F3003608F20029
:100408003F30F9008030F8000030F7000030F60087
:100418000A168A155C270A128A110318142A152A43
:100428001E2AFF3083160313B4070318B50AFF30DA
:10043800B507412A831603133908F5003808F40074
:100448003708F3003608F2004130F9002030F80090
:100458000030F7000030F6000A168A155C270A12E9
:100468008A11031C382A392A412A013083160313BA
:10047800B4070318B50A0030B507831603134408F8
:10048800803AFF0080307F02031D4C2A0D30430262
:1004980003184F2A502A972A8316031343080A166B
:1004A8008A116B230A128A11831203134508D90093
:1004B8004408D8004308D7004208D600831603131F
:1004C800420883120313DD008316031341088312C5
:1004D8000313DC0083160313400883120313DB00A5
:1004E800831603133F0883120313DA000A168A11CE
:1004F80078250A128A1183120313590883160313E5
:10050800C20083120313580883160313C100831211
:100518000313570883160313C000831203135608E6
:1005280083160313BF00831603133508803AFF00B0
:1005380080307F02031DA22A0A3034020318A52A3C
:10054800A62AF72A831603134208F5004108F40087
:100558004008F3003F08F2000030F9000030F800CE
:100568000030F7000030F6000A168A1507250A122F
:100578008A110318C02AC12A692B8316031342085B
:1005880083120313D800831603134108831203133D
:10059800D70083160313400883120313D60083166B
:1005A80003133F0883120313D5000A168A11B820D3
:1005B8000A128A1183120313580857045604550463
:1005C800031DE72AE82A692B831603133508803AA6
:1005D800FF0080307F02031DF32A02303402031C1F
:1005E800F62AF72A692B831603133908F500380809
:1005F800F4003708F3003608F2004030F90089307B
:10060800F8007030F7005F30F6000A168A155C278C
:100618000A128A110318112B122B1B2BF730831681
:100628000313B4070318B50AFF30B507232BF830B6
:1006380083160313B4070318B50AFF30B507340847
:100648000A128A159D240A128A1183120313450877
:1006580083160313B9008312031344088316031384
:10066800B80083120313430883160313B7008312D9
:100678000313420883160313B6004208F500410825
:10068800F4004008F3003F08F2003908F900380880
:10069800F8003708F7003608F6000A168A11AD2266
:1006A8000A128A11750883160313BD007408BC006A
:1006B8007308BB007208BA000030C2000030C100E5
:1006C8000030C0000030BF00CF2B83160313420850
:1006D80083120313D80083160313410883120313EC
:1006E800D70083160313400883120313D60083161A
:1006F80003133F0883120313D5000A168A11B82082
:100708000A128A1183120313580883160313BD00B3
:1007180083120313570883160313BC0083120313B1
:10072800560883160313BB00831203135508831658
:100738000313BA003D08F5003C08F4003B08F30039
:100748003A08F20000300A168A1134210A128A1176
:10075800750883160313A3007408A2007308A10088
:100768007208A0004208A7004108A6004008A5009A
:100778003F08A4000A168A1557250A128A118316FB
:1007880003132308C2002208C1002108C000200862
:10079800BF00B401B501C501C50A4508A80001306C
:1007A8000310A80DFF3E031DD42B0310280D693E2E
:1007B80084000A168A110A200A128A11A9000A1648
:1007C8008A110A200A128A11AA000A168A110A2016
:1007D8000A128A11AB000A168A110A200A128A1113
:1007E800AC002C083D02031D032C2B083C02031D02
:1007F800032C2A083B02031D032C29083A0203187C
:10080800062C072C082C122C0130A8002808C50734
:100818000A304506031D112C122CD12B033032054A
:10082800A80000303305A9002808290403191D2C45
:100838001E2CB02C2D30A8003E08840028088313F5
:1008480080000130A8002808BE07B02C4508A80081
:1008580001300310A80DFF3E031D2D2C0310280D99
:10086800693E84000A168A110A200A128A11F200C7
:100878000A168A110A200A128A11F3000A168A1126
:100888000A200A128A11F4000A168A110A200A128A
:100898008A11F5003D08F9003C08F8003B08F7000C
:1008A8003A08F6000A168A1556260A128A11750899
:1008B80083160313B9007408B8007308B7007208E8
:1008C800B600003083120313A8000030A7000030E0
:1008D800A6000A30A50083160313390883120313F0
:1008E800AC0083160313380883120313AB00831676
:1008F8000313370883120313AA0083160313360859
:1009080083120313A9000A168A15A7250A128A1149
:1009180083120313280883160313B90083120313E1
:10092800270883160313B8008312031326088316B7
:100938000313B70083120313250883160313B600A5
:100948003608303EA8003E0884002808831380003B
:100958000130A8002808BE070130C502450A031D5A
:10096800B62CB72C2A2CCB2C303083160313A800B6
:100978003E0884002808831380000130A800280856
:10098800BE07FF30B4070318B50AFF30B5073508AE
:10099800803AFF0080307F02031DD42C01303402DE
:1009A8000318D72CD82CB82C831603134408803A84
:1009B800FF0080307F02031DE32C09304302031C33
:1009C800E62CE72CEE2C083083160313A800280821
:1009D800C500F42C831603134308A8002808C50093
:1009E8004508A800A9012808C3022908031CC40354
:1009F800C40245080319012D022D0D2D2E30A80023
:100A08003E0884002808831380000130A8002808C5
:100A1800BE0745080A128A159D240A128A118312F4
:100A28000313450883160313B00083120313440805
:100A380083160313AF0083120313430883160313AB
:100A4800AE0083120313420883160313AD00300867
:100A580083120313AF00831603132F0883120313A3
:100A6800AE00831603132E0883120313AD008316FA
:100A780003132D0883120313AC00831603134208D3
:100A880083120313AB008316031341088312031365
:100A9800AA0083160313400883120313A9008316C0
:100AA80003133F0883120313A8000A128A153C2176
:100AB8000A128A11831203132B08D8002A08D700B8
:100AC8002908D6002808D5000A168A11B8200A1263
:100AD8008A1183120313580883160313BD00831267
:100AE8000313570883160313BC0083120313560815
:100AF80083160313BB0083120313550883160313CD
:100B0800BA00672E4508A80001300310A80DFF3E63
:100B1800031D892D0310280D693E84000A168A11C9
:100B28000A200A128A11F2000A168A110A200A12E9
:100B38008A11F3000A168A110A200A128A11F4008F
:100B48000A168A110A200A128A11F5003D08F900CE
:100B58003C08F8003B08F7003A08F6000A168A1520
:100B680056260A128A11750883160313B9007408E9
:100B7800B8007308B7007208B60000308312031378
:100B8800A8000030A7000030A6000A30A500831690
:100B98000313390883120313AC00831603133808B0
:100BA80083120313AB00831603133708831203134E
:100BB800AA0083160313360883120313A9000A1622
:100BC8008A15A7250A128A11831203132808831687
:100BD8000313B90083120313270883160313B800FD
:100BE80083120313260883160313B7008312031313
:100BF800250883160313B6003608303EA8003E08C1
:100C080084002808831380000130A8002808BE0744
:100C18004508A80001300310A80DFF3E031D0F2E44
:100C28000310280D693E84000A168A110A200A1248
:100C38008A1183120313A5000A168A110A200A12C0
:100C48008A11A6000A168A110A200A128A11A70018
:100C58000A168A110A200A128A11A8008316031399
:100C68003D0883120313AC00831603133C08831258
:100C78000313AB00831603133B0883120313AA0064
:100C8800831603133A0883120313A9000A168A1558
:100C9800A7250A128A11831203132808831603133F
:100CA800BD0083120313270883160313BC008312A5
:100CB8000313260883160313BB00831203132508A6
:100CC80083160313BA000130C502450A031D6D2EB1
:100CD8006E2E862D802E3030A8003E08840028080D
:100CE800831380000130A8002808BE07FF30C3071F
:100CF8000318C40AFF30C40743084404031D852EA3
:100D0800862E6F2EAF2F3108840083130008A800A9
:100D1800840A0008A9002808BA002908BB00003086
:100D2800BB1BFF30BC00BD000230A8002808B1077B
:100D3800BD1F9F2EA02EAF2E0330B2040030B30487
:100D4800BA09BB09BC09BD09BA0A0319BB0A0319C8
:100D5800BC0A0319BD0A43084404031DB42EB52E6A
:100D6800C32E3D083C043B043A04031DBC2EBD2E93
:100D7800C32E0130C3070318C40A0030C407C501D5
:100D8800C50A4508A80001300310A80DFF3E031D41
:100D9800C82E0310280D693E84000A168A110A20FD
:100DA8000A128A11A9000A168A110A200A128A113F
:100DB800AA000A168A110A200A128A11AB000A161A
:100DC8008A110A200A128A11AC002C083D02031D60
:100DD800F72E2B083C02031DF72E2A083B02031DA1
:100DE800F72E29083A020318FA2EFB2EFC2E062F9E
:100DF8000130A8002808C5070A304506031D052F3D
:100E0800062FC52E4408803A803C031D0D2F430849
:100E180045020318102F112F122F2A2F83160313A0
:100E28004408803AA80080302802031D1D2F450879
:100E380043020318202F212F2A2F83160313450856
:100E4800A800A9012808C3002908C4000330831694
:100E580003133205A80000303305A9002808290427
:100E68000319372F382FA12F2D30A8003E088400F2
:100E78002808831380000130A8002808BE07A12F86
:100E8800003083120313A8000030A7000030A6002A
:100E98000A30A500831603134308A8000130031085
:100EA800A80DFF3E031D532F0310280D693E840033
:100EB8000A168A110A200A128A11F2000A168A11E1
:100EC8000A200A128A11F3000A168A110A200A1245
:100ED8008A11F4000A168A110A200A128A11F500EA
:100EE8003D08F9003C08F8003B08F7003A08F6000E
:100EF8000A168A1556260A128A11750883120313D0
:100F0800AC007408AB007308AA007208A9000A169E
:100F18008A15A7250A128A11831203132508303E61
:100F280083160313A9002908C5004508A8003E0830
:100F380084002808831380003F2FFF30C30703185D
:100F4800C40AFF30C407430A031DAE2F440A031D19
:100F5800AE2FAF2F442F013083120313EA07FF305F
:100F68006A0784000A168A110A200A128A1183164F
:100F78000313A8002808C5004508031DC42FC52F62
:100F880028283E0884008313800108009C308312BF
:100F98000313EF006F08EA0083160313490883124E
:100FA8000313EE0083160313480883120313ED009E
:100FB80083160313470883120313EC0083160313E5
:100FC800460883120313EB00CA300A128A11202044
:100FD8000A128A11CA30F5000030F6000A168A157E
:100FE8002C240A128A11080001300A168A152323B4
:060FF8000A128A11080034
:1010100083120313A501A11F0E280F281628A0096B
:10102000A109A00A0319A10AA501A50AA31F19284D
:101030001A282328A209A309A20A0319A30A013026
:10104000F9007908A506A601A701200821040319C3
:101050002A282B286228A401A40A39280130031069
:10106000A00DA10DFF3E031D2F280130F9007908C6
:10107000A407A11F3C283D282E2801300310A60DEF
:10108000A70DFF3E031D3E2821082302031D4A2809
:1010900020082202031C4D284E2855282008A202B1
:1010A0002108031CA303A302261401300310A10C82
:1010B000A00CFF3E031D56280130A402031D612829
:1010C00062283D2825080319662867286C28A60988
:1010D000A709A60A0319A70A2708A1002608A00045
:1010E00008000330831603138500860187018801F9
:1010F00003308316031788008312031385018601CA
:10110000870188010A168A15B8240A128A15003048
:101110000A168A15BE260A128A159130F50080300B
:10112000F6000A168A152C240A128A150630831630
:101130000313D0001330CF00AD30CE00CE0B9E286D
:10114000CF0B9E28D00B9E280A128A11F8270A126C
:101150008A15FF300A168A15CA230A128A15063024
:1011600083160313D0001330CF00AD30CE00CE0B6A
:10117000B728CF0BB728D00BB7280A128A11F82747
:101180000A128A1500300A168A15BE260A128A1516
:10119000831603135F080319CE28CF28FE28FF30DB
:1011A00083120313A0000030A1001E08831603134E
:1011B000CE00CF014E08F2004F08F3000530F400D6
:1011C0000030F5000A168A157E230A128A15730864
:1011D00083120313A3007208A2000A128A150820C2
:1011E0000A128A1583120313200883160313D000F2
:1011F0005008DE00DF01831203139F1483160313CC
:101200005E08831203138700F501F50A01300A1600
:101210008A1563230A128A15831603135E08CE000B
:10122000CF01D001D1015108F5005008F4004F085A
:10123000F3004E08F20000300A168A1134210A1217
:101240008A15750883160313D5007408D400730833
:10125000D3007208D2005508C9005408C8005308CA
:10126000C7005208C6000A128A11CA270A128A1534
:10127000C2280A128A110C28831203132B08803902
:10128000B0003008B5002B08B0003007B1003108BD
:10129000BB00AA1F4C294D294E293B143B080319BA
:1012A0005229532962293B0A031D572958296029CD
:1012B0000030AB000030AA000030A9000030A800C8
:1012C000AA176A290030AB000030AA000030A9003C
:1012D0000030A8002F088039B0003008B5062F086C
:1012E000B0003007B1003108BA00AE1F7829792963
:1012F0007A293A143A0803197E297F298E293A0A55
:10130000031D832984298C290030AF000030AE00F2
:101310000030AD000030AC00AE1796290030AF00B1
:101320000030AE000030AD000030AC003A080319C8
:101330009A299B29A0293B08031D9F29A029A92997
:101340000030AB000030AA000030A9000030A80037
:101350009C2C2808B0003008F2002E080A168A15C6
:10136000A3230A128A15730883120313C10072089B
:10137000C0004008B000B101B201B3013308B900A8
:101380003208B8003108B7003008B6004108B00094
:10139000B101B201B3013308BF003208BE00310809
:1013A000BD003008BC002908B0003008F2002D084C
:1013B0000A168A15A3230A128A15730883120313C7
:1013C000C1007208C0004008B000B101B201B30111
:1013D0003008B607310803110318013E0319F1293B
:1013E000B707320803110318013E0319F829B8079B
:1013F000330803110318013E0319FF29B9074108F7
:10140000B000B101B201B3013008BC0731080311CB
:101410000318013E03190D2ABD07320803110318F2
:10142000013E0319142ABE07330803110318013EB5
:1014300003191B2ABF072A08B0003008F2002C0845
:101440000A168A15A3230A128A1573088312031336
:10145000C1007208C0004008B000B101B201B30180
:101460003008B607310803110318013E0319392A61
:10147000B707320803110318013E0319402AB807C1
:10148000330803110318013E0319472AB90741081D
:10149000B000B101B201B3013008BC07310803113B
:1014A0000318013E0319552ABD073208031103181A
:1014B000013E03195C2ABE07330803110318013EDD
:1014C0000319632ABF070830B0000310B60DB70D2B
:1014D000B80DB90DB00B652A2908B0003008F2002C
:1014E0002C080A168A15A3230A128A157308831278
:1014F0000313C1007208C0004008B0004108B100E9
:10150000B201B3013008B607310803110318013ED8
:1015100003198B2AB707320803110318013E031978
:10152000922AB807330803110318013E0319992AB8
:10153000B9072808B0003008F2002D080A168A15ED
:10154000A3230A128A15730883120313C1007208B9
:10155000C0004008B0004108B100B201B30130083A
:10156000B607310803110318013E0319B82AB7075B
:10157000320803110318013E0319BF2AB8073308C4
:1015800003110318013E0319C62AB9070830B00039
:101590000310B60DB70DB80DB90DB00BC82A280849
:1015A000B0003008F2002C080A168A15A3230A128C
:1015B0008A15730883120313C1007208C000400823
:1015C000B0004108B100B201B3013008B6073108DC
:1015D00003110318013E0319EE2AB707320803115D
:1015E0000318013E0319F52AB8073308031103183D
:1015F000013E0319FC2AB9072908B0003008F2009F
:101600002E080A168A15A3230A128A157308831254
:101610000313C1007208C0004008B0004108B100C7
:10162000B201B3013008BC07310803110318013EB1
:1016300003191B2BBD07320803110318013E0319C0
:10164000222BBE07330803110318013E0319292B6F
:10165000BF072A08B0003008F2002D080A168A15C4
:10166000A3230A128A15730883120313C100720898
:10167000C0004008B0004108B100B201B301300819
:10168000BC07310803110318013E0319482BBD079D
:10169000320803110318013E03194F2BBE0733080C
:1016A00003110318013E0319562BBF072A08B00087
:1016B0003008F2002E080A168A15A3230A128A158A
:1016C000730883120313C1007208C0004008B00001
:1016D0004108B100B201B30108300310B00DB10DE3
:1016E000B20DB30DFF3E031D6D2B3008BC07310852
:1016F00003110318013E03197E2BBD0732080311A5
:101700000318013E0319852BBE0733080311031884
:10171000013E03198C2BBF073608B0003708B10013
:101720003808B2003908B30018300310B30CB20CFB
:10173000B10CB00CFF3E031D952B3008BC073108DF
:1017400003110318013E0319A62BBD07320803112C
:101750000318013E0319AD2BBE073308031103180C
:10176000013E0319B42BBF070830B0000310B60DBB
:10177000B70DB80DB90DB00BB62B3B083A07B0004A
:10178000B101B10D3008823EC00031080318013E9E
:10179000FF3EC100E82B0130B0000310BC0DBD0DB1
:1017A000BE0DBF0DB00BCD2BB91FD72BD82BD92B0E
:1017B0003C140130B0000310B60DB70DB80DB90DD3
:1017C000B00BDB2BFF30C0070318C10AFF30C10785
:1017D000BE1FEB2BEC2BCB2BBA01B91FF02BF12B3F
:1017E0000D2CFF303605B000FF303705B100FF305B
:1017F0003805B2007F303905B300330832043104B4
:1018000030040319042C052C082CBA01BA0A0D2C3B
:101810003C1C0B2C0C2C0D2C052C3A080319112CFC
:10182000122C432C0130BC07003003180130BD07D7
:10183000003003180130BE07003003180130BF0725
:101840003F1C232C242C432C3C08B0003D08B10045
:101850003E08B2003F08B3000130B400330DB30CB2
:10186000B20CB10CB00CB40B2E2C3308BF003208F4
:10187000BE003108BD003008BC000130C0070318AD
:10188000C10A0030C1074108803AFF0080307F0262
:10189000031D4C2CFF304002031C4F2C502C5B2CA2
:1018A0007F3083120313BF008030BE000030BD00C4
:1018B0000030BC00902C831203134108803AFF00D3
:1018C00080307F02031D662C013040020318692C12
:1018D0006A2C762C003083120313BF000030BE0048
:1018E0000030BD000030BC00B501902C8312031302
:1018F0004008B0003008BB00FF30BC05FF30BD051C
:101900007F30BE050030BF053B1C872C882C892CFE
:10191000BE173B08B0000310300CB1003108BF0007
:101920003508B0003008BF043F08AB003E08AA00ED
:101930003D08A9003C08A800080083120313D40046
:10194000D41FA32CA42C532ED409D40A5408803AB3
:10195000123E031CAC2CAD2C972D0A30A000003099
:10196000A1005408F400F501F41BF5036430F20003
:101970000030F3000A168A15FD250A128A1573082D
:1019800083120313A3007208A2000A128A1508200A
:101990000A128A15831203132008C60001300310AF
:1019A000C60DFF3E031DCF2C0310460D593E84008B
:1019B0000A168A110A200A128A15C7000A168A1105
:1019C0000A200A128A15C8000A168A110A200A1269
:1019D0008A15C9000A168A110A200A128A15CA0035
:1019E0004A08AB004908AA004808A9004708A8000F
:1019F0006430A0000030A1005408A200A301A21B83
:101A0000A3030A128A1508200A128A1583120313E7
:101A10002008CB0001300310CB0DFF3E031D0B2D22
:101A200003104B0D7D3E84000A168A110A200A120B
:101A30008A15CC000A168A110A200A128A15CD00CE
:101A40000A168A110A200A128A15CE000A168A116D
:101A50000A200A128A15CF004F08AF004E08AE00C8
:101A60004D08AD004C08AC000A128A153C210A1240
:101A70008A15831203132B08D3002A08D2002908E1
:101A8000D1002808D0000A30F2000030F3005408DA
:101A9000F400F501F41BF5030A168A15FD250A1258
:101AA0008A15720883120313C60001300310C60D95
:101AB000FF3E031D562D0310460D353E84000A16C9
:101AC0008A110A200A128A15C7000A168A110A20EA
:101AD0000A128A15C8000A168A110A200A128A15E3
:101AE000C9000A168A110A200A128A15CA004A0871
:101AF000AB004908AA004808A9004708A8005308F5
:101B0000AF005208AE005108AD005008AC000A12F8
:101B10008A153C210A128A15831203132B08C5006B
:101B20002A08C4002908C3002808C200FF2F54084F
:101B3000803A753E031C9D2D9E2D262E0A30F20004
:101B40000030F3005408F400F501F41BF5030A1605
:101B50008A15FD250A128A15720883120313C6001E
:101B600001300310C60DFF3E031DB12D0310460DBD
:101B7000353E84000A168A110A200A128A15C70007
:101B80000A168A110A200A128A15C8000A168A1132
:101B90000A200A128A15C9000A168A110A200A1296
:101BA0008A15CA004A08AB004908AA004808A900DB
:101BB0004708A8000A30A0000030A1005408A20085
:101BC000A301A21BA3030A128A1508200A128A1570
:101BD000831203132008CB0001300310CB0DFF3E0E
:101BE000031DED2D03104B0D593E84000A168A117A
:101BF0000A200A128A15CC000A168A110A200A1233
:101C00008A15CD000A168A110A200A128A15CE00FA
:101C10000A168A110A200A128A15CF004F08AF004F
:101C20004E08AE004D08AD004C08AC000A128A15F3
:101C30003C210A128A15831203132B08C5002A08B7
:101C4000C4002908C3002808C200FF2F5408C6009A
:101C500001300310C60DFF3E031D292E0310460D53
:101C6000353E84000A168A110A200A128A15C70016
:101C70000A168A110A200A128A15C8000A168A1141
:101C80000A200A128A15C9000A168A110A200A12A5
:101C90008A15CA004A08C5004908C4004808C3009C
:101CA0004708C200FF2F5408803A123E031C592EE9
:101CB0005A2E442F0A30A0000030A1005408F4002E
:101CC000F501F41BF5036430F2000030F3000A164E
:101CD0008A15FD250A128A15730883120313A300BF
:101CE0007208A2000A128A1508200A128A158312A5
:101CF00003132008C60001300310C60DFF3E031D6C
:101D00007C2E0310460D253E84000A168A110A20F7
:101D10000A128A15C7000A168A110A200A128A15A1
:101D2000C8000A168A110A200A128A15C9000A1662
:101D30008A110A200A128A15CA004A08AB0049080B
:101D4000AA004808A9004708A8006430A000003095
:101D5000A1005408A200A301A21BA3030A128A1522
:101D600008200A128A15831203132008CB000130C1
:101D70000310CB0DFF3E031DB82E03104B0D493E43
:101D800084000A168A110A200A128A15CC000A1643
:101D90008A110A200A128A15CD000A168A110A2011
:101DA0000A128A15CE000A168A110A200A128A150A
:101DB000CF004F08AF004E08AE004D08AD004C08F4
:101DC000AC000A128A153C210A128A1583120313E9
:101DD0002B08D3002A08D2002908D1002808D000F7
:101DE0000A30F2000030F3005408F400F501F41B4F
:101DF000F5030A168A15FD250A128A157208831240
:101E00000313C60001300310C60DFF3E031D032F50
:101E10000310460D013E84000A168A110A200A1298
:101E20008A15C7000A168A110A200A128A15C800E4
:101E30000A168A110A200A128A15C9000A168A117E
:101E40000A200A128A15CA004A08AB004908AA00EB
:101E50004808A9004708A8005308AF005208AE0080
:101E60005108AD005008AC000A128A153C210A1234
:101E70008A15831203132B08C5002A08C4002908F9
:101E8000C3002808C200FF2F5408803A753E031C87
:101E90004A2F4B2FD32F0A30F2000030F3005408A2
:101EA000F400F501F41BF5030A168A15FD250A1244
:101EB0008A15720883120313C60001300310C60D81
:101EC000FF3E031D5E2F0310460D013E84000A16DF
:101ED0008A110A200A128A15C7000A168A110A20D6
:101EE0000A128A15C8000A168A110A200A128A15CF
:101EF000C9000A168A110A200A128A15CA004A085D
:101F0000AB004908AA004808A9004708A8000A3001
:101F1000A0000030A1005408A200A301A21BA3034B
:101F20000A128A1508200A128A1583120313200840
:101F3000CB0001300310CB0DFF3E031D9A2F031081
:101F40004B0D253E84000A168A110A200A128A15B2
:101F5000CC000A168A110A200A128A15CD000A1628
:101F60008A110A200A128A15CE000A168A110A203E
:101F70000A128A15CF004F08AF004E08AE004D0878
:101F8000AD004C08AC000A128A153C210A128A15D1
:101F9000831203132B08C5002A08C4002908C300B4
:101FA0002808C200FF2F5408C60001300310C60DD8
:101FB000FF3E031DD62F0310460D013E84000A1676
:101FC0008A110A200A128A15C7000A168A110A20E5
:101FD0000A128A15C8000A168A110A200A128A15DE
:101FE000C9000A168A110A200A128A15CA004A086C
:101FF000C5004908C4004808C3004708C2000800DB
:10200000FF1B0A2883137F1883170008840A03190B
:10201000FF0A080010308A000408840A820700348E
:102020000034003480343F340034003420344134F0
:1020300000340034C8344234003400347A34443438
:10204000003440341C34463400345034C3344734F4
:1020500000342434743449348034963418344B3486
:102060002034BC34BE344C3428346B346E344E349B
:10207000F934023415345034EC347834AD346034EF
:10208000CA34F234493471340034003480343F347B
:10209000CD34CC34CC343D340A34D73423343C34BE
:1020A0006F34123483343A341734B734D13438347B
:1020B000AC34C53427343734BD3437348634353402
:1020C0009534BF34D63433347734CC342B34323473
:1020D0005F34703489343034FF34E634DB342E34EA
:1020E0000834E5343C341E3460344234A2340D34B8
:1020F00001340034003400340A3400340034003435
:102100006434003400340034E834033400340034E0
:102110001034273400340034A034863401340034C1
:10212000403442340F3400348034963498340034D0
:102130000034E134F53405340034CA349A343B3485
:1021400048346F346C34613420344D3475346E341B
:1021500064346F34003425342E3432346634003421
:0621600025346434003454
:10217000031083120313570D580DD9005908DF00BF
:102180005F08031DC428C528CE280030D8000030C1
:10219000D7000030D6000030D50033295508D900CB
:1021A0005608DA005708DB005808DC001F3003101F
:1021B000DC0CDB0CDA0CD90CFF3E031DD7285908C8
:1021C000DD005D08DE00D717FF30D505FF30D605EE
:1021D000FF30D7050030D8059630DF02DF1FF12829
:1021E000F2280C295F08803A973E0318F828F9284E
:1021F000FA28C52801300310D80CD70CD60CD50C02
:10220000FF3E031DFB280130D9005908DF07031DDD
:102210000A290B29FA28232920305F02031C1129DF
:1022200012291E29C5280130D9000310D50DD60D5D
:10223000D70DD80DD90B15290130DF025F08031D1A
:102240002229232913295E0803192729282933293C
:10225000D509D609D709D809D50A0319D60A031909
:10226000D70A0319D80A080083120313A000200814
:1022700003193B293C295029F51F3F2940295029A2
:102280007209A2007309A3007409A4007509A500CE
:10229000A20A0319A30A0319A40A0319A50A5829B3
:1022A0007508A5007408A4007308A3007208A200B2
:1022B0007508740473047204031D5F296029692979
:1022C0000030F5000030F4000030F3000030F20080
:1022D000EF299630F6007608A1007B290130F60040
:1022E0007608A10701300310A50CA40CA30CA20CC6
:1022F000FF3E031D7329FE302505031D802981291A
:102300006E299D290130F6007608A1070130A20749
:10231000003003180130A307003003180130A40770
:10232000003003180130A50701300310A50CA40CE0
:10233000A30CA20CFF3E031D9529FF302505031DAC
:10234000A229A3298229AF290130A1020130F60078
:102350000310A20DA30DA40DA50DF60BA829A41B17
:10236000B229B329B929023021020318B829B929A1
:10237000A4292118BC29BD29C529FF30A205FF3099
:10238000A3057F30A405FF30A5050310A10C21088B
:10239000F600F701F801F90118300310F60DF70DFA
:1023A000F80DF90DFF3E031DCD297608A20477082C
:1023B000A3047808A4047908A50420080319E129D6
:1023C000E229E729F51FE529E629E729A5172508C8
:1023D000F5002408F4002308F3002208F2000800A6
:1023E000720883120313A0007308A1007408A200EE
:1023F0000310210D220DA3002308A9002908031DA5
:10240000022A032A0C2A0030F5000030F4000030C4
:10241000F3000030F200AC2A7608A0007708A10093
:102420007808A2000310210D220DA3002308A800A4
:102430002808031D1C2A1D2A1E2A032AF317FF3011
:10244000F205FF30F3050030F405F717FF30F6050D
:10245000FF30F7050030F8050030A7000030A60077
:102460000030A5000030A4007F30A9029830280772
:10247000A0002008A9021830A0002008A800013000
:10248000A0000310A40DA50DA60DA70DA00B412AB9
:1024900078087402031D522A77087302031D522A1A
:1024A00076087202031C552A562A612A7608F2021F
:1024B0007708031C770FF3027808031C780AF402EC
:1024C000241401300310F20DF30DF40DFF3E031D33
:1024D000622A0130A802031D6E2A6F2A3F2AA91F13
:1024E000722A732A8D2A2908803A973E0318792A7E
:1024F0007A2A7B2A032A01300310A70CA60CA50C0C
:10250000A40CFF3E031D7C2A0130A0002008A9076F
:10251000031D8B2A8C2A7B2AA42A18302902031C2B
:10252000922A932A9F2A032A0130A0000310A40DA7
:10253000A50DA60DA70DA00B962A0130A90229080A
:10254000031DA32AA42A942A2708F5002608F400CC
:102550002508F3002408F20008000310740D750D1F
:10256000FA007A0883120313A5002508031DB92A6F
:10257000BA2AC32A0030F5000030F4000030F3001E
:102580000030F2006A2B0310780D790DFA007A08FA
:10259000A4002408031DCD2ACE2ACF2ABA2AF41774
:1025A000FF30F205FF30F305FF30F4050030F5058C
:1025B000F817FF30F605FF30F705FF30F80500305B
:1025C000F9050030A3000030A2000030A100003067
:1025D000A0007F30A502A0302407FA007A08A502E7
:1025E0002030FA007A08A4000130FA000310A00D90
:1025F000A10DA20DA30DFA0BF62A79087502031D91
:102600000B2B78087402031D0B2B77087302031D34
:102610000B2B76087202031C0E2B0F2B1E2B760839
:10262000F2027708031C770FF3027808031C780F77
:10263000F4027908031C790FF50220140130FA0026
:102640000310F20DF30DF40DF50DFA0B202B0130F4
:10265000A402031D2C2B2D2BF42AA51F302B312B6C
:102660004B2B2508803A9F3E0318372B382B392BEC
:10267000BA2A01300310A30CA20CA10CA00CFF3E3F
:10268000031D3A2B0130FA007A08A507031D492BD8
:102690004A2B392B622B20302502031C502B512B47
:1026A0005D2BBA2A0130FA000310A00DA10DA20D76
:1026B000A30DFA0B542B0130A5022508031D612B35
:1026C000622B522B2308F5002208F4002108F300A6
:1026D0002008F200080083120313D5006E30550263
:1026E000031C732B742B832C3F30AB000030AA00EB
:1026F0000030A9000030A8006430A0000030A10024
:102700005508C600C7014608A2004708A3000A16DC
:102710008A1572240A168A11831203132008C8002E
:1027200001300310C80DFF3E031D912B0310480D0F
:102730007D3E84000A168A110A200A168A11C900F1
:102740000A168A110A200A168A11CA000A168A1164
:102750000A200A168A11CB000A168A110A200A16C4
:102760008A11CC004C08AF004B08AE004A08AD00FF
:102770004908AC000A128A153C210A168A118312F4
:1027800003132B08D4002A08D3002908D2002808F4
:10279000D1000A30A0000030A1005508C600C701D2
:1027A0004608F4004708F5006430F2000030F300FA
:1027B0000A168A15F2230A168A1173088312031364
:1027C000A3007208A2000A168A1572240A168A113A
:1027D000831203132008C80001300310C80DFF3E08
:1027E000031DED2B0310480D593E84000A168A1173
:1027F0000A200A168A11C9000A168A110A200A1626
:102800008A11CA000A168A110A200A168A11CB00F8
:102810000A168A110A200A168A11CC004C08AB004D
:102820004B08AA004A08A9004908A8005408AF00AC
:102830005308AE005208AD005108AC000A128A15C8
:102840003C210A168A11831203132B08D0002A0890
:10285000CF002908CE002808CD000A30F200003051
:10286000F3005508C600C7014608F4004708F50004
:102870000A168A15F2230A168A11720883120313A4
:10288000C80001300310C80DFF3E031D422C031089
:10289000480D353E84000A168A110A200A168A114C
:1028A000C9000A168A110A200A168A11CA000A16D5
:1028B0008A110A200A168A11CB000A168A110A20E8
:1028C0000A168A11CC004C08AB004B08AA004A0833
:1028D000A9004908A8005008AF004F08AE004E08F4
:1028E000AD004D08AC000A128A153C210A168A1167
:1028F000831203132B08C5002A08C4002908C3004B
:102900002808C200772D0B305502031C882C892C17
:10291000342D3F30AB000030AA000030A900003059
:10292000A8000A30A0000030A1005508C600C70169
:102930004608A2004708A3000A168A1572240A1640
:102940008A11831203132008C80001300310C80D38
:10295000FF3E031DA62C0310480D593E84000A16A5
:102960008A110A200A168A11C9000A168A110A2039
:102970000A168A11CA000A168A110A200A168A1132
:10298000CB000A168A110A200A168A11CC004C08BC
:10299000AF004B08AE004A08AD004908AC000A126F
:1029A0008A153C210A168A11831203132B08D400BE
:1029B0002A08D3002908D2002808D1000A30F200E2
:1029C0000030F3005508C600C7014608F400470868
:1029D000F5000A168A15F2230A168A117208831264
:1029E0000313C80001300310C80DFF3E031DF32C74
:1029F0000310480D353E84000A168A110A200A1673
:102A00008A11C9000A168A110A200A168A11CA00F8
:102A10000A168A110A200A168A11CB000A168A1190
:102A20000A200A168A11CC004C08AB004B08AA00F9
:102A30004A08A9004908A8005408AF005308AE008E
:102A40005208AD005108AC000A128A153C210A1642
:102A50008A11831203132B08C5002A08C400290811
:102A6000C3002808C200772D3F30AB000030AA0019
:102A70000030A9000030A8005508C600013003103E
:102A8000C60DFF3E031D3F2D0310460D353E84004D
:102A90000A168A110A200A168A11C7000A168A1114
:102AA0000A200A168A11C8000A168A110A200A1674
:102AB0008A11C9000A168A110A200A168A11CA0048
:102AC0004A08AF004908AE004808AD004708AC000E
:102AD0000A128A153C210A168A11831203132B0845
:102AE000C5002A08C4002908C3002808C20008003D
:102AF0008312031359088039DE005E08E600590886
:102B0000DE005E07DF005F08E800D81F882D892DF2
:102B10008A2D6814680803198E2D8F2D9F2D680A41
:102B2000031D932D942D9C2D0030D9000030D8002A
:102B30000030D7000030D600D817D901A72D0030BB
:102B4000D9000030D8000030D7000030D6005D0832
:102B50008039DE005E08E700670866060319B12DBC
:102B6000B22DB32D66175D08DE005E07DF005F083B
:102B7000E700DC1FBC2DBD2DBE2D671467080319AF
:102B8000C22DC32DD32D670A031DC72DC82DD02DEF
:102B90000030DD000030DC000030DB000030DA0007
:102BA000DC17DD01DB2D0030DD000030DC00003003
:102BB000DB000030DA00680867020318E02DE12D21
:102BC000252E661FE42DE52DE92D8030DE005E0800
:102BD000E6066808DE005E08E9006708DE005E08B9
:102BE000E8006908DE005E08E7005608DE005E08BF
:102BF000E9005A08DE005E08D6006908DE005E08BB
:102C0000DA005708DE005E08E9005B08DE005E08B7
:102C1000D7006908DE005E08DB005808DE005E08A9
:102C2000E9005C08DE005E08D8006908DE005E0886
:102C3000DC005908DE005E08E9005D08DE005E0881
:102C4000D9006908DE005E08DD00E9016708DE00E2
:102C5000DF015F08E10068085E02E000031CE10399
:102C60006108803AFF0080307F02031D392E1A3040
:102C70006002031C3C2E3D2E7A2E8312031359084A
:102C8000580457045604031D462E482E0130492E81
:102C90000030DE005E08E9000030D9000030D800C6
:102CA0000030D7000030D6006708DE005E08E8007C
:102CB000822E691C5C2E5D2E662E6908DE000310D4
:102CC0005E0C0138DF005F08E900682E0310E90C94
:102CD000561C6B2E6C2E6D2EE9170130DE00590D3F
:102CE000D90CD80CD70CD60CDE0B6F2E0130DE00C1
:102CF0005E08E8078312031367086802031C812E2D
:102D0000822E592E661B852E862ED12E6808031D15
:102D10008A2E8B2E942E0030D9000030D80000303F
:102D2000D7000030D600FF2F5A08D6075B080311E2
:102D30000318013E03199D2ED7075C0803110318E1
:102D4000013E0319A42ED8075D0803110318013EA4
:102D50000319AB2ED907591CAE2EAF2E852F691C37
:102D6000B22EB32EBC2E6908DE0003105E0C0138B3
:102D7000DF005F08E900BE2E0310E90C561CC12ECF
:102D8000C22EC32EE9170130DE00590DD90CD80C24
:102D9000D70CD60CDE0BC52E0130DE005E08E8072E
:102DA000852F5908803AFF005D08803A7F02031D95
:102DB000E32E5C085802031DE32E5B085702031D37
:102DC000E32E5A0856020318E62EE72E3F2FFF3057
:102DD000DE00FF30DF00FF30E000FF30E1005A0886
:102DE000E2005B08E3005C08E4005D08E5005608CB
:102DF000E2025708031C570FFE2EFF2EE30258086D
:102E0000031C580F042F052FE4025908031C590F07
:102E10000A2F0B2FE5026208DE0763080318630F11
:102E2000122F132FDF0764080318640F182F192FB0
:102E3000E00765080318650AE1076108D900600822
:102E4000D8005F08D7005E08D6008030DE005E083C
:102E5000E606E909E90A6908031D2F2F302F4D2FD7
:102E60000130D607003003180130D70700300318AF
:102E70000130D807003003180130D9074D2F5A0808
:102E8000D6025B08031C5B0FD7025C08031C5C0FB7
:102E9000D8025D08031C5D0FD90259085804570475
:102EA0005604031D542F552F812F6908031D592FD8
:102EB0005A2F812F0030D9000030D8000030D700C1
:102EC0000030D600FF2F0130DE000310D60DD70DE5
:102ED000D80DD90DDE0B652FE91F6F2F702F712FC5
:102EE0005614691C742F752F782F0314E90D7A2F4F
:102EF0000310E90D680803197E2F7F2F812F013001
:102F0000E802D81F842F852F632FE701E91F892F3F
:102F10008A2F982F69087F3903198F2F902F932FAD
:102F2000E701E70A982F561C962F972F982F902F7E
:102F3000670803199C2F9D2FD12F0130D607003031
:102F400003180130D707003003180130D8070030CC
:102F500003180130D907591CAE2FAF2FD12F5608B7
:102F6000DE005708DF005808E0005908E100013092
:102F7000E200610DE10CE00CDF0CDE0CE20BB92F7E
:102F80006108D9006008D8005F08D7005E08D60045
:102F9000680A0319CC2FCD2FD12F0130DE005E0837
:102FA000E807680A0319D52FD62FDB2F6808031D01
:102FB000DA2FDB2FE92F0030D9000030D8000030A5
:102FC000D7000030D6006808031DE72FE82FE92F4F
:102FD000E601681CEC2FED2FEF2FD817F32F7F3071
:102FE000DE005E08D8056808DE0003105E0CDF0016
:102FF0005F08D900E61FFD2FFE2FFF2FD91708000D
:10360C00750874047304720403190D2B0E2B102B04
:10361C008030F5060800F300F2013A30730203180B
:10362C00182B192B212B30307302031C1E2B1F2B34
:10363C00212BF201F20A720C0800F400831203131E
:10364C0006137408880086170630F3003030F20039
:10365C00F20B2E2BF30B2E2B00008312031386136D
:10366C000800F400831203130617740888008617E9
:10367C000630F3003030F200F20B422BF30B422BEE
:10368C00000083120313861308008B130B13831291
:10369C0003139F18522B532B5A2B83160313DF0142
:1036AC00DF0A831203130C138B170B1771088A0094
:1036BC00700E8300FE0E7E0E0900F6007503031DCE
:1036CC00682B692B702B76087F3E0A168A152323EC
:1036DC000A168A1502307506031D752B762B7D2B69
:1036EC007608BF3E0A168A1523230A168A15080087
:1036FC00F601F701721C832B842B8A2B7408F607B6
:10370C000318F70A7508F70701300310F40DF50DCF
:10371C00FF3E031D8B2B01300310F30CF20CFF3E0C
:10372C00031D922B72087304031D9D2B9E2B802B63
:10373C007708F3007608F2000800FA00F601F701AA
:10374C007208F400F5017408F8007508F9007A1C89
:10375C00B02BB12BB72B7808F6070318F70A7908AA
:10376C00F70701300310F80DF90DFF3E031DB82BC0
:10377C000310FA0C7A08031DC42BC52BAD2B77084C
:10378C00F3007608F200080083160313C900A13079
:10379C00C600460883120313EA0083160313490874
:1037AC00C700C801470883120313EB0083160313E9
:1037BC00480883120313EC00CA300A128A11202025
:1037CC000A168A15CA30F5000030F6000A168A155A
:1037DC002C240A168A150800720873040319F72B97
:1037EC00F82B272CF701F70A062C01300310F20DE9
:1037FC00F30DFF3E031DFC2B0130F6007608F70796
:10380C00F31F092C0A2CFB2B73087502031D102CBB
:10381C0072087402031C132C142C1A2C7208F40258
:10382C007308031CF503F50201300310F30CF20CC2
:10383C00FF3E031D1B2C0130F702031D262C272CE9
:10384C000A2C7508F3007408F200080083120313A5
:10385C00A001A101552C20087507F8007608F70087
:10386C000318F70AA01F3B2CF7037708F900790817
:10387C0083120313FF00780884000A168A110020B3
:10388C000A168A150A168A1537230A168A15013064
:10389C0083120313A0070318A10A0030A107200804
:1038AC007507F8007608F7000318F70AA01F5F2CBD
:1038BC00F7037708F900790883120313FF007808DF
:1038CC0084000A168A1100200A168A15003A031D74
:1038DC00702C712C312C080083120313A501A60146
:1038EC002008210403197B2C7C2CB32CA401A40AE2
:1038FC008A2C01300310A00DA10DFF3E031D802C5E
:10390C000130F8007808A407A11F8D2C8E2C7F2C79
:10391C0001300310A50DA60DFF3E031D8F2C2108B1
:10392C002302031D9B2C20082202031C9E2C9F2C7F
:10393C00A62C2008A2022108031CA303A302251411
:10394C0001300310A10CA00CFF3E031DA72C01306D
:10395C00A402031DB22CB32C8E2C2608A100250822
:10396C00A00008001430F6007930F500F50BBC2CE3
:10397C00F60BBC2CC12C30300A168A1523230A16E0
:10398C008A150730F6007D30F500F50BCB2CF60BC5
:10399C00CB2C30300A168A1523230A168A150F30C1
:1039AC00F6004730F500F50BD92CF60BD92CDE2C94
:1039BC0030300A168A1523230A168A153530F5007D
:1039CC00F50BE62C38300A168A1523230A168A15AD
:1039DC0010300A168A1523230A168A1501300A1686
:1039EC008A1523230A168A1506300A168A152323EC
:1039FC000A168A150C300A168A1523230A168A15FC
:103A0C0008000030720583120313A0000030730508
:103A1C00A10080307405A2007F307505A300230837
:103A2C00220421042004031D1C2D1D2D252D0030E6
:103A3C00F5000030F4000030F3000030F2000030EC
:103A4C007605A00000307705A10080307805A20033
:103A5C007F307905A3002308220421042004031DD0
:103A6C00382D392D412D0030F9000030F800003090
:103A7C00F7000030F60079087506031D4F2D780805
:103A8C007406031D4F2D77087306031D4F2D760802
:103A9C0072060319522D532D552D0310562D031458
:103AAC000800803083160313A30627088312031320
:103ABC00D90083160313260883120313D800831628
:103ACC000313250883120313D7008316031324084A
:103ADC0083120313D60083160313230883120313D4
:103AEC00DD0083160313220883120313DC008316F4
:103AFC000313210883120313DB008316031320081E
:103B0C0083120313DA000A168A1178250A168A150D
:103B1C0083120313590883160313A3008312031390
:103B2C00580883160313A200831203135708831635
:103B3C000313A10083120313560883160313A0006A
:103B4C0008008312031328082704260425040319EC
:103B5C00B02DB12DF42DAE01AE0AC12D0130AD004A
:103B6C000310A50DA60DA70DA80DAD0BB62D01309C
:103B7C00AD002D08AE07A81FC42DC52DB42D2808E7
:103B8C002C02031DD32D27082B02031DD32D260831
:103B9C002A02031DD32D25082902031CD62DD72D4F
:103BAC00E52D2508A9022608031C260FAA022708C2
:103BBC00031C270FAB022808031C280FAC02013092
:103BCC000310A80CA70CA60CA50CFF3E031DE62D9C
:103BDC000130AE02031DF32DF42DC52D2C08A800C9
:103BEC002B08A7002A08A6002908A5000800F80140
:103BFC00F51F012E022E092EF409F509F40A0319FA
:103C0C00F50AF801F80AF31F0C2E0D2E122EF209EC
:103C1C00F309F20A0319F30A720873040319172E35
:103C2C00182E472EF701F70A262E01300310F20D3D
:103C3C00F30DFF3E031D1C2E0130F6007608F7072E
:103C4C00F31F292E2A2E1B2E73087502031D302EEE
:103C5C0072087402031C332E342E3A2E7208F402AE
:103C6C007308031CF503F50201300310F30CF20C7E
:103C7C00FF3E031D3B2E0130F702031D462E472E3F
:103C8C002A2E780803194B2E4C2E512EF409F509C7
:103C9C00F40A0319F50A7508F3007408F200080019
:103CAC00003083120313A3000030A2000030A100E7
:103CBC000030A00075087404730472040319672E95
:103CCC00682EB52EA401A40A782E0130FA00031038
:103CDC00F20DF30DF40DF50DFA0B6D2E0130FA000B
:103CEC007A08A407F51F7B2E7C2E6B2E0130FA0070
:103CFC000310A00DA10DA20DA30DFA0B7E2E7508BD
:103D0C007902031D932E74087802031D932E7308F9
:103D1C007702031D932E72087602031C962E972EA3
:103D2C00A62E7208F6027308031C730FF7027408B0
:103D3C00031C740FF8027508031C750FF90220148C
:103D4C0001300310F50CF40CF30CF20CFF3E031DC8
:103D5C00A72E0130A402031DB42EB52E7C2E2308F1
:103D6C00F5002208F4002108F3002008F2000800F6
:103D7C00F4008B170B17831603130C178312031302
:103D8C000C139F131F171F141B2F9F121F129F1111
:103D9C001F11552F9F121F129F111F15552F9F1268
:103DAC001F129F151F11552F9F121F129F151F15A4
:103DBC00552F9F121F169F111F11552F9F121F1643
:103DCC009F111F15552F9F121F169F151F11552F31
:103DDC009F121F169F151F15552F9F161F129F11EF
:103DEC001F11552F9F161F129F111F15552F9F1610
:103DFC001F129F151F11552F9F161F129F151F1550
:103E0C00552F9F161F169F111F11552F9F161F16EA
:103E1C009F111F15552F9F161F169F151F11552FDC
:103E2C009F161F169F151F15552F7408F200F301CE
:103E3C007308003A0319232F552F7208003A0319FF
:103E4C00CB2E013A0319D02E033A0319D52E013A81
:103E5C000319DA2E073A0319DF2E013A0319E42E5F
:103E6C00033A0319E92E013A0319EE2E0F3A0319FE
:103E7C00F32E013A0319F82E033A0319FD2E013AD9
:103E8C000319022F073A0319072F013A03190C2FB4
:103E9C00033A0319112F013A0319162F552F8316C4
:103EAC0003139F01831203139F1408000030720543
:103EBC0083120313A00000307305A1008030740539
:103ECC00A2007F307505A3002308220421042004DE
:103EDC00031D712F722F7A2F0030F5000030F40083
:103EEC000030F3000030F20000307605A000003006
:103EFC007705A10080307805A2007F307905A300FA
:103F0C002308220421042004031D8D2F8E2F962FAD
:103F1C000030F9000030F8000030F7000030F600F7
:103F2C00F51F992F9A2FBE2F0030A0000030A10052
:103F3C000030A2008030A3007208A0027308031C9A
:103F4C00730FA92FAA2FA1027408031C740FAF2F93
:103F5C00B02FA2027508031C750FB52FB62FA30244
:103F6C002308F5002208F4002108F3002008F200D1
:103F7C00F91FC12FC22FE62F0030A0000030A10086
:103F8C000030A2008030A3007608A0027708031C42
:103F9C00770FD12FD22FA1027808031C780FD72FBF
:103FAC00D82FA2027908031C790FDD2FDE2FA30274
:103FBC002308F9002208F8002108F7002008F60071
:103FCC008030F5068030F90679087502031DF82F4C
:103FDC0078087402031DF82F77087302031DF82F5D
:103FEC00760872020318FB2FFC2FFE2F0310FF2FF5
:043FFC0003140800A2
:04400E00D4E0FFFFFC
:00000001FF
