:020000040000FA
:060000000A128A110C280F
:10000800FE00030EF1000A08F2000A168A113D2FBD
:100018000A128A110F28F801F901FA018312031351
:10002800EC01ED01EE018313A0308400B0300A1614
:100038008A11F2260A128A1183010A128A112428C7
:100048000330831603138500860187018801033076
:10005800831603178800831203138501860187011D
:1000680088010A128A1500210A128A118030F300C9
:100078002530F4000A128A1531200A128A110A164C
:100088008A11EB260A128A11F601F60A01300A16BD
:100098008A1122270A128A110B30F6008030F700E5
:1000A8000A128A1574200A128A11F601F60A073014
:1000B8000A168A1122270A128A111130F600803096
:1000C800F7000A128A1574200A128A11F601F60A34
:1000D8000D300A168A1122270A128A111730F600E3
:1000E8008030F7000A128A1574200A128A1100302B
:1000F8000A128A154F210A128A11831203136E08F5
:10010800031987288828AB281E0883160313B00014
:10011800B101B201B3013308F6003208F500310825
:10012800F4003008F30000300A128A15ED210A1293
:100138008A11760883160313AF007508AE00740899
:10014800AD007308AC0083120313EE019F14433013
:10015800D5007F30D4000030D3000030D2004030CA
:10016800BB00A030BA000030B9000030B8008316D8
:1001780003132F0883120313BF00831603132E08DB
:1001880083120313BE00831603132D08831203136F
:10019800BD00831603132C0883120313BC000A1234
:1001A8008A1117240A128A11831203133B08D900F3
:1001B8003A08D8003908D7003808D6000A128A1534
:1001C80093230A128A118312031355088316031303
:1001D800AF0083120313540883160313AE0083126F
:1001E8000313530883160313AD0083120313520835
:1001F80083160313AC002F08F6002E08F5002D080F
:10020800F4002C08F3000A128A1178270A128A11BE
:10021800730883160313B000300883120313ED002C
:100228004230BB00C830BA000030B9000030B80016
:100238006D0883160313B000B101B201B30133088E
:10024800F6003208F5003108F4003008F3000130F8
:100258000A128A15ED210A128A11760883120313ED
:10026800B3007508B2007408B1007308B0008316B3
:1002780003132F0883120313B700831603132E08E2
:1002880083120313B600831603132D088312031376
:10029800B500831603132C0883120313B4000A163F
:1002A8008A1177270A128A11831203133308BF00B1
:1002B8003208BE003108BD003008BC000A128A119D
:1002C80017240A128A11831203133B088316031397
:1002D800A700831203133A0883160313A600831298
:1002E8000313390883160313A50083120313380870
:1002F80083160313A4002708F6002608F50025082E
:10030800F4002408F3000A128A1178270A128A11C5
:10031800730883160313B0003008FA00831203131E
:100328006D0883160313B000B1013008F3003108DB
:10033800F4000A128A11F4270A128A11023083166D
:100348000313B0003008F60001300A168A1122277C
:100358000A128A11831203136D080A168A11592783
:100368000A128A112E300A168A110E270A128A11C9
:100378000A307A02031CC129C229E0297A080A1620
:100388008A1159270A128A117A0883160313B000B2
:10039800B1013008F3003108F4000A128A11F42779
:1003A8000A128A112030F6008030F7000A128A15E6
:1003B80074200A128A110E2A1E30F6008030F700C7
:1003C8000A128A1574200A128A110030F300F40008
:1003D8000A128A11F4270A128A117A080A168A114F
:1003E80059270A128A117A0883160313B000B1013B
:1003F8003008F3003108F4000A128A11F4270A12AF
:100408008A112030F6008030F7000A128A1574200D
:100418000A128A111A3083160313B100F730B0009C
:10042800B00B142AB10B142A192A01300A128A15A2
:100438004F210A128A11831203136E080319252A01
:10044800262A492A1E0883160313B000B101B201F7
:10045800B3013308F6003208F5003108F40030081B
:10046800F30000300A128A15ED210A128A11760863
:1004780083160313AB007508AA007408A900730853
:10048800A80083120313EE019F144330D5007F3078
:10049800D4000030D3000030D2004030BB00A03080
:1004A800BA000030B9000030B800831603132B08D7
:1004B80083120313BF00831603132A08831203133E
:1004C800BE0083160313290883120313BD00831685
:1004D8000313280883120313BC000A128A11172475
:1004E8000A128A11831203133B08D9003A08D8006C
:1004F8003908D7003808D6000A128A1593230A1239
:100508008A1183120313550883160313AB00831251
:100518000313540883160313AA0083120313530802
:1005280083160313A90083120313520883160313B7
:10053800A8002B08F6002A08F5002908F400280866
:10054800F3000A128A1178270A128A11730883168F
:100558000313B000300883120313EC004230BB00D1
:10056800C830BA000030B9000030B8006C088316F3
:100578000313B000B101B201B3013308F600320829
:10058800F5003108F4003008F30001300A128A152A
:10059800ED210A128A11760883120313B300750835
:1005A800B2007408B1007308B000831603132B0857
:1005B80083120313B700831603132A088312031345
:1005C800B60083160313290883120313B500831694
:1005D8000313280883120313B4000A168A11772715
:1005E8000A128A11831203133308BF003208BE00AF
:1005F8003108BD003008BC000A128A1117240A12FB
:100608008A11831203133B0883160313A300831272
:1006180003133A0883160313A2008312031339083D
:1006280083160313A10083120313380883160313D8
:10063800A0002308F6002208F5002108F40020088D
:10064800F3000A128A1178270A128A11730883168E
:100658000313B0003008F900831203136C088316E3
:100668000313B000B1013008F3003108F4000A1296
:100678008A11F4270A128A11023083160313B00074
:100688003008F60007300A168A1122270A128A1142
:10069800831203136C080A168A1159270A128A1141
:1006A8002E300A168A110E270A128A110A30790288
:1006B800031C5F2B602B7E2B79080A168A11592799
:1006C8000A128A11790883160313B000B1013008A1
:1006D800F3003108F4000A128A11F4270A128A1169
:1006E8002030F6008030F7000A128A1574200A12AA
:1006F8008A11AC2B1E30F6008030F7000A128A15DA
:1007080074200A128A110030F300F4000A128A11C8
:10071800F4270A128A1179080A168A1159270A1227
:100728008A11790883160313B000B1013008F30069
:100738003108F4000A128A11F4270A128A112030AB
:10074800F6008030F7000A128A1574200A128A11FE
:100758001A3083160313B100F730B000B00BB22B78
:10076800B10BB22BB72B64307802031CBC2BBD2B0A
:10077800D02B023083160313B0003008F6000D307A
:100788000A168A1122270A128A1178080A168A116B
:1007980059270A128A117B28643078020318D52B4E
:1007A800D62BF52B0A307802031CDB2BDC2BF52B20
:1007B800023083160313B0003008F6000D300A1615
:1007C8008A1122270A128A1130300A168A110E2736
:1007D8000A128A1178080A168A1159270A128A11E8
:1007E8007B28023083160313B0003008F6000D3062
:1007F8000A168A1122270A128A1130300A168A111B
:100808000E270A128A1130300A168A110E270A1288
:100818008A1178080A168A1159270A128A117B2820
:100828000A128A110C28831203133B088039C0006E
:100838004008C5003B08C0004007C1004108CB0084
:10084800BA1F272C282C292C4B144B0803192D2CA4
:100858002E2C3D2C4B0A031D322C332C3B2C003004
:10086800BB000030BA000030B9000030B800BA1739
:10087800452C0030BB000030BA000030B900003011
:10088800B8003F088039C0004008C5063F08C000CE
:100898004007C1004108CA00BE1F532C542C552CD8
:1008A8004A144A080319592C5A2C692C4A0A031D60
:1008B8005E2C5F2C672C0030BF000030BE0000307B
:1008C800BD000030BC00BE17712C0030BF000030E6
:1008D800BE000030BD000030BC004A080319752C6A
:1008E800762C7B2C4B08031D7A2C7B2C842C003017
:1008F800BB000030BA000030B9000030B800772FD4
:100908003808C0004008F3003E080A168A119B27E1
:100918000A128A11740883120313D1007308D000D5
:100928005008C000C101C201C3014308C900420800
:10093800C8004108C7004008C6005108C000C101EE
:10094800C201C3014308CF004208CE004108CD00D0
:100958004008CC003908C0004008F3003D080A16DA
:100968008A119B270A128A11740883120313D10073
:100978007308D0005008C000C101C201C30140087B
:10098800C607410803110318013E0319CC2CC707F9
:10099800420803110318013E0319D32CC807430862
:1009A80003110318013E0319DA2CC9075108C000C6
:1009B800C101C201C3014008CC0741080311031853
:1009C800013E0319E82CCD07420803110318013E24
:1009D8000319EF2CCE07430803110318013E03192E
:1009E800F62CCF073A08C0004008F3003C080A1666
:1009F8008A119B270A128A11740883120313D100E3
:100A08007308D0005008C000C101C201C3014008EA
:100A1800C607410803110318013E0319142DC7071F
:100A2800420803110318013E03191B2DC807430888
:100A380003110318013E0319222DC9075108C000EC
:100A4800C101C201C3014008CC07410803110318C2
:100A5800013E0319302DCD07420803110318013E4A
:100A68000319372DCE07430803110318013E031954
:100A78003E2DCF070830C0000310C60DC70DC80DA6
:100A8800C90DC00B402D3908C0004008F3003C08D0
:100A98000A168A119B270A128A11740883120313F3
:100AA800D1007308D0005008C0005108C100C2012D
:100AB800C3014008C607410803110318013E031982
:100AC800662DC707420803110318013E03196D2D4F
:100AD800C807430803110318013E0319742DC907F9
:100AE8003808C0004008F3003D080A168A119B2701
:100AF8000A128A11740883120313D1007308D000F4
:100B08005008C0005108C100C201C3014008C6070F
:100B1800410803110318013E0319932DC707420822
:100B280003110318013E03199A2DC807430803113E
:100B38000318013E0319A12DC9070830C00003108E
:100B4800C60DC70DC80DC90DC00BA32D3808C000B0
:100B58004008F3003C080A168A119B270A128A11DA
:100B6800740883120313D1007308D0005008C00022
:100B78005108C100C201C3014008C607410803115A
:100B88000318013E0319C92DC707420803110318AA
:100B9800013E0319D02DC807430803110318013E6D
:100BA8000319D72DC9073908C0004008F3003E08CB
:100BB8000A168A119B270A128A11740883120313D2
:100BC800D1007308D0005008C0005108C100C2010C
:100BD800C3014008CC07410803110318013E03195B
:100BE800F62DCD07420803110318013E0319FD2D08
:100BF800CE07430803110318013E0319042ECF073B
:100C08003A08C0004008F3003D080A168A119B27DD
:100C18000A128A11740883120313D1007308D000D2
:100C28005008C0005108C100C201C3014008CC07E8
:100C3800410803110318013E0319232ECD0742086A
:100C480003110318013E03192A2ECE074308031186
:100C58000318013E0319312ECF073A08C000400897
:100C6800F3003E080A168A119B270A128A11740893
:100C780083120313D1007308D0005008C000510834
:100C8800C100C201C30108300310C00DC10DC20D5F
:100C9800C30DFF3E031D482E4008CC074108031131
:100CA8000318013E0319592ECD07420803110318F2
:100CB800013E0319602ECE07430803110318013EB5
:100CC8000319672ECF074608C0004708C100480827
:100CD800C2004908C30018300310C30CC20CC10C71
:100CE800C00CFF3E031D702E4008CC0741080311BD
:100CF8000318013E0319812ECD074208031103187A
:100D0800013E0319882ECE07430803110318013E3C
:100D180003198F2ECF070830C0000310C60DC70D6A
:100D2800C80DC90DC00B912E4B084A07C000C10160
:100D3800C10D4008823ED00041080318013EFF3E25
:100D4800D100C32E0130C0000310CC0DCD0DCE0D47
:100D5800CF0DC00BA82EC91FB22EB32EB42E4C1423
:100D68000130C0000310C60DC70DC80DC90DC00B5A
:100D7800B62EFF30D0070318D10AFF30D107CE1F97
:100D8800C62EC72EA62ECA01C91FCB2ECC2EE82EE2
:100D9800FF304605C000FF304705C100FF30480559
:100DA800C2007F304905C30043084204410440049F
:100DB8000319DF2EE02EE32ECA01CA0AE82E4C1CC6
:100DC800E62EE72EE82EE02E4A080319EC2EED2E2B
:100DD8001E2F0130CC07003003180130CD0700303A
:100DE80003180130CE07003003180130CF074F1C1D
:100DF800FE2EFF2E1E2F4C08C0004D08C1004E08C5
:100E0800C2004F08C3000130C400430DC30CC20C1C
:100E1800C10CC00CC40B092F4308CF004208CE00F8
:100E28004108CD004008CC000130D0070318D10A92
:100E38000030D1075108803AFF0080307F02031D3F
:100E4800272FFF305002031C2A2F2B2F362F7F30DD
:100E580083120313CF008030CE000030CD00003065
:100E6800CC006B2F831203135108803AFF008030A7
:100E78007F02031D412F013050020318442F452FD4
:100E8800512F003083120313CF000030CE00003002
:100E9800CD000030CC00C5016B2F8312031350081E
:100EA800C0004008CB00FF30CC05FF30CD057F30B7
:100EB800CE050030CF054B1C622F632F642FCE1751
:100EC8004B08C0000310400CC1004108CF00450882
:100ED800C0004008CF044F08BB004E08BA004D08B8
:100EE800B9004C08B80008000310750D760D831280
:100EF8000313A0002008A6002608031D842F852FB1
:100F08008E2F0030F6000030F5000030F40000307D
:100F1800F300F32F7308A0007408A1007508A2005D
:100F28007608A3001F300310A30CA20CA10CA00C80
:100F3800FF3E031D972F2008A4002408A500F517DD
:100F4800FF30F305FF30F405FF30F5050030F605F6
:100F58009630A602A61FB12FB22FCC2F2608803AB2
:100F6800973E0318B82FB92FBA2F852F01300310D9
:100F7800F60CF50CF40CF30CFF3E031DBB2F0130EF
:100F8800A0002008A607031DCA2FCB2FBA2FE32FD6
:100F980020302602031CD12FD22FDE2F852F0130BF
:100FA800A0000310F30DF40DF50DF60DA00BD52FD1
:100FB8000130A6022608031DE22FE32FD32F2508B0
:100FC8000319E72FE82FF32FF309F409F509F609B8
:100FD800F30A0319F40A0319F50A0319F60A0800B3
:100FE80083160313981CF92FFA2FF42F7308831212
:060FF8000313990008003C
:10100000FF1B0A2883137F1883170008840A03191B
:10101000FF0A080008308A000408840A82070034A6
:10102000013400340A34003464340034E8340334C6
:101030001034273450344F34543430343134003485
:1010400050344F3454343034323400345434543403
:101050004C34003425346434003430340034563495
:10106000003480308316031387008C1226309800DA
:10107000903083120313980083160317871580306E
:101080007306253003197406031D472848284D2888
:1010900067308316031399007328B1307306283024
:1010A00003197406031D552856285B285F308316E4
:1010B0000313990073284B3074067304031D6128D1
:1010C0006228672833308316031399007328E130B0
:1010D00074067304031D6D286E2873281030831660
:1010E000031399007328080083120313A301A401BA
:1010F0009D2823087607A1007708A0000318A00AFE
:10110000A31F8328A003831203132008A200220830
:10111000FF00210884000A128A1500200A128A158D
:101120000A168A110E270A128A1501308312031338
:10113000A3070318A40A0030A40723087607A10018
:101140007708A0000318A00AA31FA728A0038312F2
:1011500003132008A2002208FF00210884000A12BD
:101160008A1500200A128A15003A031DB828B928EA
:101170007928080083120313A101A20173087404E3
:101180000319C328C428FB28A001A00AD2280130D3
:101190000310F30DF40DFF3E031DC8280130F700C6
:1011A0007708A007F41FD528D628C72801300310D8
:1011B000A10DA20DFF3E031DD72874087602031D62
:1011C000E32873087502031CE628E728EE28730855
:1011D000F5027408031CF603F60221140130031013
:1011E000F40CF30CFF3E031DEF280130A002031D99
:1011F000FA28FB28D6282208F4002108F30008006A
:101200001430F7007930F600F60B0429F70B0429A7
:10121000092930300A168A11FA260A128A1507306F
:10122000F7007D30F600F60B1329F70B1329303049
:101230000A168A11FA260A128A150F30F70047306B
:10124000F600F60B2129F70B2129262930300A1642
:101250008A11FA260A128A153530F600F60B2E2965
:1012600038300A168A11FA260A128A1510300A1620
:101270008A11FA260A128A1501300A168A11FA26EC
:101280000A128A1506300A168A11FA260A128A15D7
:101290000C300A168A11FA260A128A150800F5007F
:1012A0008B170B17831603130C17831203130C13DE
:1012B0009F131F171F14AC299F121F129F111F117C
:1012C000E6299F121F129F111F15E6299F121F1258
:1012D0009F151F11E6299F121F129F151F15E62942
:1012E0009F121F169F111F11E6299F121F169F1193
:1012F0001F15E6299F121F169F151F11E6299F1221
:101300001F169F151F15E6299F161F129F111F11EB
:10131000E6299F161F129F111F15E6299F161F12FF
:101320009F151F11E6299F161F129F151F15E629ED
:101330009F161F169F111F11E6299F161F169F113A
:101340001F15E6299F161F169F151F11E6299F16C8
:101350001F169F151F15E6297508F300F401740880
:10136000003A0319B429E6297308003A03195C29E5
:10137000013A03196129033A03196629013A03194D
:101380006B29073A03197029013A03197529033AA1
:1013900003197A29013A03197F290F3A031984297D
:1013A000013A03198929033A03198E29013A0319CD
:1013B0009329073A03199829013A03199D29033AF9
:1013C0000319A229013A0319A729E6298316031351
:1013D0009F01831203139F14080083120313A400B8
:1013E00024080319F429F529092AF61FF829F929EF
:1013F000092A7309A6007409A7007509A8007609CF
:10140000A900A60A0319A70A0319A80A0319A90A19
:10141000112A7608A9007508A8007408A7007308A7
:10142000A6007608750474047304031D182A192A8B
:10143000222A0030F6000030F5000030F4000030C1
:10144000F300A82A9630A0002008A500342A013015
:10145000A0002008A50701300310A90CA80CA70CB8
:10146000A60CFF3E031D2C2AFE302905031D392A38
:101470003A2A272A562A0130A0002008A507013061
:10148000A607003003180130A70700300318013009
:10149000A807003003180130A90701300310A90C78
:1014A000A80CA70CA60CFF3E031D4E2AFF302905F1
:1014B000031D5B2A5C2A3B2A682A0130A502013001
:1014C000A0000310A60DA70DA80DA90DA00B612A61
:1014D000A81B6B2A6C2A722A023025020318712A73
:1014E000722A5D2A2518752A762A7E2AFF30A605DB
:1014F000FF30A7057F30A805FF30A9050310A50C14
:101500002508A000A101A201A30118300310A00D1D
:10151000A10DA20DA30DFF3E031D862A2008A604DF
:101520002108A7042208A8042308A90424080319F1
:101530009A2A9B2AA02AF61F9E2A9F2AA02AA91728
:101540002908F6002808F5002708F4002608F3000B
:10155000080083120313B4002A30AC002C08AF003B
:101560007C2B253035060319B62AB72AC32A35083D
:10157000AC00340884002C08831380000130AC00D8
:101580002C08B4077C2BB0010130A907FF302907D4
:1015900084000A128A150A200A128A15B500AC00C6
:1015A000AD012D08003A0319D62A7C2B2C08003AED
:1015B00003198E2B643A0319E12A0D3A0319E12A23
:1015C0007C2B2F08840083130008B200840A0008D3
:1015D000B3000230AC002C08AF07B31FF02AF12A89
:1015E000FA2A0330AC002C08B004B209B309B20ADD
:1015F0000319B30AB501B50A3508AC002C07013E42
:1016000084000A128A150A200A128A15AD000A12ED
:101610008A150A200A128A15AE002E083302031D0D
:10162000132B2D0832020318162B172B182B222BE5
:101630000130AC002C08B50705303506031D212B01
:10164000222BFC2A300803390319272B282B332B94
:101650002D30AC00340884002C0883138000013046
:10166000AC002C08B4073508AC002C08B100732B73
:101670000A30A3000030A4003108AC002C07013E62
:1016800084000A128A150A200A128A15F3000A1227
:101690008A150A200A128A15F4003308F600320867
:1016A000F5000A128A15BA200A128A1574088312E4
:1016B0000313A6007308A5000A168A11C4270A128C
:1016C0008A15831203132308303EAD002D08B500A0
:1016D0003508AC00340884002C08831380000130E6
:1016E000AC002C08B407FF30AC002C08B107310A5D
:1016F000031D7B2B7C2B382B0130A907FF302907DA
:1017000084000A128A150A200A128A15AC002C08D5
:10171000B5003508031D8D2B8E2BB12A34088400AB
:101720008313800108008312031359088039DA00FB
:101730005A08E3005908DA005A07DB005B08EA00A0
:10174000D81FA32BA42BA52B6A146A080319A92B55
:10175000AA2BBA2B6A0A031DAE2BAF2BB72B003076
:10176000D9000030D8000030D7000030D600D8179C
:10177000D901C22B0030D9000030D8000030D7008A
:101780000030D60055088039DA005A08E3065508BB
:10179000DA005A07DB005B08EB00D41FD02BD12BFB
:1017A000D22B6B146B080319D62BD72BE72B6B0AA4
:1017B000031DDB2BDC2BE42B0030D5000030D400E4
:1017C0000030D3000030D200D417D501EF2B003009
:1017D000D5000030D4000030D3000030D2005508CE
:1017E000540453045204031DF62BF72B102C003025
:1017F000D9000030D8000030D7000030D60080304B
:10180000D8047F30D9046308DA005A08D90459088B
:10181000D5005808D4005708D3005608D2006F2DC1
:101820006A08031D142C152C1E2C0030D500003026
:10183000D4000030D3000030D2006F2D6A08DA00E7
:10184000DB015B08DD006B085A02DC00031CDD03D2
:101850005C087F3EE4005D080318013E003EE500A1
:101860005908E2005808E1005708E0005608DF0078
:101870000030D9000030D8000030D7000030D6004A
:101880000030E9000030E8000030E7000030E600FA
:10189000EB01942C6B0803194E2C4F2C6F2C01304C
:1018A000DA000310DF0DE00DE10DE20DDA0B512C33
:1018B0000130DA000310D60DD70DD80DD90DDA0B93
:1018C0005A2CE91F642C652C662C56140130DA0062
:1018D0000310E60DE70DE80DE90DDA0B682C55084D
:1018E0006202031D7D2C54086102031D7D2C5308E8
:1018F0006002031D7D2C52085F02031C802C812C8A
:10190000902C69175208DF025308031C530FE002A2
:101910005408031C540FE1025508031C550FE20242
:101920000130DA005A08EB071A306B02031C992CBD
:101930009A2C4A2C6208610460045F040319A12CEC
:10194000A22CC12C6614C12C0130DA000310D60D74
:10195000D70DD80DD90DDA0BA62CE91FB02CB12C60
:10196000B22C56140130DA000310E60DE70DE80D35
:10197000E90DDA0BB42CFF30E4070318E50AFF3059
:10198000E507D81FC42CC52CA42CEB01E91FC92CDA
:10199000CA2CE62CFF306605DA00FF306705DB0055
:1019A000FF306805DC007F306905DD005D085C0400
:1019B0005B045A040319DD2CDE2CE12CEB01EB0A4D
:1019C000E62C561CE42CE52CE62CDE2C6B080319C7
:1019D000EA2CEB2C1C2D0130D60700300318013007
:1019E000D707003003180130D80700300318013042
:1019F000D907591CFC2CFD2C1C2D5608DA00570861
:101A0000DB005808DC005908DD000130DE005D0D08
:101A1000DD0CDC0CDB0CDA0CDE0B072D5D08D900CD
:101A20005C08D8005B08D7005A08D6000130E407EC
:101A30000318E50A0030E5076508803AFF008030AA
:101A40007F02031D252DFF306402031C282D292D44
:101A5000372DFF3083120313E4000030E50000301F
:101A6000D9000030D8000030D7000030D6008312F3
:101A700003136508803AFF0080307F02031D422D6A
:101A8000013064020318452D462D532D8312031394
:101A9000E401E5010030D9000030D8000030D70063
:101AA0000030D600E301831203136408DA005A08F9
:101AB000EA006A1C5C2D5D2D5F2DD817632D7F30E9
:101AC000DA005A08D8056A08DA0003105A0CDB005D
:101AD0005B08D9006308DA005A08D904072C08000B
:101AE0008312031323088039A8002808F300230871
:101AF000A8002807A9002908F500A21F802D812D24
:101B0000822D751475080319862D872D972D750A5A
:101B1000031D8B2D8C2D942D0030A3000030A200CE
:101B20000030A1000030A000A217A3019F2D0030BB
:101B3000A3000030A2000030A1000030A000270860
:101B40008039A8002808F400740873060319A92D29
:101B5000AA2DAB2D73172708A8002807A90029086C
:101B6000F400A61FB42DB52DB62D741474080319F6
:101B7000BA2DBB2DCB2D740A031DBF2DC02DC82D32
:101B80000030A7000030A6000030A5000030A400FF
:101B9000A617A701D32D0030A7000030A600003003
:101BA000A5000030A400750874020318D82DD92DA3
:101BB0001D2E731FDC2DDD2DE12D8030A80028089F
:101BC000F3067508A8002808F6007408A80028087D
:101BD000F5007608A8002808F4002008A8002808C6
:101BE000F6002408A8002808A0007608A800280805
:101BF000A4002108A8002808F6002508A800280845
:101C0000A1007608A8002808A5002208A800280836
:101C1000F6002608A8002808A2007608A8002808D0
:101C2000A6002308A8002808F6002708A80028080E
:101C3000A3007608A8002808A700F6017408A800E9
:101C4000A9012908AB0075082802AA00031CAB03F0
:101C50002B08803AFF0080307F02031D312E1A309E
:101C60002A02031C342E352E762E831203132308EA
:101C7000220421042004031D3E2E402E0130412E5B
:101C80000030A8002808F6000030A3000030A200B1
:101C90000030A1000030A0007408A8002808F5005A
:101CA0007C2E761C542E552E602E7608831203133C
:101CB000A8000310280C0138A9002908F600622E9C
:101CC0000310F60C83120313201C672E682E692E56
:101CD000F6170130A800230DA30CA20CA10CA00C38
:101CE000A80B6B2E0130A8002808F50774087502B0
:101CF000031C7B2E7C2E512E731B7F2E802ECF2E0D
:101D00007508031D842E852E902E00308312031338
:101D1000A3000030A2000030A1000030A000FF2F7F
:101D2000831203132408A007250803110318013E9A
:101D300003199B2EA107260803110318013E03195E
:101D4000A22EA207270803110318013E0319A92E8A
:101D5000A307231CAC2EAD2E852F761CB02EB12EE2
:101D6000BA2E7608A8000310280C0138A90029080B
:101D7000F600BC2E0310F60C201CBF2EC02EC12E68
:101D8000F6170130A800230DA30CA20CA10CA00C87
:101D9000A80BC32E0130A8002808F507852F831251
:101DA00003132308803AFF002708803A7F02031DAF
:101DB000E32E26082202031DE32E25082102031D1F
:101DC000E32E240820020318E62EE72E3F2FFF30D3
:101DD000A800FF30A900FF30AA00FF30AB002408A4
:101DE000AC002508AD002608AE002708AF0020088B
:101DF000AC022108031C210FFE2EFF2EAD0222088B
:101E0000031C220F042F052FAE022308031C230FEF
:101E10000A2F0B2FAF022C08A8072D0803182D0F2F
:101E2000122F132FA9072E0803182E0F182F192F62
:101E3000AA072F0803182F0AAB072B08A3002A08AC
:101E4000A2002908A1002808A0008030A8002808C6
:101E5000F306F609F60A7608031D2F2F302F4D2FB3
:101E60000130A007003003180130A107003003182B
:101E70000130A207003003180130A3074D2F2408BA
:101E8000A0022508031C250FA1022608031C260F0B
:101E9000A2022708031C270FA302230822042104FF
:101EA0002004031D542F552F812F7608031D592F11
:101EB0005A2F812F0030A3000030A2000030A10073
:101EC0000030A000FF2F0130A8000310A00DA10DCD
:101ED000A20DA30DA80B652FF61F6F2F702F712F6A
:101EE0002014761C742F752F782F0314F60D7A2F7B
:101EF0000310F60D750803197E2F7F2F812F0130F7
:101F0000F502A21F842F852F632FF401F61F892F5E
:101F10008A2F982F76087F3903198F2F902F932FB0
:101F2000F401F40A982F201C962F972F982F902FAA
:101F3000740803199C2F9D2FD12F0130A00700306A
:101F400003180130A107003003180130A207003048
:101F500003180130A307231CAE2FAF2FD12F200869
:101F6000A8002108A9002208AA002308AB0001301C
:101F7000AC002B0DAB0CAA0CA90CA80CAC0BB92F08
:101F80002B08A3002A08A2002908A1002808A00005
:101F9000750A0319CC2FCD2FD12F0130A8002808A6
:101FA000F507750A0319D52FD62FDB2F7508031DEA
:101FB000DA2FDB2FE92F0030A3000030A200003021
:101FC000A1000030A0007508031DE72FE82FE92FBE
:101FD000F301751CEC2FED2FEF2FA217F32F7F309D
:101FE000A8002808A2057508A8000310280CA9005D
:101FF0002908A300F31FFD2FFE2FFF2FA3170800B2
:102DD60001300A168A11FA260A168A1108006400BA
:102DE6008001840A0406031900340406F32EF50054
:102DF6008312031306137508880086170630F4003D
:102E06003030F300F30B052FF40B052F000083126F
:102E1600031386130800F5008312031306177508BB
:102E2600880086170630F4003030F300F30B192FB4
:102E3600F40B192F00008312031386130800F70002
:102E46007603031D272F282F2F2F77087F3E0A167C
:102E56008A11FA260A168A1102307606031D342FC5
:102E6600352F3C2F7708BF3E0A168A11FA260A1616
:102E76008A1108008B130B13831203139F18442F18
:102E8600452F482FEE01EE0A0C138C1E4B2F4C2FAC
:102E9600502F1A08F0007008F8008B170B177208ED
:102EA6008A00710E8300FE0E7E0E09008312031344
:102EB600BD001B30B6003608A9003D08B700B801B2
:102EC6003708AA003808AB0039300A128A15A92239
:102ED6000A168A113930F6000030F7000A128A15F0
:102EE60074200A168A110800803083120313B30671
:102EF6003708A3003608A2003508A1003408A00050
:102F06003308A7003208A6003108A5003008A4003F
:102F16000A128A1570250A168A11831203132308CA
:102F2600B3002208B2002108B1002008B000080052
:102F360083120313A400A001A1017308F500F60192
:102F46007508A2007608A300241CAA2FAB2FB12F68
:102F56002208A0070318A10A2308A10701300310BD
:102F6600A20DA30DFF3E031DB22F0310A40C2408CF
:102F7600031DBE2FBF2FA72F2108F4002008F30042
:102F8600080083120313230824040319CB2FCC2F24
:102F9600FB2FA801A80ADA2F01300310A30DA40DF8
:102FA600FF3E031DD02F0130A7002708A807A41F46
:102FB600DD2FDE2FCF2F24082602031DE42F230842
:102FC6002502031CE72FE82FEE2F2308A50224086D
:102FD600031CA603A60201300310A40CA30CFF3E9B
:102FE600031DEF2F0130A802031DFA2FFB2FDE2F42
:0A2FF6002608A4002508A300080027
:04400E00D4E0FFFFFC
:00000001FF
